S015000050574D5F4558414D504C4531312E737265634E
S1130000F9C000000FC100000DC100000BC10000C9
S113001009C1000007C1000005C1000003C10000C0
S113002001C10000FFC00000FDC00000FBC00000D3
S1130030F9C00000F7C000002FC1000065C1000036
S11300409BC10000D1C1000007C200003DC20000F6
S113005073C20000A9C20000DFC2000015C3000083
S1130060E1C00000DFC00000DDC00000DBC0000014
S1130070D9C00000D7C00000D5C00000D3C0000024
S1130080D1C00000CFC00000CDC00000CBC0000034
S1130090C9C00000C7C00000C5C00000C3C0000044
S11300A0C1C00000BFC00000BDC00000BBC0000054
S11300B0B9C00000B7C00000B5C000004DC50000C5
S11300C083C50000B9C50000EFC5000025C60000C7
S11300D05BC6000091C60000C7C60000FDC6000054
S11300E033C700009FC000009DC000009BC00000FB
S11300F099C0000097C0000095C0000093C00000A4
S113010091C000008FC000008DC000008BC00000B3
S113011089C0000087C0000085C0000083C00000C3
S113012081C000007FC000007DC000007BC00000D3
S113013079C00000E1C2000017C300004DC30000F5
S113014083C30000B9C30000EFC3000025C400004E
S11301505BC4000091C40000C7C4000063C0000079
S113016061C000005FC000005DC000005BC0000013
S113017059C0000057C0000055C0000053C0000023
S113018051C000004FC000004DC000004BC0000033
S113019049C0000047C0000045C0000043C0000043
S11301A041C000003FC000003DC000003BC0000053
S11301B003C7000039C700006FC70000A5C70000CF
S11301C0DBC700000C94F4080C942C090C9464090B
S11301D00C949C090C94D40925C0000023C0000091
S11301E021C000001FC000001DC000001BC0000093
S11301F019C0000011241FBECFEFDFE3DEBFCDBF67
S113020000E00CBF18BE19BE1ABE1BBE20E2A0E05F
S1130210B0E201C01D92A035B207E1F70E942C0C98
S11302200C94900CEDCE8FEF80937000809371004E
S113023080937200809373008093740080937500A0
S1130240809376008FB7F894E0E5F0E090819260B7
S113025090838FBF818181FFFDCF61E080E490E0D6
S113026015D08FB7F894E0E5F0E090819E7F9083FD
S11302708FBF08959FB7F894E82FF0E0E059FF4F3F
S113028060958081682360839FBF08951BBEFC0135
S113029028ED24BF608308951F920F920FB60F922A
S11302A0112408B60F9218BE09B60F9219BE0BB6E8
S11302B00F921BBE2F933F934F935F936F937F9344
S11302C08F939F93AF93BF93EF93FF93E09100209D
S11302D0F0910120309709F01995FF91EF91BF91AA
S11302E0AF919F918F917F916F915F914F913F91CA
S11302F02F910F900BBE0F9009BE0F9008BE0F9068
S11303000FBE0F901F9018951F920F920FB60F9269
S1130310112408B60F9218BE09B60F9219BE0BB677
S11303200F921BBE2F933F934F935F936F937F93D3
S11303308F939F93AF93BF93EF93FF93E09102202A
S1130340F0910320309709F01995FF91EF91BF9137
S1130350AF919F918F917F916F915F914F913F9159
S11303602F910F900BBE0F9009BE0F9008BE0F90F7
S11303700FBE0F901F9018951F920F920FB60F92F9
S1130380112408B60F9218BE09B60F9219BE0BB607
S11303900F921BBE2F933F934F935F936F937F9363
S11303A08F939F93AF93BF93EF93FF93E0910420B8
S11303B0F0910520309709F01995FF91EF91BF91C5
S11303C0AF919F918F917F916F915F914F913F91E9
S11303D02F910F900BBE0F9009BE0F9008BE0F9087
S11303E00FBE0F901F9018951F920F920FB60F9289
S11303F0112408B60F9218BE09B60F9219BE0BB697
S11304000F921BBE2F933F934F935F936F937F93F2
S11304108F939F93AF93BF93EF93FF93E091062045
S1130420F0910720309709F01995FF91EF91BF9152
S1130430AF919F918F917F916F915F914F913F9178
S11304402F910F900BBE0F9009BE0F9008BE0F9016
S11304500FBE0F901F9018951F920F920FB60F9218
S1130460112408B60F9218BE09B60F9219BE0BB626
S11304700F921BBE2F933F934F935F936F937F9382
S11304808F939F93AF93BF93EF93FF93E0910820D3
S1130490F0910920309709F01995FF91EF91BF91E0
S11304A0AF919F918F917F916F915F914F913F9108
S11304B02F910F900BBE0F9009BE0F9008BE0F90A6
S11304C00FBE0F901F9018951F920F920FB60F92A8
S11304D0112408B60F9218BE09B60F9219BE0BB6B6
S11304E00F921BBE2F933F934F935F936F937F9312
S11304F08F939F93AF93BF93EF93FF93E0910A2061
S1130500F0910B20309709F01995FF91EF91BF916D
S1130510AF919F918F917F916F915F914F913F9197
S11305202F910F900BBE0F9009BE0F9008BE0F9035
S11305300FBE0F901F9018951F920F920FB60F9237
S1130540112408B60F9218BE09B60F9219BE0BB645
S11305500F921BBE2F933F934F935F936F937F93A1
S11305608F939F93AF93BF93EF93FF93E0910C20EE
S1130570F0910D20309709F01995FF91EF91BF91FB
S1130580AF919F918F917F916F915F914F913F9127
S11305902F910F900BBE0F9009BE0F9008BE0F90C5
S11305A00FBE0F901F9018951F920F920FB60F92C7
S11305B0112408B60F9218BE09B60F9219BE0BB6D5
S11305C00F921BBE2F933F934F935F936F937F9331
S11305D08F939F93AF93BF93EF93FF93E0910E207C
S11305E0F0910F20309709F01995FF91EF91BF9189
S11305F0AF919F918F917F916F915F914F913F91B7
S11306002F910F900BBE0F9009BE0F9008BE0F9054
S11306100FBE0F901F9018951F920F920FB60F9256
S1130620112408B60F9218BE09B60F9219BE0BB664
S11306300F921BBE2F933F934F935F936F937F93C0
S11306408F939F93AF93BF93EF93FF93E091102009
S1130650F0911120309709F01995FF91EF91BF9116
S1130660AF919F918F917F916F915F914F913F9146
S11306702F910F900BBE0F9009BE0F9008BE0F90E4
S11306800FBE0F901F9018951F920F920FB60F92E6
S1130690112408B60F9218BE09B60F9219BE0BB6F4
S11306A00F921BBE2F933F934F935F936F937F9350
S11306B08F939F93AF93BF93EF93FF93E091122097
S11306C0F0911320309709F01995FF91EF91BF91A4
S11306D0AF919F918F917F916F915F914F913F91D6
S11306E02F910F900BBE0F9009BE0F9008BE0F9074
S11306F00FBE0F901F9018951F920F920FB60F9276
S1130700112408B60F9218BE09B60F9219BE0BB683
S11307100F921BBE2F933F934F935F936F937F93DF
S11307208F939F93AF93BF93EF93FF93E091142024
S1130730F0911520309709F01995FF91EF91BF9131
S1130740AF919F918F917F916F915F914F913F9165
S11307502F910F900BBE0F9009BE0F9008BE0F9003
S11307600FBE0F901F9018951F920F920FB60F9205
S1130770112408B60F9218BE09B60F9219BE0BB613
S11307800F921BBE2F933F934F935F936F937F936F
S11307908F939F93AF93BF93EF93FF93E0911620B2
S11307A0F0911720309709F01995FF91EF91BF91BF
S11307B0AF919F918F917F916F915F914F913F91F5
S11307C02F910F900BBE0F9009BE0F9008BE0F9093
S11307D00FBE0F901F9018951F920F920FB60F9295
S11307E0112408B60F9218BE09B60F9219BE0BB6A3
S11307F00F921BBE2F933F934F935F936F937F93FF
S11308008F939F93AF93BF93EF93FF93E09118203F
S1130810F0911920309709F01995FF91EF91BF914C
S1130820AF919F918F917F916F915F914F913F9184
S11308302F910F900BBE0F9009BE0F9008BE0F9022
S11308400FBE0F901F9018951F920F920FB60F9224
S1130850112408B60F9218BE09B60F9219BE0BB632
S11308600F921BBE2F933F934F935F936F937F938E
S11308708F939F93AF93BF93EF93FF93E0911A20CD
S1130880F0911B20309709F01995FF91EF91BF91DA
S1130890AF919F918F917F916F915F914F913F9114
S11308A02F910F900BBE0F9009BE0F9008BE0F90B2
S11308B00FBE0F901F9018951F920F920FB60F92B4
S11308C0112408B60F9218BE09B60F9219BE0BB6C2
S11308D00F921BBE2F933F934F935F936F937F931E
S11308E08F939F93AF93BF93EF93FF93E0911C205B
S11308F0F0911D20309709F01995FF91EF91BF9168
S1130900AF919F918F917F916F915F914F913F91A3
S11309102F910F900BBE0F9009BE0F9008BE0F9041
S11309200FBE0F901F9018951F920F920FB60F9243
S1130930112408B60F9218BE09B60F9219BE0BB651
S11309400F921BBE2F933F934F935F936F937F93AD
S11309508F939F93AF93BF93EF93FF93E0911E20E8
S1130960F0911F20309709F01995FF91EF91BF91F5
S1130970AF919F918F917F916F915F914F913F9133
S11309802F910F900BBE0F9009BE0F9008BE0F90D1
S11309900FBE0F901F9018951F920F920FB60F92D3
S11309A0112408B60F9218BE09B60F9219BE0BB6E1
S11309B00F921BBE2F933F934F935F936F937F933D
S11309C08F939F93AF93BF93EF93FF93E091202076
S11309D0F0912120309709F01995FF91EF91BF9183
S11309E0AF919F918F917F916F915F914F913F91C3
S11309F02F910F900BBE0F9009BE0F9008BE0F9061
S1130A000FBE0F901F9018951F920F920FB60F9262
S1130A10112408B60F9218BE09B60F9219BE0BB670
S1130A200F921BBE2F933F934F935F936F937F93CC
S1130A308F939F93AF93BF93EF93FF93E091222003
S1130A40F0912320309709F01995FF91EF91BF9110
S1130A50AF919F918F917F916F915F914F913F9152
S1130A602F910F900BBE0F9009BE0F9008BE0F90F0
S1130A700FBE0F901F9018951F920F920FB60F92F2
S1130A80112408B60F9218BE09B60F9219BE0BB600
S1130A900F921BBE2F933F934F935F936F937F935C
S1130AA08F939F93AF93BF93EF93FF93E091242091
S1130AB0F0912520309709F01995FF91EF91BF919E
S1130AC0AF919F918F917F916F915F914F913F91E2
S1130AD02F910F900BBE0F9009BE0F9008BE0F9080
S1130AE00FBE0F901F9018951F920F920FB60F9282
S1130AF0112408B60F9218BE09B60F9219BE0BB690
S1130B000F921BBE2F933F934F935F936F937F93EB
S1130B108F939F93AF93BF93EF93FF93E09126201E
S1130B20F0912720309709F01995FF91EF91BF912B
S1130B30AF919F918F917F916F915F914F913F9171
S1130B402F910F900BBE0F9009BE0F9008BE0F900F
S1130B500FBE0F901F9018951F920F920FB60F9211
S1130B60112408B60F9218BE09B60F9219BE0BB61F
S1130B700F921BBE2F933F934F935F936F937F937B
S1130B808F939F93AF93BF93EF93FF93E0912820AC
S1130B90F0912920309709F01995FF91EF91BF91B9
S1130BA0AF919F918F917F916F915F914F913F9101
S1130BB02F910F900BBE0F9009BE0F9008BE0F909F
S1130BC00FBE0F901F9018951F920F920FB60F92A1
S1130BD0112408B60F9218BE09B60F9219BE0BB6AF
S1130BE00F921BBE2F933F934F935F936F937F930B
S1130BF08F939F93AF93BF93EF93FF93E0912A203A
S1130C00F0912B20309709F01995FF91EF91BF9146
S1130C10AF919F918F917F916F915F914F913F9190
S1130C202F910F900BBE0F9009BE0F9008BE0F902E
S1130C300FBE0F901F9018951F920F920FB60F9230
S1130C40112408B60F9218BE09B60F9219BE0BB63E
S1130C500F921BBE2F933F934F935F936F937F939A
S1130C608F939F93AF93BF93EF93FF93E0912C20C7
S1130C70F0912D20309709F01995FF91EF91BF91D4
S1130C80AF919F918F917F916F915F914F913F9120
S1130C902F910F900BBE0F9009BE0F9008BE0F90BE
S1130CA00FBE0F901F9018951F920F920FB60F92C0
S1130CB0112408B60F9218BE09B60F9219BE0BB6CE
S1130CC00F921BBE2F933F934F935F936F937F932A
S1130CD08F939F93AF93BF93EF93FF93E0912E2055
S1130CE0F0912F20309709F01995FF91EF91BF9162
S1130CF0AF919F918F917F916F915F914F913F91B0
S1130D002F910F900BBE0F9009BE0F9008BE0F904D
S1130D100FBE0F901F9018951F920F920FB60F924F
S1130D20112408B60F9218BE09B60F9219BE0BB65D
S1130D300F921BBE2F933F934F935F936F937F93B9
S1130D408F939F93AF93BF93EF93FF93E0913020E2
S1130D50F0913120309709F01995FF91EF91BF91EF
S1130D60AF919F918F917F916F915F914F913F913F
S1130D702F910F900BBE0F9009BE0F9008BE0F90DD
S1130D800FBE0F901F9018951F920F920FB60F92DF
S1130D90112408B60F9218BE09B60F9219BE0BB6ED
S1130DA00F921BBE2F933F934F935F936F937F9349
S1130DB08F939F93AF93BF93EF93FF93E091322070
S1130DC0F0913320309709F01995FF91EF91BF917D
S1130DD0AF919F918F917F916F915F914F913F91CF
S1130DE02F910F900BBE0F9009BE0F9008BE0F906D
S1130DF00FBE0F901F9018951F920F920FB60F926F
S1130E00112408B60F9218BE09B60F9219BE0BB67C
S1130E100F921BBE2F933F934F935F936F937F93D8
S1130E208F939F93AF93BF93EF93FF93E0913420FD
S1130E30F0913520309709F01995FF91EF91BF910A
S1130E40AF919F918F917F916F915F914F913F915E
S1130E502F910F900BBE0F9009BE0F9008BE0F90FC
S1130E600FBE0F901F9018951F920F920FB60F92FE
S1130E70112408B60F9218BE09B60F9219BE0BB60C
S1130E800F921BBE2F933F934F935F936F937F9368
S1130E908F939F93AF93BF93EF93FF93E09136208B
S1130EA0F0913720309709F01995FF91EF91BF9198
S1130EB0AF919F918F917F916F915F914F913F91EE
S1130EC02F910F900BBE0F9009BE0F9008BE0F908C
S1130ED00FBE0F901F9018951F920F920FB60F928E
S1130EE0112408B60F9218BE09B60F9219BE0BB69C
S1130EF00F921BBE2F933F934F935F936F937F93F8
S1130F008F939F93AF93BF93EF93FF93E091382018
S1130F10F0913920309709F01995FF91EF91BF9125
S1130F20AF919F918F917F916F915F914F913F917D
S1130F302F910F900BBE0F9009BE0F9008BE0F901B
S1130F400FBE0F901F9018951F920F920FB60F921D
S1130F50112408B60F9218BE09B60F9219BE0BB62B
S1130F600F921BBE2F933F934F935F936F937F9387
S1130F708F939F93AF93BF93EF93FF93E0913A20A6
S1130F80F0913B20309709F01995FF91EF91BF91B3
S1130F90AF919F918F917F916F915F914F913F910D
S1130FA02F910F900BBE0F9009BE0F9008BE0F90AB
S1130FB00FBE0F901F9018951F920F920FB60F92AD
S1130FC0112408B60F9218BE09B60F9219BE0BB6BB
S1130FD00F921BBE2F933F934F935F936F937F9317
S1130FE08F939F93AF93BF93EF93FF93E0913C2034
S1130FF0F0913D20309709F01995FF91EF91BF9141
S1131000AF919F918F917F916F915F914F913F919C
S11310102F910F900BBE0F9009BE0F9008BE0F903A
S11310200FBE0F901F9018951F920F920FB60F923C
S1131030112408B60F9218BE09B60F9219BE0BB64A
S11310400F921BBE2F933F934F935F936F937F93A6
S11310508F939F93AF93BF93EF93FF93E0913E20C1
S1131060F0913F20309709F01995FF91EF91BF91CE
S1131070AF919F918F917F916F915F914F913F912C
S11310802F910F900BBE0F9009BE0F9008BE0F90CA
S11310900FBE0F901F9018951F920F920FB60F92CC
S11310A0112408B60F9218BE09B60F9219BE0BB6DA
S11310B00F921BBE2F933F934F935F936F937F9336
S11310C08F939F93AF93BF93EF93FF93E09140204F
S11310D0F0914120309709F01995FF91EF91BF915C
S11310E0AF919F918F917F916F915F914F913F91BC
S11310F02F910F900BBE0F9009BE0F9008BE0F905A
S11311000FBE0F901F9018951F920F920FB60F925B
S1131110112408B60F9218BE09B60F9219BE0BB669
S11311200F921BBE2F933F934F935F936F937F93C5
S11311308F939F93AF93BF93EF93FF93E0914220DC
S1131140F0914320309709F01995FF91EF91BF91E9
S1131150AF919F918F917F916F915F914F913F914B
S11311602F910F900BBE0F9009BE0F9008BE0F90E9
S11311700FBE0F901F9018951F920F920FB60F92EB
S1131180112408B60F9218BE09B60F9219BE0BB6F9
S11311900F921BBE2F933F934F935F936F937F9355
S11311A08F939F93AF93BF93EF93FF93E09144206A
S11311B0F0914520309709F01995FF91EF91BF9177
S11311C0AF919F918F917F916F915F914F913F91DB
S11311D02F910F900BBE0F9009BE0F9008BE0F9079
S11311E00FBE0F901F9018951F920F920FB60F927B
S11311F0112408B60F9218BE09B60F9219BE0BB689
S11312000F921BBE2F933F934F935F936F937F93E4
S11312108F939F93AF93BF93EF93FF93E0914620F7
S1131220F0914720309709F01995FF91EF91BF9104
S1131230AF919F918F917F916F915F914F913F916A
S11312402F910F900BBE0F9009BE0F9008BE0F9008
S11312500FBE0F901F9018951F920F920FB60F920A
S1131260112408B60F9218BE09B60F9219BE0BB618
S11312700F921BBE2F933F934F935F936F937F9374
S11312808F939F93AF93BF93EF93FF93E091482085
S1131290F0914920309709F01995FF91EF91BF9192
S11312A0AF919F918F917F916F915F914F913F91FA
S11312B02F910F900BBE0F9009BE0F9008BE0F9098
S11312C00FBE0F901F9018951F920F920FB60F929A
S11312D0112408B60F9218BE09B60F9219BE0BB6A8
S11312E00F921BBE2F933F934F935F936F937F9304
S11312F08F939F93AF93BF93EF93FF93E0914A2013
S1131300F0914B20309709F01995FF91EF91BF911F
S1131310AF919F918F917F916F915F914F913F9189
S11313202F910F900BBE0F9009BE0F9008BE0F9027
S11313300FBE0F901F9018951F920F920FB60F9229
S1131340112408B60F9218BE09B60F9219BE0BB637
S11313500F921BBE2F933F934F935F936F937F9393
S11313608F939F93AF93BF93EF93FF93E0914C20A0
S1131370F0914D20309709F01995FF91EF91BF91AD
S1131380AF919F918F917F916F915F914F913F9119
S11313902F910F900BBE0F9009BE0F9008BE0F90B7
S11313A00FBE0F901F9018951F920F920FB60F92B9
S11313B0112408B60F9218BE09B60F9219BE0BB6C7
S11313C00F921BBE2F933F934F935F936F937F9323
S11313D08F939F93AF93BF93EF93FF93E0914E202E
S11313E0F0914F20309709F01995FF91EF91BF913B
S11313F0AF919F918F917F916F915F914F913F91A9
S11314002F910F900BBE0F9009BE0F9008BE0F9046
S11314100FBE0F901F901895CF93CFB7F8948115F6
S113142028E0920749F461E083E00E943A0164E015
S113143083E00E943A015CC0803428E0920749F4BA
S113144062E083E00E943A0164E083E00E943A0192
S11314504FC0811529E0920749F461E084E00E94BD
S11314603A0164E084E00E943A0142C0803429E0F9
S1131470920749F462E084E00E943A0164E084E067
S11314800E943A0135C081152AE0920749F461E0CF
S113149085E00E943A0164E085E00E943A0128C098
S11314A080342AE0920749F462E085E00E943A0120
S11314B064E085E00E943A011BC081152BE092078D
S11314C049F461E086E00E943A0164E086E00E940B
S11314D03A010EC080349B4049F462E086E00E94E9
S11314E03A0164E086E00E943A0102C0CFBF01C025
S11314F0CFBFCF910895CF92DF92EF92FF92CF9317
S1131500DF93EC016B01E12CF12C60E078E488EED0
S113151091E0A7019601D6D1CA01B9012FEF3FEF9F
S113152040E050E0CFD12115310529F481E08C83CE
S113153021E030E02DC02230310528F482E08C8394
S113154022E030E025C02430310528F483E08C8388
S113155024E030E01DC02830310528F484E08C8379
S113156028E030E015C02034310528F485E08C8370
S113157020E430E00DC02F3F310509F028F486E067
S11315808C8320E031E004C087E08C8320E034E0E9
S113159040E050E060E078E488EE91E093D1CA0145
S11315A0B901A70196018ED12D833E8324363105DE
S11315B018F41C821D821E82DF91CF91FF90EF9060
S11315C0DF90CF9008950F931F93CF93DF93EC0197
S11315D08901633009F453C020F4613021F1C8F566
S11315E00CC0653009F477C008F45FC0663009F4B4
S11315F088C0673009F0B0C09AC080E098E0888362
S11316009983E0E4F6E05081242F30E02150310941
S113161061E070E0CB0102C0880F991F2A95E2F7C0
S1131620852B808399C080E498E088839983E0E4E3
S1131630F6E05081242F30E02D5F3F4F61E070E0F1
S1131640CB0102C0880F991F2A95E2F7852B80836E
S113165083C080E099E088839983E0E6F6E05081D6
S1131660242F30E02150310961E070E0CB0102C049
S1131670880F991F2A95E2F7852B80836DC080E43B
S113168099E088839983E0E6F6E05081242F30E0E6
S11316902D5F3F4F61E070E0CB0102C0880F991FBE
S11316A02A95E2F7852B808357C080E09AE08883EF
S11316B09983E0E8F6E05081242F30E0215031098D
S11316C061E070E0CB0102C0880F991F2A95E2F710
S11316D0852B808341C080E49AE088839983E0E885
S11316E0F6E05081242F30E02D5F3F4F61E070E041
S11316F0CB0102C0880F991F2A95E2F7852B8083BE
S11317002BC080E09BE088839983E0EAF6E0508177
S1131710242F30E02150310961E070E0CB0102C098
S1131720880F991F2A95E2F7852B808315C080E4E2
S11317309BE088839983E0EAF6E05081242F30E02F
S11317402D5F3F4F61E070E0CB0102C0880F991F0D
S11317502A95E2F7852B80834A83423061F018F49E
S1131760413089F405C0433049F0443061F409C084
S113177080E18B8308C080E28B8305C080E48B8387
S113178002C080E88B838881998146DEE881F981F3
S11317908181887F836081831D821E821C82E8810F
S11317A0F9818081807F8083B801CE01A4DEDF913E
S11317B0CF911F910F910895CF93DF93EC01AD81E9
S11317C0BE81262F30E0A0D024E630E040E050E097
S11317D079D08A81E881F981E6FD17C0823061F011
S11317E018F48130E1F405C0833049F08430B9F451
S11317F009C020AF31AF13C022AF33AF10C024AF44
S113180035AF0DC026AF37AF0AC0813019F0823032
S113181031F403C020AF31AF02C022AF33AF8D81AA
S11318209E81E881F98186A397A38B81E881F98160
S1131830E6FD04C09181892B818304C0918180736A
S1131840892B8183E881F9818081807F9C81892B28
S11318508083DF91CF910895CF93DF93CDB7DEB727
S11318606C97CDBFDEBF0E94130124EF31E041E04D
S113187064E0CE010196A7DE24EF31E042E064E0AB
S1131880CE010896A0DE24EF31E043E064E0CE010F
S11318900F9699DE24EF31E044E064E0CE014696F1
S11318A092DE61E6CE01019687DF65E5CE010896FA
S11318B083DF6CE3CE010F967FDF60E0CE014696B6
S11318C07BDFFFCFA1E21A2EAA1BBB1BFD010DC0BB
S11318D0AA1FBB1FEE1FFF1FA217B307E407F507DC
S11318E020F0A21BB30BE40BF50B661F771F881FB8
S11318F0991F1A9469F760957095809590959B014E
S1131900AC01BD01CF010895A29FB001B39FC001F6
S1131910A39F01D0B29F700D811D1124911D0895C4
S1071920F894FFCF65
S9030000FC
