S02B00004945534D2D584D45474133324134552D2D49727269676174696F6E436F6E74726F6C6C65722E73722F
S1130000FDC0000018C100000C94800E14C1000053
S113001012C1000010C100000EC100000CC100009C
S11300200AC1000008C100007EC5000095C500009B
S113003002C100000C94F20A06C600002DC600009E
S113004054C600007BC60000A2C60000C9C600005A
S1130050F0C6000017C700003EC7000065C70000D7
S1130060EAC00000E8C00000E6C00000E4C00000F0
S113007002C1000034C1000028C10000DCC000003F
S1130080DAC00000D8C000000C94940ED4C0000064
S1130090D2C00000D0C00000CEC00000CCC0000020
S11300A0CAC00000C8C00000C6C00000C4C0000030
S11300B0C2C00000C0C000000C94150B0C9457097A
S11300C00C9480090C94A9090C94D2090C94FB0992
S11300D00C94240AB0C00000AEC00000ACC0000004
S11300E0AAC00000A8C000009CC10000CEC100004E
S11300F0C2C10000A0C000009EC000009CC000005F
S11301000C946C0E98C000000C94A80E94C00000CF
S113011092C0000090C000008EC000008CC000009F
S11301208AC0000088C0000086C0000084C00000AF
S113013082C0000022C7000049C7000070C7000049
S113014097C70000BEC70000E5C700000C94B308C1
S11301500C94DC080C9405090C942E096CC0000066
S11301606AC0000068C0000066C0000064C00000EF
S113017062C0000060C000005EC000005CC00000FF
S11301805AC0000058C0000056C0000054C000000F
S113019052C0000050C000004EC000004CC000001F
S11301A04AC0000048C0000046C0000044C000002F
S11301B042C0000040C000003EC000003CC000003F
S11301C03AC0000038C0000036C0000034C000004F
S11301D032C0000030C000002EC000002CC000005F
S11301E02AC0000028C0000026C0000024C000006F
S11301F022C0000020C000001EC0000011241FBE49
S1130200CFEFDFE2DEBFCDBF11E2A0E0B0E2ECE76A
S1130210FDE202C005900D92A633B107D9F723E29F
S1130220A6E3B1E201C01D92A136B207E1F70E9434
S11302302D150C94BC16E4CE862798E02CE880FF9C
S113024003C08695822701C086959150C1F7089511
S11302501F93CF93DF93EC01162F1150662331F0D7
S113026080E06991E9DF1150E0F701C080E0DF919F
S1130270CF911F9108951F920F920FB60F921124E0
S11302802F938F939F93AF93BF93EF93FF932091FB
S1130290B0088091C8218F5F8F709091C921981701
S11302A041F0E8ECF1E2A081B0E0A85CBE4D2C93F3
S11302B08083FF91EF91BF91AF919F918F912F9187
S11302C00F900FBE0F901F9018951F920F920FB6AC
S11302D00F9211240F900FBE0F901F9018951F922C
S11302E00F920FB60F9211248F939F93AF93BF93E6
S11302F0EF93FF939091CA218091CB21981306C06C
S1130300E0EBF8E083818C7F83830EC0EBECF1E2B9
S1130310A081B0E0A85CBE4D50968C918093B0084B
S113032080818F5F8F778083FF91EF91BF91AF9131
S11303309F918F910F900FBE0F901F901895E0EB37
S1130340F8E093818295807F9F7C982B9383089516
S1130350CF93DF93CDB7DEB72997CDBFDEBF89E05A
S1130360E0E0F0E2DE01119601900D928A95E1F74A
S11303701092C9211092C8211092CB211092CA2147
S1130380BE016F5F7F4F80EB98E00E944A0CE0EB68
S1130390F8E083818F7C83838381837F838383815C
S11303A08C7F816083832996CDBFDEBFDF91CF919F
S11303B00895FF920F931F93CF93DF93F82E68E075
S11303C070E081E00E94E40D0AEC11E2CBECD1E292
S11303D002C00E942E0EF80190819F5F9F772881B2
S11303E0921799F0EAECF1E2A081B0E0A85CBE4D6E
S11303F05096FC929083E0EBF8E083818C7F8160DF
S1130400838381E00E940D0E06C081E00E94E80D06
S1130410882309F3DECFDF91CF911F910F91FF90D5
S113042008951F920F920FB60F9211242F938F935A
S11304309F93AF93BF93EF93FF932091A00A809172
S1130440CC228F5F8F779091CD22981741F0ECECFE
S1130450F2E2A081B0E0A453BE4D2C938083FF91BF
S1130460EF91BF91AF919F918F912F910F900FBEFC
S11304700F901F9018951F920F920FB60F92112490
S11304800F900FBE0F901F9018951F920F920FB6EA
S11304900F9211248F939F93AF93BF93EF93FF9386
S11304A09091CE228091CF22981306C0E0EAFAE020
S11304B083818C7F83830DC0EFECF2E2A081B0E0F6
S11304C0A45BBD4D8C918093A00A80818F5F8F7750
S11304D08083FF91EF91BF91AF919F918F910F9086
S11304E00FBE0F901F901895E0EAFAE09381829571
S11304F0807F9F7C982B93830895CF93DF93CDB710
S1130500DEB72997CDBFDEBF89E0E9E0F0E2DE0186
S1130510119601900D928A95E1F71092CD221092D6
S1130520CC221092CF221092CE22BE016F5F7F4F59
S113053080EA9AE00E944A0CE0EAFAE083818F7C28
S113054083838381837F838383818C7F816083839F
S11305502996CDBFDEBFDF91CF9108959091CD2232
S11305608091CC22981769F0EDECF2E2A081B0E022
S1130570A453BE4D2C9180818F5F8F77808330E0B0
S113058002C02FEF3FEF822F932F08952091CD22A9
S11305909091CC2281E0291301C080E00895FF925C
S11305A00F931F93CF93DF93F82E68E070E081E000
S11305B00E94E40D0EEC12E2CFECD2E202C00E94E3
S11305C02E0EF80190819F5F9F772881921791F0FA
S11305D0EEECF2E2A081B0E0A45BBD4DFC9290830E
S11305E0E0EAFAE083818C7F8160838381E00E946A
S11305F00D0E06C081E00E94E80D882311F3DFCFC1
S1130600DF91CF911F910F91FF900895CF93DF93C6
S1130610EC018881882329F02196CBDE8991811110
S1130620FCCFDF91CF910895009709F0EFDF82E1CD
S113063090E2ECCFCF92DF92EF92FF926B017C01BC
S11306408AE0C816D104E104F10458F0C701B601E8
S11306502AE030E040E050E00E941F16CA01B901D0
S1130660E9DFC701B6012AE030E040E050E00E9433
S11306701F16862F805D9DDEFF90EF90DF90CF9058
S113068008956CCF0895CF93C82F89DF8C2F91DE06
S1130690CF910895CF93DF93EC018881882329F0CB
S11306A02196F1DF89918111FCCFDF91CF910895DB
S11306B043E050E068E080E296E0BDD043E050E0E3
S11306C060E280E096E0B7D043E050E068E080E884
S11306D096E0B1D040E050E064E080E896E0ABD032
S11306E043E050E068E080E896E0A5D040E050E0C8
S11306F064E080E896E09FD043E050E060E880E466
S113070096E099D040E050E060E480E496E093D035
S113071043E050E062E080E296E08DD043E050E0B8
S113072060E480E096E087D041E050E061E080E65C
S113073096E081D041E050E062E080E696E07BD034
S113074043E050E068E080E696E075D040E050E099
S113075064E080E496E06FD040E050E064E080E63E
S113076096E069D040E050E064E080E296E063D037
S113077040E050E064E080E096E05DC0CF93DF931A
S11307808FEF809370008093710080937200809348
S113079073008093740080937500809376008FB704
S11307A0F894E0E5F0E09081926090838FBF8181BE
S11307B081FFFDCF8FB7F894E0E5F0E0908194607D
S11307C090838FBF818182FFFDCF8FB7F894C0E5FE
S11307D0D0E09E81997F9E839E819E83E0E6F0E037
S11307E09081916090838FBF61E080E490E04BD072
S11307F08FB7F89498819E7F98838FBF8FB7F894B2
S11308009881946098838FBFE0E5F0E0818182FF56
S1130810FDCF85E0E0E4F0E08383DF91CF9108959C
S11308202FB7F894FC01E059FF4F6095808168234D
S113083060832FBF0895CF93DF93FC01709620E06F
S113084030E0C62FD0E0DE01022E02C0B595A79598
S11308500A94E2F7A0FD50832F5F3F4F3196283072
S1130860310589F740FF0AC041FF03C0FC016583DD
S113087002C0FC016683FC01618302C0FC01628347
S1130880DF91CF9108951BBEFC0128ED24BF608346
S11308900895E0ECF1E027852223ECF3ECECF1E0A1
S11308A0208128602083DC01B05F8C919081977F48
S11308B090830895E0ECF1E087858823ECF3E0EC85
S11308C0F1E0878581FF06C086E3828761E08BECD7
S11308D091E0D9CF0895E0ECF1E097859923ECF30A
S11308E0ECECF1E0908198609083A82FB0E0B05FC9
S11308F06C938081877F80830895FF920F931F9369
S1130900CF93DF93182FF92EC62FE0ECF1E0028588
S1130910D1DFE0ECF1E027852223ECF36C2F812F6B
S1130920DADFC0ECD1E01A82F982188385E38A8782
S113093061E08BEC91E0A7DF0A87DF91CF911F91F3
S11309400F91FF900895EF92FF920F931F93CF930F
S1130950DF938C01E0ECF1E087858823ECF37801E8
S113096080E2E80EF11CE8018C2F801B6991B3DF53
S1130970CE15DF05C9F7DF91CF911F910F91FF903D
S1130980EF9008951F93CF93DF93E0ECF1E0978508
S11309909923ECF320E2829FC0011124C0ECD1E042
S11309A01A82998388831A8585E38A8761E08BECB0
S11309B091E069DF1A87DF91CF911F910895CF925B
S11309C0DF92EF92FF920F931F93CF93DF93EC018B
S11309D07B018A014115510551F1CE018F7199278F
S11309E0892BB1F40032110598F0C701ACDFCE01B8
S11309F096958795929582958F7089279F70892700
S1130A00C1DFA09680E2E80EF11C005211090CC06F
S1130A106E01EFEFCE1ADE0AF70161917F01CE017C
S1130A206CDF01501109E60101151105B1F6DF91E2
S1130A30CF911F910F91FF90EF90DF90CF90089589
S1130A4010920004E0E0F4E0218120FDFDCFE0E01D
S1130A50F4E0608771878093592390935A2387E049
S1130A60808308950F931F93E0E0F4E0818180FD7B
S1130A70FDCF2FB7F8940091592310915A23E0E049
S1130A80F4E080859185009729F4338130FF02C01A
S1130A900F5F1F4F2FBF20E030E098011127002780
S1130AA0A0E0B0E0082B192B2A2B3B2B602F712FD1
S1130AB0822F932F1F910F910895E0E0F4E021E03D
S1130AC022836487758760935D2370935E2380938C
S1130AD05B2390935C23818180FDFDCFE0E0F4E013
S1130AE082E0838385E08283089580935F239093DB
S1130AF06023089564E080E090E092DEE0E0F4E0BA
S1130B008FEF9FEF82879387108611868FB7F894B3
S1130B10A6E5B3E29C919F5F9C938FBF81E08283A3
S1130B2087E0808308951F920F920FB60F921124CD
S1130B308F939F93EF93FF93E9E5F3E28081918193
S1130B40019680839183FF91EF919F918F910F90F4
S1130B500FBE0F901F9018951F920F920FB60F9211
S1130B601124CF92DF92EF92FF920F931F932F9352
S1130B703F934F935F936F937F938F939F93AF9321
S1130B80BF93EF93FF934091592350915A2380913F
S1130B905B2390915C2348175907F0F181E0E0E072
S1130BA0F4E08283E0915F23F09160233097A1F118
S1130BB0A0E0B4E018968D919C91199760E070E0E4
S1130BC0BA0155274427A0E0B0E08A019B01082B15
S1130BD0192B2A2B3B2BC901B80100915B231091DF
S1130BE05C2320E030E0980111270027C0905D23AA
S1130BF0D0905E23E12CF12C0C291D292E293F29AC
S1130C00061717072807390730F0C901B8016F5FC5
S1130C107F4F8F4F9F4F0995FF91EF91BF91AF91F8
S1130C209F918F917F916F915F914F913F912F9100
S1130C301F910F91FF90EF90DF90CF900F900FBE18
S1130C400F901F9018951F920F920FB60F921124B8
S1130C502F933F934F935F936F937F938F939F93C0
S1130C60AF93BF93EF93FF93E091D022F091D12201
S1130C70309709F00995FF91EF91BF91AF919F9142
S1130C808F917F916F915F914F913F912F910F9031
S1130C900FBE0F901F9018951F920F920FB60F92D0
S1130CA011242F933F934F935F936F937F938F936D
S1130CB09F93AF93BF93EF93FF93E091D222F09170
S1130CC0D322309709F00995FF91EF91BF91AF912D
S1130CD09F918F917F916F915F914F913F912F9150
S1130CE00F900FBE0F901F9018951F920F920FB682
S1130CF00F9211242F933F934F935F936F937F939E
S1130D008F939F93AF93BF93EF93FF93E091D4227C
S1130D10F091D522309709F00995FF91EF91BF9199
S1130D20AF919F918F917F916F915F914F913F917F
S1130D302F910F900FBE0F901F9018951F920F9236
S1130D400FB60F9211242F933F934F935F936F939A
S1130D507F938F939F93AF93BF93EF93FF93E09110
S1130D60D622F091D722309709F00995FF91EF919F
S1130D70BF91AF919F918F917F916F915F914F91AF
S1130D803F912F910F900FBE0F901F9018951F92B7
S1130D900F920FB60F9211242F933F934F935F93AB
S1130DA06F937F938F939F93AF93BF93EF93FF932F
S1130DB0E091D822F091D922309709F00995FF915A
S1130DC0EF91BF91AF919F918F917F916F915F91BF
S1130DD04F913F912F910F900FBE0F901F90189538
S1130DE01F920F920FB60F9211242F933F934F939C
S1130DF05F936F937F938F939F93AF93BF93EF937F
S1130E00FF93E091DA22F091DB22309709F0099503
S1130E10FF91EF91BF91AF919F918F917F916F91CE
S1130E205F914F913F912F910F900FBE0F901F90A4
S1130E3018951F920F920FB60F9211242F933F9380
S1130E404F935F936F937F938F939F93AF93BF93CE
S1130E50EF93FF93E091DC22F091DD22309709F0CB
S1130E600995FF91EF91BF91AF919F918F917F91E0
S1130E706F915F914F913F912F910F900FBE0F9003
S1130E801F9018951F920F920FB60F9211242F9353
S1130E903F934F935F936F937F938F939F93AF93FE
S1130EA0BF93EF93FF93E091DE22F091DF2230971E
S1130EB009F00995FF91EF91BF91AF919F918F91A7
S1130EC07F916F915F914F913F912F910F900FBE42
S1130ED00F901F9018951F920F920FB60F92112426
S1130EE02F933F934F935F936F937F938F939F932E
S1130EF0AF93BF93EF93FF93E091E022F091E1224F
S1130F00309709F00995FF91EF91BF91AF919F91AF
S1130F108F917F916F915F914F913F912F910F909E
S1130F200FBE0F901F9018951F920F920FB60F923D
S1130F3011242F933F934F935F936F937F938F93DA
S1130F409F93AF93BF93EF93FF93E091E222F091CD
S1130F50E322309709F00995FF91EF91BF91AF918A
S1130F609F918F917F916F915F914F913F912F91BD
S1130F700F900FBE0F901F9018951F920F920FB6EF
S1130F800F9211242F933F934F935F936F937F930B
S1130F908F939F93AF93BF93EF93FF93E091E422DA
S1130FA0F091E522309709F00995FF91EF91BF91F7
S1130FB0AF919F918F917F916F915F914F913F91ED
S1130FC02F910F900FBE0F901F9018951F920F92A4
S1130FD00FB60F9211242F933F934F935F936F9308
S1130FE07F938F939F93AF93BF93EF93FF93E0917E
S1130FF0E622F091E722309709F00995FF91EF91ED
S1131000BF91AF919F918F917F916F915F914F911C
S11310103F912F910F900FBE0F901F9018951F9224
S11310200F920FB60F9211242F933F934F935F9318
S11310306F937F938F939F93AF93BF93EF93FF939C
S1131040E091E822F091E922309709F00995FF91A7
S1131050EF91BF91AF919F918F917F916F915F912C
S11310604F913F912F910F900FBE0F901F901895A5
S11310701F920F920FB60F9211242F933F934F9309
S11310805F936F937F938F939F93AF93BF93EF93EC
S1131090FF93E091EA22F091EB22309709F0099551
S11310A0FF91EF91BF91AF919F918F917F916F913C
S11310B05F914F913F912F910F900FBE0F901F9012
S11310C018951F920F920FB60F9211242F933F93EE
S11310D04F935F936F937F938F939F93AF93BF933C
S11310E0EF93FF93E091EC22F091ED22309709F019
S11310F00995FF91EF91BF91AF919F918F917F914E
S11311006F915F914F913F912F910F900FBE0F9070
S11311101F9018951F920F920FB60F9211242F93C0
S11311203F934F935F936F937F938F939F93AF936B
S1131130BF93EF93FF93E091EE22F091EF2230976B
S113114009F00995FF91EF91BF91AF919F918F9114
S11311507F916F915F914F913F912F910F900FBEAF
S11311600F901F9018951F920F920FB60F92112493
S11311702F933F934F935F936F937F938F939F939B
S1131180AF93BF93EF93FF93E091F022F091F1229C
S1131190309709F00995FF91EF91BF91AF919F911D
S11311A08F917F916F915F914F913F912F910F900C
S11311B00FBE0F901F9018951F920F920FB60F92AB
S11311C011242F933F934F935F936F937F938F9348
S11311D09F93AF93BF93EF93FF93E091F222F0912B
S11311E0F322309709F00995FF91EF91BF91AF91E8
S11311F09F918F917F916F915F914F913F912F912B
S11312000F900FBE0F901F9018951F920F920FB65C
S11312100F9211242F933F934F935F936F937F9378
S11312208F939F93AF93BF93EF93FF93E091F42237
S1131230F091F522309709F00995FF91EF91BF9154
S1131240AF919F918F917F916F915F914F913F915A
S11312502F910F900FBE0F901F9018951F920F9211
S11312600FB60F9211242F933F934F935F936F9375
S11312707F938F939F93AF93BF93EF93FF93E091EB
S1131280F622F091F722309709F00995FF91EF913A
S1131290BF91AF919F918F917F916F915F914F918A
S11312A03F912F910F900FBE0F901F9018951F9292
S11312B00F920FB60F9211242F933F934F935F9386
S11312C06F937F938F939F93AF93BF93EF93FF930A
S11312D0E091F822F091F922309709F00995FF91F5
S11312E0EF91BF91AF919F918F917F916F915F919A
S11312F04F913F912F910F900FBE0F901F90189513
S11313001F920F920FB60F9211242F933F934F9376
S11313105F936F937F938F939F93AF93BF93EF9359
S1131320FF93E091FA22F091FB22309709F009959E
S1131330FF91EF91BF91AF919F918F917F916F91A9
S11313405F914F913F912F910F900FBE0F901F907F
S113135018951F920F920FB60F9211242F933F935B
S11313604F935F936F937F938F939F93AF93BF93A9
S1131370EF93FF93E091FC22F091FD22309709F066
S11313800995FF91EF91BF91AF919F918F917F91BB
S11313906F915F914F913F912F910F900FBE0F90DE
S11313A01F9018951F920F920FB60F9211242F932E
S11313B03F934F935F936F937F938F939F93AF93D9
S11313C0BF93EF93FF93E091FE22F091FF223097B9
S11313D009F00995FF91EF91BF91AF919F918F9182
S11313E07F916F915F914F913F912F910F900FBE1D
S11313F00F901F9018951F920F920FB60F92112401
S11314002F933F934F935F936F937F938F939F9308
S1131410AF93BF93EF93FF93E0910023F0910123E7
S1131420309709F00995FF91EF91BF91AF919F918A
S11314308F917F916F915F914F913F912F910F9079
S11314400FBE0F901F9018951F920F920FB60F9218
S113145011242F933F934F935F936F937F938F93B5
S11314609F93AF93BF93EF93FF93E0910223F09187
S11314700323309709F00995FF91EF91BF91AF9144
S11314809F918F917F916F915F914F913F912F9198
S11314900F900FBE0F901F901895CF93DF93E0919C
S11314A00423F0910523848183FF0BC08860848327
S11314B083E0838386EF9FEF80930E2390930F2323
S11314C08EC0982F947149F083E083838FEF9FEF50
S11314D080930E2390930F2382C086FF42C0A09175
S11314E00623B09107238091082390910923149631
S11314F02D913C911597821793075CF4A80FB91F9F
S113150011962C91278301968093082390930923A5
S113151066C080910A2390910B2318962D913C91DB
S1131520199782179307B0F420910C23222321F0FA
S113153086818160868353C016960D90BC91A02D40
S1131540A80FB91F2C912783019680930A239093A7
S11315500B2345C083E0838310920E2310920F2344
S11315603EC08823B4F5A0910623B091072380914F
S11315700A2390910B2318962D913C911997821769
S11315809307F0F427811696CD91DC911797C80F35
S1131590D91F2883019680930A2390930B231896CE
S11315A02D913C9119978217930718F482E0838355
S11315B016C087E0838310920E2310920F230FC06E
S11315C083E0838389EF9FEF80930E2390930F230F
S11315D006C08BEF9FEF80930E2390930F23DF9130
S11315E0CF9108951F920F920FB60F9211242F934B
S11315F03F934F935F936F937F938F939F93AF9397
S1131600BF93EF93FF9349DFFF91EF91BF91AF91A8
S11316109F918F917F916F915F914F913F912F9106
S11316200F900FBE0F901F9018951F920F920FB638
S11316300F9211242F933F934F935F936F937F9354
S11316408F939F93AF93BF93EF93FF9326DFFF9105
S1131650EF91BF91AF919F918F917F916F915F9126
S11316604F913F912F910F900FBE0F901F9018959F
S11316704F925F926F927F928F929F92AF92BF929E
S1131680CF92DF92EF92FF920F931F93CF93DF934A
S1131690EC014A015B0128013901D901C8016894B0
S11316A012F8B695A795979587951694D1F7B90131
S11316B0A801032E36E176956795579547953A9597
S11316C0D1F7302D2C8122FD08C0B695A7959795AA
S11316D08795769567955795479588159905AA0531
S11316E0BB0508F4AEC084169506A606B70608F432
S11316F0AAC08C8182FD04C0880C991CAA1CBB1C46
S1131700C301B201A50194010E941F162F3F3105A8
S11317104105510508F499C0C12CD12C7601CA9415
S113172019EF05C02C153D054E055F0568F0CC0C7E
S1131730DD1CEE1CFF1C1D3F14F46894C0F81F5FF1
S1131740173081F7212F54C0212F11230CF050C0E2
S1131750D501C401880F991FAA1FBB1F880F991FA9
S1131760AA1FBB1F880F991FAA1FBB1F481A590A1B
S11317706A0A7B0A1E3FF4F46DEF7FEF611B710967
S113178017FD739504C0440C551C661C771C6A95A0
S1131790D2F7D501C401B695A79597958795BC0155
S11317A0CD01640D751D861D971DA50194010E9430
S11317B01F163EC0212F332727FD30952D5F3F4F45
S11317C0D501C40104C0880F991FAA1FBB1F2A9505
S11317D0D2F79C01AD01B695A79597958795BC0165
S11317E0CD01640D751D861D971D0E941F1620C016
S11317F0332727FD30952D5F3F4FD501C40104C029
S1131800880F991FAA1FBB1F2A95D2F79C01AD010F
S1131810B695A79597958795BC01CD01640D751D67
S1131820861D971D0E941F16215031094109510937
S1131830832F8F701295107F182B1F832E8381E0C6
S113184018C080E016C080E014C0D501C401880F20
S1131850991FAA1FBB1F880F991FAA1FBB1F880FA0
S1131860991FAA1FBB1F481A590A6A0A7B0A19EF53
S113187083CFDF91CF911F910F91FF90EF90DF9075
S1131880CF90BF90AF909F908F907F906F905F901C
S11318904F9008950F931F93CF93DF93EC018B0127
S11318A0009709F4EEC0803C910531F460E180E0DA
S11318B090E00E941004E5C0C11584E0D80731F41B
S11318C064E080E090E00E941004DBC0C038E1E0F6
S11318D0DE0731F462E080E090E00E941004D1C0A1
S11318E0C115F1E0DF0731F461E080E090E00E948F
S11318F01004C7C0C03883E0D80731F461E081E048
S113190090E00E941004BDC0C115E2E0DE0731F48E
S113191062E081E090E00E941004B3C0C032F3E0C2
S1131920DF0731F464E082E090E00E941004A9C073
S1131930C11588E0D80731F461E083E090E00E94AB
S113194010049FC0C115E9E0DE0731F461E084E0D2
S113195090E00E94100495C0C115FAE0DF0731F44D
S113196061E085E090E00E9410048BC0C03488E000
S1131970D80731F462E083E090E00E94100481C053
S1131980C034E9E0DE0731F462E084E090E00E94D4
S1131990100477C0C039F8E0DF0731F464E083E075
S11319A090E00E9410046DC0C03989E0D80731F47A
S11319B064E084E090E00E94100463C0C039EAE06F
S11319C0DE0731F464E085E090E00E94100459C021
S11319D0C03CF8E0DF0731F468E083E090E00E9467
S11319E010044FC0C03C89E0D80731F468E084E0BB
S11319F090E00E94100445C0C03AE8E0DE0731F4EC
S1131A0060E183E090E00E9410043BC0C03AF9E03A
S1131A10DF0731F460E184E090E00E94100431C0FB
S1131A20C03A8AE0D80731F460E185E090E00E9492
S1131A30100427C0C03BE8E0DE0731F460E283E035
S1131A4090E00E9410041DC0C03BF9E0DF0731F4B0
S1131A5060E284E090E00E94100413C0C03884E087
S1131A60D80731F460E483E090E00E94100409C0D8
S1131A70C03AE4E0DE0729F460E485E090E00E94E7
S1131A8010048D818F738D83F80196818481892B55
S1131A909085992311F098E001C090E0892B8D8303
S1131AA0F801408151816281738100E018E428EEDD
S1131AB031E0CE01DDDD9C8198609C839C81906146
S1131AC09C83DF91CF911F910F910895CF93DF9362
S1131AD0C0911023D0913123E1E1F3E280E090E062
S1131AE061E070E02C2F30E0082E02C03595279578
S1131AF00A94E2F720FF1AC0208131812150310974
S1131B0020833183232B91F49B01082E02C0220FE2
S1131B10331F0A94E2F7D22B4281538141155105B8
S1131B2019F04083518302C02095C2230196349654
S1131B3088309105B9F6C0931023D093312360E027
S1131B4070E0CB010E94200560E870E080E090E046
S1131B500E945D05DF91CF9108950E947A0586E683
S1131B609DE00E94750560E070E0CB010E942005B5
S1131B7060E870E080E090E00C945D05883018F532
S1131B80AFB7F894E82FF0E0EE0FFF1FEE0FFF1F42
S1131B90EF5EFC4D408351836283738321E030E028
S1131BA0A90102C0440F551F8A95E2F7CA0190911A
S1131BB01023982B9093102380959091312389239F
S1131BC080933123AFBF0895AB0160E070E0D6CFBE
S1131BD08830F8F42091312330E0082E02C0359586
S1131BE027950A94E2F720FF16C04FB7F89421E036
S1131BF030E0B90102C0660F771F8A95E2F7CB0186
S1131C008095909131238923809331234FBF81E0C4
S1131C10089580E0089580E008954FB7F89421E096
S1131C2030E0B90102C0660F771F8A95E2F7CB0155
S1131C308095909110238923809310234FBF08959A
S1131C408FB7F8948FBF60E070E0CB0108958FB731
S1131C50F8948FBF60E070E0CB010895CF93DF93D9
S1131C60CDB7DEB76197CDBFDEBF80E0E9DF698322
S1131C707A838B839C8381E0E3DF6D837E838F8310
S1131C80988780E0E4DF69877A878B879C8781E087
S1131C90DEDF6D877E878F87988B60E1CE010196AA
S1131CA00E942801898B41E150E0BE016F5F7F4FA4
S1131CB083EC90E00E94DF04E0ECF1E08785882368
S1131CC0ECF389E191E20E941403F89461E089E75E
S1131CD090E00E944304FFCF1F920F920FB60F9221
S1131CE011248F93EF93FF9381E0E0E6F6E084877D
S1131CF0FF91EF918F910F900FBE0F901F90189549
S1131D001F920F920FB60F9211248F93EF93FF93AC
S1131D1081E0E0E4F6E08487FF91EF918F910F90EA
S1131D200FBE0F901F9018951F920F920FB60F922F
S1131D3011248F93EF93FF9381E0E0E2F6E0848730
S1131D40FF91EF918F910F900FBE0F901F901895F8
S1131D501F920F920FB60F9211248F93EF93FF935C
S1131D6081E0E0E0F6E08487FF91EF918F910F909E
S1131D700FBE0F901F901895CF92DF92EF92FF92B3
S1131D800F931F93CF93DF936C017B01C0E0D0E0EE
S1131D908C01015011090E944103C017D10724F49A
S1131DA0F701EC0FFD1F808321968D3011F08A30EE
S1131DB091F7EC0CFD1CF70131971082DF91CF9164
S1131DC01F910F91FF90EF90DF90CF900895E62F31
S1131DD0F72F80E090E0119201968C339105D9F7AA
S1131DE00895CF93DF93CDB7DEB7EC97CDBFDEBFB9
S1131DF023E1E5E1F0E2DE01119601900D922A95CE
S1131E00E1F7BC01CE0101965BD7CE0101960E9499
S1131E104A038AE00E9443038DE00E94430380E06A
S1131E2092E1AAE7B0E00197A109B109E1F7EC96C4
S1131E30CDBFDEBFDF91CF9108952F923F924F9295
S1131E405F926F927F928F929F92AF92BF92CF9246
S1131E50DF92EF92FF920F931F93CF93DF93CDB74F
S1131E60DEB72897CDBFDEBF7C0168E270E225D7DC
S1131E708C016CE270E2C7013ED7892B09F49CC047
S1131E80D7015096FE013196CE0109962D912193EA
S1131E90E817F907D9F78F81992787FD9095C0979F
S1131EA0AA2797FDA095BA2F880F991FAA1FBB1FB9
S1131EB06C017D01CC0CDD1CEE1CFF1CCC0CDD1C6C
S1131EC0EE1CFF1C8C0D9D1DAE1DBF1D48855527A6
S1131ED047FD509540535109662757FD6095762F6D
S1131EE06C017D01C40ED51EE61EF71E898199275B
S1131EF087FD9095C097AA2797FDA095BA2F880FC4
S1131F00991FAA1FBB1FAC01BD01440F551F661FBB
S1131F10771F440F551F661F771F840F951FA61F39
S1131F20B71F4A81552747FD5095405351096627ED
S1131F3057FD6095762F9A01AB01280F391F4A1F70
S1131F405B1FA0E1BEE0A9D6C60ED71EE81EF91E8F
S1131F504C81552747FD509540535109662757FD3D
S1131F606095762F440F551F661F771FDB01CA014A
S1131F70880F991FAA1FBB1F880F991FAA1FBB1F79
S1131F80480F591F6A1F7B1F8D81992787FD9095E4
S1131F90C097AA2797FDA095BA2F9A01AB01280FE5
S1131FA0391F4A1F5B1FACE3B0E077D66C0D7D1D73
S1131FB08E1D9F1D0E942005012B09F46EC000E0B8
S1131FC010E00F2EF9E38F2EF3E29F2EF02D0F2E4B
S1131FD0FDE3AF2EF3E2BF2EF02D0F2EFBE3CF2E49
S1131FE0F3E2DF2EF02D0F2EF1E46F2EF3E27F2EBD
S1131FF0F02D0F2EF3E34F2EF3E25F2EF02D0F2E74
S1132000F7E32F2EF3E23F2EF02D6AE270E280E038
S113201090E053D67C010330110529F144F40130DA
S1132020110589F0E4F40115110549F031C00530BA
S1132030110509F1E4F00630110551F526C0E2E37B
S1132040F3E2808325C0CDDEC701AA2797FDA095C2
S1132050BA2FF20180839183A283B38319C0F10163
S11320608083918315C0F4018083918311C0F601AC
S1132070808391830DC0AA2797FDA095BA2FF501FF
S113208080839183A283B38303C0F301808391830C
S11320900F5F1F4FEF2809F0B8CF82E393E2289631
S11320A0CDBFDEBFDF91CF911F910F91FF90EF90D5
S11320B0DF90CF90BF90AF909F908F907F906F9064
S11320C05F904F903F902F9008950F931F93CF935D
S11320D0DF938B01681779074CF0EC016FEFCE01A9
S11320E00E947D0421960C171D07C4F7DF91CF9140
S11320F01F910F910895CF92DF92EF92FF920F9369
S11321001F93CF93DF93CDB7DEB72F97CDBFDEBF3D
S11321108C0161E370E2FC0185819681DCD5282F76
S1132120392F232B09F07FC066E370E2F801878121
S11321309085D1D5282F392F232BF9F46FE070E047
S113214080E090E0C2DFF80163857485CE010196DA
S1132150CBD56981662389F06E01F2E0CF0ED11CE4
S1132160E12CF12CC7010E947D048FEFE81AF80AD4
S1132170F60161916F016111F5CF6DE370E2F80131
S113218087819085A8D5282F392F232B09F56FE156
S113219070E080E190E099DFF80163857485CE01F9
S11321A00196A2D56981662399F06E01F2E0CF0E03
S11321B0D11C6894EE24E4F8F12CC7010E947D043C
S11321C08FEFE81AF80AF60161916F016111F5CFFA
S11321D064E470E2F801878190857DD5282F392F3A
S11321E0232B09F56FE270E080E290E06EDFF801E6
S11321F063857485CE01019677D56981662399F04C
S11322006E01F2E0CF0ED11C6894EE24E5F8F12CB7
S1132210C7010E947D048FEFE81AF80AF601619164
S11322206F016111F5CF6BE470E2F801858196814D
S113223052D5282F392F232B09F083C066E370E28F
S1132240F8018781908547D5282F392F232B11F545
S11322506FE370E080E390E038DFF8016385748514
S1132260CE01019641D569816623A1F06E01F2E0A9
S1132270CF0ED11C0F2EF0E3EF2EF12CF02DC70161
S11322800E947D048FEFE81AF80AF60161916F014C
S11322906111F5CF6DE370E2F801878190851BD55C
S11322A0282F392F232B09F56FE470E080E490E0A8
S11322B00CDFF80163857485CE01019615D569811B
S11322C0662399F06E01F2E0CF0ED11C6894EE24DF
S11322D0E6F8F12CC7010E947D048FEFE81AF80A92
S11322E0F60161916F016111F5CF64E470E2F801C8
S11322F087819085F0D4282F392F232B11F56FE592
S113230070E080E590E0E1DEF80163857485CE013C
S11323100196EAD469816623A1F06E01F2E0CF0E42
S1132320D11C0F2EF0E5EF2EF12CF02DC7010E94E9
S11323307D048FEFE81AF80AF60161916F016111CB
S1132340F5CF60E570E2F80185819681C4D4282F29
S1132350392F232B09F080C066E370E2F8018781EE
S11323609085B9D4282F392F232B11F56FE670E00F
S113237080E690E0AADEF80163857485CE010196BB
S1132380B3D469816623A1F06E01F2E0CF0ED11CB3
S11323900F2EF0E6EF2EF12CF02DC7010E947D04E4
S11323A08FEFE81AF80AF60161916F016111F5CF18
S11323B06DE370E2F801878190858DD4282F392F41
S11323C0232B11F56FE770E080E790E07EDEF801E3
S11323D063857485CE01019687D469816623A1F053
S11323E06E01F2E0CF0ED11C0F2EF0E7EF2EF12C90
S11323F0F02DC7010E947D048FEFE81AF80AF60158
S113240061916F016111F5CF64E470E2F801878195
S1132410908561D4282F392F232BF1F46FE870E0D5
S113242080E890E052DEF80163857485CE01019660
S11324305BD46981662381F07E01F2E0EF0EF11C2A
S113244000E810E0C8010E947D040F5F1F4FF701F0
S113245061917F016111F6CF2F96CDBFDEBFDF9171
S1132460CF911F910F91FF90EF90DF90CF9008953F
S1132470CF92DF92EF92FF92CF93DF936B017C01B7
S1132480EA0183E690E20E940603C701B6010E94B6
S11324901A038FE590E20E94060320E041E03AC06F
S11324A0FE01E20FF11D27FDFA95D701C6018170E7
S11324B09927AA27B078BB2354F40197A109B1093D
S11324C08E6F9F6FAF6FBF6F0196A11DB11D80838B
S11324D0322F3F5FD701C601FF201CF40196A11DD6
S11324E0B11D6C017D01F594E794D794C79481E004
S11324F0C816D104E104F10461F4FE01E30FF11DF7
S113250037FDFA954083322F3E5FC12CD12C7601E2
S1132510C394232F82E0C816D104E104F10408F027
S1132520BFCFDF91CF91FF90EF90DF90CF900895D0
S11325306F927F928F929F92AF92BF92CF92DF92CF
S1132540EF92FF920F931F93CF93DF93CDB7DEB734
S1132550A097CDBFDEBF3C016A01DE01119680E287
S1132560FD0111928A95E9F7E62FFF27E7FDF09523
S113257031970AF4B5C0E60DF71D730181E0E81A3E
S1132580F10810E0812C912C54018FEF681609F4A6
S1132590A1C0A081BB27A7FDB095D0979D0144277A
S11325A037FD4095542F153009F458C07CF412308F
S11325B0E9F134F41123E1F0113009F08AC01DC0AF
S11325C01330E1F1143009F084C040C0183009F42C
S11325D063C03CF4163009F44BC0173009F079C0DD
S11325E051C0193009F462C01A3009F072C068C0D1
S11325F0820E931EA41EB51E6CC0BA01A901440F1D
S1132600551F661F771FDB01CA01880F991FAA1F78
S1132610BB1F880F991FAA1FBB1F840F951FA61FDE
S1132620B71F880E991EAA1EBB1E53C0A4E6B0E0B5
S113263034D3860E971EA81EB91E4BC0A8EEB3E075
S11326402CD3860E971EA81EB91E43C0A0E1B7E284
S113265024D3860E971EA81EB91E3BC060EA76E8F6
S113266081E090E0DDD2860E971EA81EB91E31C00F
S113267060E472E48FE090E0D3D2860E971EA81E29
S1132680B91E27C060E876E988E990E0C9D2860ED1
S1132690971EA81EB91E1DC060E071EE85EF95E07F
S11326A0BFD2860E971EA81EB91E13C060E07AEC36
S11326B08AE99BE3B5D2860E971EA81EB91E09C0EF
S11326C020E034EE4BE054E5F2D2860E971EA81EAD
S11326D0B91E1F5F3197EE15FF0509F056CF03C0F1
S11326E0812C912C540188E690E20E940603C501D6
S11326F0B4010E941A038FE590E20E940603AE0122
S11327004F5F5F4FC501B401B3DEC6010E940603EB
S11327108FE590E20E94060385E790E20E9406039B
S11327208E010F5F1F4F6E01E1E2CE0ED11C7801C6
S1132730F70161917F01772767FD7095872F972FA8
S11327400E941A03EC14FD0499F78FE590E20E94AD
S11327500603F80111928F01CE16DF06D1F78FE53B
S113276090E20E940603A096CDBFDEBFDF91CF9119
S11327701F910F91FF90EF90DF90CF90BF90AF909B
S11327809F908F907F906F900895AF92BF92CF9259
S1132790DF92EF92FF920F931F93CF93DF930E94E8
S11327A03205C0E0D0E0A12C0F2EF3E5EF2EF3E2CA
S11327B0FF2EF02DBB24BA94C031D10514F5CE01FF
S11327C00E9449048F3F41F0EA2DFF27E7FDF09571
S11327D0ED5BFC4D8083A394CF30D10591F446E8A2
S11327E050E26A2D83E493E2A3DEE3E4F3E2B192E0
S11327F0EE15FF05E1F70F2EFFE0CF2ED12CF02DC3
S11328001EC16E01CE0140974097E8F4CE010E94AC
S113281049048F3F41F0EA2DFF27E7FDF095ED5B7A
S1132820FC4D8083A394CF31D10569F44FE850E285
S11328306A2D83E493E27CDEE3E4F3E2B192EE15E5
S1132840FF05E1F7FCC08E01CE0180974097F0F4BC
S1132850C6010E9449048F3F41F0EA2DFF27E7FD9E
S1132860F095ED5BFC4D8083A394CF32D10571F4D8
S113287048E950E26A2D83E493E25ADEE3E4F3E2AA
S1132880B192EE15FF05E1F7A12C22C0C801C09753
S11328904097F0F4C6010E9449048F3F41F0EA2DAD
S11328A0FF27E7FDF095ED5BFC4D8083A394CF33C8
S11328B0D10571F441EA50E26A2D83E493E238DEF3
S11328C0E3E4F3E2B192EE15FF05E1F7A12C23C096
S11328D0C801805491094097F0F4C6010E9449044C
S11328E08F3F41F0EA2DFF27E7FDF095ED5BFC4DAE
S11328F08083A394CF34D10571F44AEA50E26A2D5F
S113290083E493E215DEE3E4F3E2B192EE15FF050E
S1132910E1F7A12C23C0C801805591094097F0F438
S1132920C6010E9449048F3F41F0EA2DFF27E7FDCD
S1132930F095ED5BFC4D8083A394CF35D10571F404
S113294043EB50E26A2D83E493E2F2DDE3E4F3E245
S1132950B192EE15FF05E1F7A12C23C0C801805602
S113296091094097F0F4C6010E9449048F3F41F059
S1132970EA2DFF27E7FDF095ED5BFC4D8083A394E2
S1132980CF36D10571F44CEB50E26A2D83E493E227
S1132990CFDDE3E4F3E2B192EE15FF05E1F7A12CFC
S11329A023C0C801805791094097F0F4C6010E94E2
S11329B049048F3F41F0EA2DFF27E7FDF095ED5BD9
S11329C0FC4D8083A394CF37D10571F445EC50E2DC
S11329D06A2D83E493E2ACDDE3E4F3E2B192EE1515
S11329E0FF05E1F7A12C25C000581109003111059C
S11329F000F5C6010E9449048F3F41F0EA2DFF27EC
S1132A00E7FDF095ED5BFC4D8083A394CF38D105B1
S1132A1081F44EEC50E26A2D83E493E289DDE3E431
S1132A20F3E283E593E22FEF2193E817F907E1F747
S1132A3009C02196C039D10509F0BECE03C08E016C
S1132A40A12C24CFDF91CF911F910F91FF90EF9094
S1132A50DF90CF90BF90AF900895CF93DF93CDB721
S1132A60DEB7EC97CDBFDEBFE0EAF0E087E082831B
S1132A7082830E94BE0371D80E945803109253238C
S1132A8010925423109255231092562310925723D8
S1132A9081E0809358230E947A05789488E0E0E2EC
S1132AA0F6E086830E94A80181E090E00E949F01E5
S1132AB00E947D0281E090E00E94740287ED90E222
S1132AC00E944A038DE00E9443038AE00E9443036C
S1132AD080E092E1AAE7B0E00197A109B109E1F72A
S1132AE083EE90E20E944A038DE00E9443038AE051
S1132AF00E94430380E092E1AAE7B0E00197A109B4
S1132B00B109E1F78FEE90E20E944A038DE00E9442
S1132B1043038AE00E94430380E092E1AAE7B0E025
S1132B200197A109B109E1F70E9432052B013C018B
S1132B300E9432054B015C010E943205DC01CB018D
S1132B4084199509A609B7090497A105B105B0F040
S1132B5087EF90E20E944A038AE00E9443038DE0DB
S1132B600E94430380E092E1AAE7B0E00197A10943
S1132B70B109E1F70E9432052B013C010E94C60213
S1132B808823F9F0BE016F5F7F4F8CE390E0F4D8A7
S1132B9089818A3081F08B3271F4CE0101960E94D2
S1132BA006038AE00E94D9018DE00E94D901CE017A
S1132BB0019643D9A0DABE016F5F7F4F82E090E0B7
S1132BC006D90E943205DC01CB0188199909AA09AA
S1132BD0BB090A97A105B10580F081E191E20E9449
S1132BE006030E9432050E941A038FE590E20E94B8
S1132BF006030E9432054B015C010E943205DC0190
S1132C00CB018C199D09AE09BF094497A105B105F3
S1132C1008F492CFBADD0E9432056B017C018CCF9F
S1132C20DB018F939F9339D0BF91AF91A29F800D09
S1132C30911DA39F900DB29F900D11240895A1E2C0
S1132C401A2EAA1BBB1BFD010DC0AA1FBB1FEE1F22
S1132C50FF1FA217B307E407F50720F0A21BB30B6D
S1132C60E40BF50B661F771F881F991F1A9469F7E9
S1132C7060957095809590959B01AC01BD01CF0145
S1132C800895A29FB001B39FC001A39F01D0B29F3A
S1132C90700D811D1124911D0895F3DFA59F900DE2
S1132CA0B49F900DA49F800D911D11240895B7FF2A
S1132CB0F4CFF3DF821B930B089546E351E235C052
S1132CC0FB01DC010D900020E9F7119701900D92B2
S1132CD00020E1F70895FB01DC018D91019080193A
S1132CE00110D9F3990B0895FB01DC0101900D92B9
S1132CF00020E1F70895FB0151915523A9F0BF018C
S1132D00DC014D9145174111E1F759F4CD010190D2
S1132D10002049F04D9140154111C9F3FB014111C7
S1132D20EFCF81E090E001970895FA01A191B0817D
S1132D30009719F41097E1F0CD01DC01CD010D905D
S1132D40002011F4C00113C0FB012191222319F0CA
S1132D502015D9F7F3CFFB012191201519F41E9208
S1132D60119606C02223C1F70D900020A1F7D001CF
S10F2D70FA01A193B0830895F894FFCFFA
S1132D7C00C20100030000000000C20100030000B7
S1132D8C00000D0A0061742B61777464613D612C41
S1132D9C2249434131222C003A202C002B5254431B
S1132DAC00494341310054565F7473300054565FEC
S1132DBC7473310054565F747332004943413200CA
S1132DCC4943413300656570726F6D203A20000AE7
S1132DDC200D006B203A20006A6F625F76616C757F
S1132DEC65203A2000616674657220696E743262E3
S1132DFC696E203A2000494341315F7473300049B5
S1132E0C4341315F74733100494341315F74733210
S1132E1C00494341325F74733000494341325F745B
S1132E2C733100494341325F747332004943413377
S1132E3C5F74733000494341335F74733100494309
S1132E4C41335F7473320061742B61777464613D38
S1132E5C632A0061742B61777464613D642A006198
S1132E6C742B7274633F0061742B61777464613DDD
S1132E7C612C2249434131222C31303231303939E1
S1132E8C0054696D65203A2000656570726F6D5F42
S1132E9C77726974655F70756C73655F636F756E5B
S1092EAC7465727300005E
S9030000FC
