S02B00004945534D2D584D45474133324134552D2D49727269676174696F6E436F6E74726F6C6C65722E73722F
S1130000FDC0000018C100000C94440E14C100008F
S113001012C1000010C100000EC100000CC100009C
S11300200AC1000008C1000046C500005DC500000B
S113003002C100000C94BA0ACEC50000F5C5000048
S11300401CC6000043C600006AC6000091C600003A
S1130050B8C60000DFC6000006C700002DC70000B8
S1130060EAC00000E8C00000E6C00000E4C00000F0
S113007002C1000034C1000028C10000DCC000003F
S1130080DAC00000D8C000000C94580ED4C00000A0
S1130090D2C00000D0C00000CEC00000CCC0000020
S11300A0CAC00000C8C00000C6C00000C4C0000030
S11300B0C2C00000C0C000000C94DD0A0C941F09EB
S11300C00C9448090C9471090C949A090C94C30972
S11300D00C94EC09B0C00000AEC00000ACC000003D
S11300E0AAC00000A8C000009CC10000CEC100004E
S11300F0C2C10000A0C000009EC000009CC000005F
S11301000C94300E98C000000C946C0E94C0000047
S113011092C0000090C000008EC000008CC000009F
S11301208AC0000088C0000086C0000084C00000AF
S113013082C00000EAC6000011C7000038C70000F2
S11301405FC7000086C70000ADC70000D4C7000029
S1130150FBC700000C94CD080C94F6086CC000009A
S11301606AC0000068C0000066C0000064C00000EF
S113017062C0000060C000005EC000005CC00000FF
S11301805AC0000058C0000056C0000054C000000F
S113019052C0000050C000004EC000004CC000001F
S11301A04AC0000048C0000046C0000044C000002F
S11301B042C0000040C000003EC000003CC000003F
S11301C03AC0000038C0000036C0000034C000004F
S11301D032C0000030C000002EC000002CC000005F
S11301E02AC0000028C0000026C0000024C000006F
S11301F022C0000020C000001EC0000011241FBE49
S1130200CFEFDFE2DEBFCDBF10E2A0E0B0E2E4E07A
S1130210F0E202C005900D92AC37B107D9F722E2A3
S1130220ACE7B0E201C01D92A638B207E1F70E9424
S1130230FF0E0C940010E4CE862798E02CE880FF93
S113024003C08695822701C086959150C1F7089511
S11302501F93CF93DF93EC01162F1150662331F0D7
S113026080E06991E9DF1150E0F701C080E0DF919F
S1130270CF911F9108951F920F920FB60F921124E0
S11302802F938F939F93AF93BF93EF93FF932091FB
S1130290B00880910E218F5F8F7090910F21981775
S11302A041F0EEE0F1E2A081B0E0A258BF4D2C9302
S11302B08083FF91EF91BF91AF919F918F912F9187
S11302C00F900FBE0F901F9018951F920F920FB6AC
S11302D00F9211240F900FBE0F901F9018951F922C
S11302E00F920FB60F9211248F939F93AF93BF93E6
S11302F0EF93FF939091102180911121981306C0E0
S1130300E0EBF8E083818C7F83830EC0E1E1F1E2CE
S1130310A081B0E0A258BF4D50968C918093B00854
S113032080818F5F8F778083FF91EF91BF91AF9131
S11303309F918F910F900FBE0F901F901895E0EB37
S1130340F8E093818295807F9F7C982B9383089516
S1130350CF93DF93CDB7DEB72997CDBFDEBF89E05A
S1130360E0E0F0E2DE01119601900D928A95E1F74A
S113037010920F2110920E2110921121109210212F
S1130380BE016F5F7F4F80EB98E00E940E0CE0EBA4
S1130390F8E083818F7C83838381837F838383815C
S11303A08C7F816083832996CDBFDEBFDF91CF919F
S11303B00895FF920F931F93CF93DF93F82E68E075
S11303C070E081E00E94A80D00E111E2C1E1D1E2F8
S11303D002C00E94F20DF80190819F5F9F772881EF
S11303E0921799F0E0E1F1E2A081B0E0A258BF4D8C
S11303F05096FC929083E0EBF8E083818C7F8160DF
S1130400838381E00E94D10D06C081E00E94AC0D7F
S1130410882309F3DECFDF91CF911F910F91FF90D5
S113042008951F920F920FB60F9211242F938F935A
S11304309F93AF93BF93EF93FF932091A00A809172
S113044012228F5F8F7790911322981741F0E2E187
S1130450F2E2A081B0E0AE5EBE4D2C938083FF91AA
S1130460EF91BF91AF919F918F912F910F900FBEFC
S11304700F901F9018951F920F920FB60F92112490
S11304800F900FBE0F901F9018951F920F920FB6EA
S11304900F9211248F939F93AF93BF93EF93FF9386
S11304A09091142280911522981306C0E0EAFAE094
S11304B083818C7F83830DC0E5E1F2E2A081B0E00B
S11304C0AE56BE4D8C918093A00A80818F5F8F774A
S11304D08083FF91EF91BF91AF919F918F910F9086
S11304E00FBE0F901F901895E0EAFAE09381829571
S11304F0807F9F7C982B93830895CF93DF93CDB710
S1130500DEB72997CDBFDEBF89E0E9E0F0E2DE0186
S1130510119601900D928A95E1F710921322109290
S113052012221092152210921422BE016F5F7F4F87
S113053080EA9AE00E940E0CE0EAFAE083818F7C64
S113054083838381837F838383818C7F816083839F
S11305502996CDBFDEBFDF91CF91089590911322EC
S113056080911222981769F0E3E1F2E2A081B0E0F1
S1130570AE5EBE4D2C9180818F5F8F77808330E09B
S113058002C02FEF3FEF822F932F08952091132263
S11305909091122281E0291301C080E00895FF9216
S11305A00F931F93CF93DF93F82E68E070E081E000
S11305B00E94A80D04E112E2C5E1D2E202C00E9449
S11305C0F20DF80190819F5F9F772881921791F037
S11305D0E4E1F2E2A081B0E0AE56BE4DFC9290831D
S11305E0E0EAFAE083818C7F8160838381E00E946A
S11305F0D10D06C081E00E94AC0D882311F3DFCF3A
S1130600DF91CF911F910F91FF900895CF93DF93C6
S1130610EC018881882329F02196CBDE8991811110
S1130620FCCFDF91CF910895009709F0EFDF82E1CD
S113063090E2ECCF93CF0895CF93C82FB0DF8C2FE7
S1130640B8DECF910895CF93DF93EC01888188239E
S113065029F02196F1DF89918111FCCFDF91CF91AF
S1130660089543E050E068E080E296E0BDD043E0C6
S113067050E060E280E096E0B7D043E050E068E00C
S113068080E896E0B1D040E050E064E080E896E095
S1130690ABD043E050E068E080E896E0A5D040E0CD
S11306A050E064E080E896E09FD043E050E060E8EA
S11306B080E496E099D040E050E060E480E496E085
S11306C093D043E050E062E080E296E08DD043E0D6
S11306D050E060E480E096E087D041E050E061E0E3
S11306E080E696E081D041E050E062E080E696E06A
S11306F07BD043E050E068E080E696E075D040E0CF
S113070050E064E080E496E06FD040E050E064E0C4
S113071080E696E069D040E050E064E080E296E054
S113072063D040E050E064E080E096E05DC0CF93A9
S1130730DF938FEF80937000809371008093720039
S11307408093730080937400809375008093760087
S11307508FB7F894E0E5F0E09081926090838FBFCA
S1130760818181FFFDCF8FB7F894E0E5F0E09081BF
S1130770946090838FBF818182FFFDCF8FB7F894FF
S1130780C0E5D0E09E81997F9E839E819E83E0E6B2
S1130790F0E09081916090838FBF61E080E490E00D
S11307A04BD08FB7F89498819E7F98838FBF8FB773
S11307B0F8949881946098838FBFE0E5F0E081819C
S11307C082FFFDCF85E0E0E4F0E08383DF91CF9109
S11307D008952FB7F894FC01E059FF4F609580818C
S11307E0682360832FBF0895CF93DF93FC01709635
S11307F020E030E0C62FD0E0DE01022E02C0B59525
S1130800A7950A94E2F7A0FD50832F5F3F4F3196DE
S11308102830310589F740FF0AC041FF03C0FC01BD
S1130820658302C0FC016683FC01618302C0FC0194
S11308306283DF91CF9108951BBEFC0128ED24BF94
S113084060830895E0ECF1E087858823ECF3E0EC25
S1130850F1E0878581FF06C086E3828761E08BEC47
S113086091E0EACF0895E0ECF1E097859923ECF369
S1130870ECECF1E0908198609083A82FB0E0B05F39
S11308806C938081877F80830895FF920F931F93D9
S1130890CF93DF93182FF92EC62FE0ECF1E00285F9
S11308A0D1DFE0ECF1E027852223ECF36C2F812FDC
S11308B0DADFC0ECD1E01A82F982188385E38A87F3
S11308C061E08BEC91E0B8DF0A87DF91CF911F9153
S11308D00F91FF900895EF92FF920F931F93CF9380
S11308E0DF938C01E0ECF1E087858823ECF3780159
S11308F080E2E80EF11CE8018C2F801B6991B3DFC4
S1130900CE15DF05C9F7DF91CF911F910F91FF90AD
S1130910EF9008951F93CF93DF93E0ECF1E0978578
S11309209923ECF320E2829FC0011124C0ECD1E0B2
S11309301A82998388831A8585E38A8761E08BEC20
S113094091E07ADF1A87DF91CF911F910895CF92BA
S1130950DF92EF92FF920F931F93CF93DF93EC01FB
S11309607B018A014115510551F1CE018F719927FF
S1130970892BB1F40032110598F0C701ACDFCE0128
S113098096958795929582958F7089279F70892770
S1130990C1DFA09680E2E80EF11C005211090CC0E0
S11309A06E01EFEFCE1ADE0AF70161917F01CE01ED
S11309B06CDF01501109E60101151105B1F6DF9153
S11309C0CF911F910F91FF90EF90DF90CF900895FA
S11309D010920004E0E0F4E0218120FDFDCFE0E08E
S11309E0F4E06087718780937E2290937F2287E072
S11309F0808308950F931F93E0E0F4E0818180FDEC
S1130A00FDCF2FB7F89400917E2210917F22E0E071
S1130A10F4E080859185009729F4338130FF02C08A
S1130A200F5F1F4F2FBF20E030E0980111270027F0
S1130A30A0E0B0E0082B192B2A2B3B2B602F712F41
S1130A40822F932F1F910F910895E0E0F4E021E0AD
S1130A5022836487758760938222709383228093B4
S1130A60802290938122818180FDFDCFE0E0F4E03B
S1130A7082E0838385E08283089580938422909327
S1130A808522089564E080E090E0A3DEE0E0F4E0F5
S1130A908FEF9FEF82879387108611868FB7F89424
S1130AA0ABE7B2E29C919F5F9C938FBF81E082830E
S1130AB087E0808308951F920F920FB60F9211243E
S1130AC08F939F93EF93FF93EEE7F2E280819181FE
S1130AD0019680839183FF91EF919F918F910F9065
S1130AE00FBE0F901F9018951F920F920FB60F9282
S1130AF01124CF92DF92EF92FF920F931F932F93C3
S1130B003F934F935F936F937F938F939F93AF9391
S1130B10BF93EF93FF9340917E2250917F22809167
S1130B2080229091812248175907F0F181E0E0E09A
S1130B30F4E08283E0918422F09185223097A1F140
S1130B40A0E0B4E018968D919C91199760E070E054
S1130B50BA0155274427A0E0B0E08A019B01082B85
S1130B60192B2A2B3B2BC901B8010091802210912B
S1130B70812220E030E0980111270027C0908222D2
S1130B80D0908322E12CF12C0C291D292E293F29F8
S1130B90061717072807390730F0C901B8016F5F36
S1130BA07F4F8F4F9F4F0995FF91EF91BF91AF9169
S1130BB09F918F917F916F915F914F913F912F9171
S1130BC01F910F91FF90EF90DF90CF900F900FBE89
S1130BD00F901F9018951F920F920FB60F92112429
S1130BE02F933F934F935F936F937F938F939F9331
S1130BF0AF93BF93EF93FF93E0911622F0911722E6
S1130C00309709F00995FF91EF91BF91AF919F91B2
S1130C108F917F916F915F914F913F912F910F90A1
S1130C200FBE0F901F9018951F920F920FB60F9240
S1130C3011242F933F934F935F936F937F938F93DD
S1130C409F93AF93BF93EF93FF93E0911822F0919A
S1130C501922309709F00995FF91EF91BF91AF9157
S1130C609F918F917F916F915F914F913F912F91C0
S1130C700F900FBE0F901F9018951F920F920FB6F2
S1130C800F9211242F933F934F935F936F937F930E
S1130C908F939F93AF93BF93EF93FF93E0911A22A7
S1130CA0F0911B22309709F00995FF91EF91BF91C4
S1130CB0AF919F918F917F916F915F914F913F91F0
S1130CC02F910F900FBE0F901F9018951F920F92A7
S1130CD00FB60F9211242F933F934F935F936F930B
S1130CE07F938F939F93AF93BF93EF93FF93E09181
S1130CF01C22F0911D22309709F00995FF91EF9184
S1130D00BF91AF919F918F917F916F915F914F911F
S1130D103F912F910F900FBE0F901F9018951F9227
S1130D200F920FB60F9211242F933F934F935F931B
S1130D306F937F938F939F93AF93BF93EF93FF939F
S1130D40E0911E22F0911F22309709F00995FF913E
S1130D50EF91BF91AF919F918F917F916F915F912F
S1130D604F913F912F910F900FBE0F901F901895A8
S1130D701F920F920FB60F9211242F933F934F930C
S1130D805F936F937F938F939F93AF93BF93EF93EF
S1130D90FF93E0912022F0912122309709F00995E8
S1130DA0FF91EF91BF91AF919F918F917F916F913F
S1130DB05F914F913F912F910F900FBE0F901F9015
S1130DC018951F920F920FB60F9211242F933F93F1
S1130DD04F935F936F937F938F939F93AF93BF933F
S1130DE0EF93FF93E0912222F0912322309709F0B0
S1130DF00995FF91EF91BF91AF919F918F917F9151
S1130E006F915F914F913F912F910F900FBE0F9073
S1130E101F9018951F920F920FB60F9211242F93C3
S1130E203F934F935F936F937F938F939F93AF936E
S1130E30BF93EF93FF93E0912422F0912522309702
S1130E4009F00995FF91EF91BF91AF919F918F9117
S1130E507F916F915F914F913F912F910F900FBEB2
S1130E600F901F9018951F920F920FB60F92112496
S1130E702F933F934F935F936F937F938F939F939E
S1130E80AF93BF93EF93FF93E0912622F091272233
S1130E90309709F00995FF91EF91BF91AF919F9120
S1130EA08F917F916F915F914F913F912F910F900F
S1130EB00FBE0F901F9018951F920F920FB60F92AE
S1130EC011242F933F934F935F936F937F938F934B
S1130ED09F93AF93BF93EF93FF93E0912822F091F8
S1130EE02922309709F00995FF91EF91BF91AF91B5
S1130EF09F918F917F916F915F914F913F912F912E
S1130F000F900FBE0F901F9018951F920F920FB65F
S1130F100F9211242F933F934F935F936F937F937B
S1130F208F939F93AF93BF93EF93FF93E0912A2204
S1130F30F0912B22309709F00995FF91EF91BF9121
S1130F40AF919F918F917F916F915F914F913F915D
S1130F502F910F900FBE0F901F9018951F920F9214
S1130F600FB60F9211242F933F934F935F936F9378
S1130F707F938F939F93AF93BF93EF93FF93E091EE
S1130F802C22F0912D22309709F00995FF91EF91D1
S1130F90BF91AF919F918F917F916F915F914F918D
S1130FA03F912F910F900FBE0F901F9018951F9295
S1130FB00F920FB60F9211242F933F934F935F9389
S1130FC06F937F938F939F93AF93BF93EF93FF930D
S1130FD0E0912E22F0912F22309709F00995FF918C
S1130FE0EF91BF91AF919F918F917F916F915F919D
S1130FF04F913F912F910F900FBE0F901F90189516
S11310001F920F920FB60F9211242F933F934F9379
S11310105F936F937F938F939F93AF93BF93EF935C
S1131020FF93E0913022F0913122309709F0099535
S1131030FF91EF91BF91AF919F918F917F916F91AC
S11310405F914F913F912F910F900FBE0F901F9082
S113105018951F920F920FB60F9211242F933F935E
S11310604F935F936F937F938F939F93AF93BF93AC
S1131070EF93FF93E0913222F0913322309709F0FD
S11310800995FF91EF91BF91AF919F918F917F91BE
S11310906F915F914F913F912F910F900FBE0F90E1
S11310A01F9018951F920F920FB60F9211242F9331
S11310B03F934F935F936F937F938F939F93AF93DC
S11310C0BF93EF93FF93E0913422F0913522309750
S11310D009F00995FF91EF91BF91AF919F918F9185
S11310E07F916F915F914F913F912F910F900FBE20
S11310F00F901F9018951F920F920FB60F92112404
S11311002F933F934F935F936F937F938F939F930B
S1131110AF93BF93EF93FF93E0913622F091372280
S1131120309709F00995FF91EF91BF91AF919F918D
S11311308F917F916F915F914F913F912F910F907C
S11311400FBE0F901F9018951F920F920FB60F921B
S113115011242F933F934F935F936F937F938F93B8
S11311609F93AF93BF93EF93FF93E0913822F09155
S11311703922309709F00995FF91EF91BF91AF9112
S11311809F918F917F916F915F914F913F912F919B
S11311900F900FBE0F901F9018951F920F920FB6CD
S11311A00F9211242F933F934F935F936F937F93E9
S11311B08F939F93AF93BF93EF93FF93E0913A2262
S11311C0F0913B22309709F00995FF91EF91BF917F
S11311D0AF919F918F917F916F915F914F913F91CB
S11311E02F910F900FBE0F901F9018951F920F9282
S11311F00FB60F9211242F933F934F935F936F93E6
S11312007F938F939F93AF93BF93EF93FF93E0915B
S11312103C22F0913D22309709F00995FF91EF911E
S1131220BF91AF919F918F917F916F915F914F91FA
S11312303F912F910F900FBE0F901F9018951F9202
S11312400F920FB60F9211242F933F934F935F93F6
S11312506F937F938F939F93AF93BF93EF93FF937A
S1131260E0913E22F0913F22309709F00995FF91D9
S1131270EF91BF91AF919F918F917F916F915F910A
S11312804F913F912F910F900FBE0F901F90189583
S11312901F920F920FB60F9211242F933F934F93E7
S11312A05F936F937F938F939F93AF93BF93EF93CA
S11312B0FF93E0914022F0914122309709F0099583
S11312C0FF91EF91BF91AF919F918F917F916F911A
S11312D05F914F913F912F910F900FBE0F901F90F0
S11312E018951F920F920FB60F9211242F933F93CC
S11312F04F935F936F937F938F939F93AF93BF931A
S1131300EF93FF93E0914222F0914322309709F04A
S11313100995FF91EF91BF91AF919F918F917F912B
S11313206F915F914F913F912F910F900FBE0F904E
S11313301F9018951F920F920FB60F9211242F939E
S11313403F934F935F936F937F938F939F93AF9349
S1131350BF93EF93FF93E0914422F091452230979D
S113136009F00995FF91EF91BF91AF919F918F91F2
S11313707F916F915F914F913F912F910F900FBE8D
S11313800F901F9018951F920F920FB60F92112471
S11313902F933F934F935F936F937F938F939F9379
S11313A0AF93BF93EF93FF93E0914622F0914722CE
S11313B0309709F00995FF91EF91BF91AF919F91FB
S11313C08F917F916F915F914F913F912F910F90EA
S11313D00FBE0F901F9018951F920F920FB60F9289
S11313E011242F933F934F935F936F937F938F9326
S11313F09F93AF93BF93EF93FF93E0914822F091B3
S11314004922309709F00995FF91EF91BF91AF916F
S11314109F918F917F916F915F914F913F912F9108
S11314200F900FBE0F901F901895CF93DF93E0910C
S11314304A22F0914B22848183FF0BC0886084830D
S113144083E0838386EF9FEF809354229093552209
S11314508EC0982F947149F083E083838FEF9FEFC0
S1131460809354229093552282C086FF42C0A0915B
S11314704C22B0914D2280914E2290914F2214968D
S11314802D913C911597821793075CF4A80FB91F0F
S113149011962C912783019680934E2290934F228C
S11314A066C0809150229091512218962D913C91C2
S11314B0199782179307B0F420915222222321F026
S11314C086818160868353C016960D90BC91A02DB1
S11314D0A80FB91F2C9127830196809350229093D3
S11314E0512245C083E083831092542210925522E6
S11314F03EC08823B4F5A0914C22B0914D22809136
S113150050229091512218962D913C91199782174F
S11315109307F0F427811696CD91DC911797C80FA5
S1131520D91F2883019680935022909351221896B4
S11315302D913C9119978217930718F482E08383C5
S113154016C087E0838310925422109255220FC054
S113155083E0838389EF9FEF8093542290935522F5
S113156006C08BEF9FEF8093542290935522DF9116
S1131570CF9108951F920F920FB60F9211242F93BB
S11315803F934F935F936F937F938F939F93AF9307
S1131590BF93EF93FF9349DFFF91EF91BF91AF9119
S11315A09F918F917F916F915F914F913F912F9177
S11315B00F900FBE0F901F9018951F920F920FB6A9
S11315C00F9211242F933F934F935F936F937F93C5
S11315D08F939F93AF93BF93EF93FF9326DFFF9176
S11315E0EF91BF91AF919F918F917F916F915F9197
S11315F04F913F912F910F900FBE0F901F90189510
S11316004F925F926F927F928F929F92AF92BF920E
S1131610CF92DF92EF92FF920F931F93CF93DF93BA
S1131620EC014A015B0128013901D901C801689420
S113163012F8B695A795979587951694D1F7B901A1
S1131640A801032E36E176956795579547953A9507
S1131650D1F7302D2C8122FD08C0B695A79597951A
S11316608795769567955795479588159905AA05A1
S1131670BB0508F4AAC084169506A606B70608F4A6
S1131680A6C08C8182FD04C0880C991CAA1CBB1CBA
S1131690C301B201A50194015CD42F3F310541057A
S11316A0510508F496C0C12CD12C7601CA9419EFC7
S11316B005C02C153D054E055F0568F0CC0CDD1CFE
S11316C0EE1CFF1C1D3F14F46894C0F81F5F173014
S11316D081F7212F52C0212F11230CF04EC0D501C8
S11316E0C401880F991FAA1FBB1F880F991FAA1F27
S11316F0BB1F880F991FAA1FBB1F481A590A6A0AE1
S11317007B0A1E3FECF46DEF7FEF611B710917FD3F
S1131710739504C0440C551C661C771C6A95D2F75B
S1131720D501C401B695A79597958795BC01CD01C0
S1131730640D751D861D971DA50194010AD43CC036
S1131740212F332727FD30952D5F3F4FD501C4014D
S113175004C0880F991FAA1FBB1F2A95D2F79C01AA
S1131760AD01B695A79597958795BC01CD01640DFC
S1131770751D861D971DEDD31FC0332727FD30959A
S11317802D5F3F4FD501C40104C0880F991FAA1FC4
S1131790BB1F2A95D2F79C01AD01B695A7959795E5
S11317A08795BC01CD01640D751D861D971DD1D390
S11317B02150310941095109832F8F701295107FEF
S11317C0182B1F832E8381E018C080E016C080E0B0
S11317D014C0D501C401880F991FAA1FBB1F880F0D
S11317E0991FAA1FBB1F880F991FAA1FBB1F481A46
S11317F0590A6A0A7B0A19EF86CFDF91CF911F91AC
S11318000F91FF90EF90DF90CF90BF90AF909F909B
S11318108F907F906F905F904F9008950F931F93D8
S1131820CF93DF93EC018B01009709F4EEC0803C69
S1131830910531F460E180E090E00E94E903E5C0A5
S1131840C11584E0D80731F464E080E090E00E94A0
S1131850E903DBC0C038E1E0DE0731F462E080E098
S113186090E00E94E903D1C0C115F1E0DF0731F433
S113187061E080E090E00E94E903C7C0C03883E0E3
S1131880D80731F461E081E090E00E94E903BDC033
S1131890C115E2E0DE0731F462E081E090E00E94ED
S11318A0E903B3C0C032F3E0DF0731F464E082E05F
S11318B090E00E94E903A9C0C11588E0D80731F47B
S11318C061E083E090E00E94E9039FC0C115E9E074
S11318D0DE0731F461E084E090E00E94E90395C002
S11318E0C115FAE0DF0731F461E085E090E00E9481
S11318F0E9038BC0C03488E0D80731F462E083E0A8
S113190090E00E94E90381C0C034E9E0DE0731F4CD
S113191062E084E090E00E94E90377C0C039F8E017
S1131920DF0731F464E083E090E00E94E9036DC0D6
S1131930C03989E0D80731F464E084E090E00E9483
S1131940E90363C0C039EAE0DE0731F464E085E00E
S113195090E00E94E90359C0C03CF8E0DF0731F48D
S113196068E083E090E00E94E9034FC0C03C89E056
S1131970D80731F468E084E090E00E94E90345C0B0
S1131980C03AE8E0DE0731F460E183E090E00E94D1
S1131990E9033BC0C03AF9E0DF0731F460E184E0D9
S11319A090E00E94E90331C0C03A8AE0D80731F4DC
S11319B060E185E090E00E94E90327C0C03BE8E0D5
S11319C0DE0731F460E283E090E00E94E9031DC089
S11319D0C03BF9E0DF0731F460E284E090E00E946C
S11319E0E90313C0C03884E0D80731F460E483E02D
S11319F090E00E94E90309C0C03AE4E0DE0729F45C
S1131A0060E485E090E00E94E9038D818F738D830B
S1131A10F80196818481892B9085992311F098E0AF
S1131A2001C090E0892B8D83F8014081518162814E
S1131A30738100E018E428EE31E0CE01E1DD9C8101
S1131A4098609C839C8190619C83DF91CF911F91CE
S1131A500F910895CF93DF93C0915622D0917722AE
S1131A60E7E5F2E280E090E061E070E02C2F30E006
S1131A70082E02C0359527950A94E2F720FF1AC074
S1131A80208131812150310920833183232B91F42A
S1131A909B01082E02C0220F331F0A94E2F7D22BB7
S1131AA0428153814115510519F04083518302C08D
S1131AB02095C2230196349688309105B9F6C093D7
S1131AC05622D093772260E070E0CB010E94E804B4
S1131AD060E870E080E090E00E942505DF91CF91FE
S1131AE008950E9442058AE29DE00E943D0560E05F
S1131AF070E0CB010E94E80460E870E080E090E0D0
S1131B000C942505883018F5AFB7F894E82FF0E069
S1131B10EE0FFF1FEE0FFF1FE95AFD4D4083518367
S1131B206283738321E030E0A90102C0440F551F92
S1131B308A95E2F7CA0190915622982B90935622E7
S1131B40809590917722892380937722AFBF08955F
S1131B50AB0160E070E0D6CF8830F8F420917722B2
S1131B6030E0082E02C0359527950A94E2F720FF4D
S1131B7016C04FB7F89421E030E0B90102C0660FF7
S1131B80771F8A95E2F7CB0180959091772289237C
S1131B90809377224FBF81E0089580E0089580E02C
S1131BA008954FB7F89421E030E0B90102C0660F00
S1131BB0771F8A95E2F7CB0180959091562289236D
S1131BC0809356224FBF08958FB7F8948FBF60E07B
S1131BD070E0CB0108958FB7F8948FBF60E070E098
S1131BE0CB010895CF93DF93CDB7DEB76197CDBF17
S1131BF0DEBF80E0E9DF69837A838B839C8381E0A5
S1131C00E3DF6D837E838F83988780E0E4DF6987D9
S1131C107A878B879C8781E0DEDF6D877E878F875D
S1131C20988B60E1CE0101960E942801898B41E1E5
S1131C3050E0BE016F5F7F4F83EC90E00E94A704E9
S1131C40E0ECF1E087858823ECF380E690E20E94E3
S1131C501403F89461E089E790E00E941C04FFCF2C
S1131C601F920F920FB60F9211248F93EF93FF934D
S1131C7081E0E0E6F6E08487FF91EF918F910F9089
S1131C800FBE0F901F9018951F920F920FB60F92D0
S1131C9011248F93EF93FF9381E0E0E4F6E08487CF
S1131CA0FF91EF918F910F900FBE0F901F90189599
S1131CB01F920F920FB60F9211248F93EF93FF93FD
S1131CC081E0E0E2F6E08487FF91EF918F910F903D
S1131CD00FBE0F901F9018951F920F920FB60F9280
S1131CE011248F93EF93FF9381E0E0E0F6E0848783
S1131CF0FF91EF918F910F900FBE0F901F90189549
S1131D00CF92DF92EF92FF920F931F93CF93DF93C3
S1131D106C017B01C0E0D0E08C01015011090E94EC
S1131D201A03C017D10724F4F701EC0FFD1F8083B9
S1131D3021968D3011F08A3091F7EC0CFD1CF701DF
S1131D4031971082DF91CF911F910F91FF90EF9007
S1131D50DF90CF900895E62FF72F80E090E0119266
S1131D6001968C339105D9F70895CF93DF93CDB7BE
S1131D70DEB7EC97CDBFDEBF24E1E5E1F0E2DE01A2
S1131D80119601900D922A95E1F7BC01CE010196BE
S1131D9005D1CE0101960E9423038AE00E941C0310
S1131DA08DE00E941C03EC96CDBFDEBFDF91CF9186
S1131DB008950F931F93CF93DF9369E270E2EBD002
S1131DC0892B79F417C06BE270E280E090E0E3D0F5
S1131DD08C01C130D10509F4C8DF2196012B99F794
S1131DE009C06BE270E280E090E0D5D08C01C0E0E5
S1131DF0D0E0F3CFDF91CF911F910F910895CF934E
S1131E00DF93CDB7DEB7EC97CDBFDEBFE0EAF0E0FD
S1131E1087E0828382830E94970363DE0E943103FA
S1131E20109278221092792210927A2210927B22B8
S1131E3010927C2281E080937D220E944205789456
S1131E4088E0E0E2F6E086830E94A80181E090E069
S1131E500E949F010E947D0281E090E00E94740232
S1131E608DE290E20E9423038DE00E941C038AE02D
S1131E700E941C0380E092E1AAE7B0E00197A10967
S1131E80B109E1F789E390E20E9423038DE00E9407
S1131E901C038AE00E941C0380E092E1AAE7B0E000
S1131EA00197A109B109E1F70E94FA044B015C0111
S1131EB00F2EC12CF2E1DF2EFAE7EF2EF12CF02DDC
S1131EC00E94FA04DC01CB0188199909AA09BB090B
S1131ED00497A105B105A0F085E490E20E942303D4
S1131EE08AE00E941C038DE00E941C03D701C601F6
S1131EF00197A109B109E1F70E94FA044B015C01C1
S1131F000E94C6028823E1F2BE016F5F7F4F8CE31B
S1131F1090E0F6DE89818A30A9F08B3299F4CE0103
S1131F2001960E9406038AE00E94D9018DE00E9476
S1131F30D901D701C6010197A109B109E1F7CE0181
S1131F40019637DFBE016F5F7F4F82E090E003DFD1
S1131F50B7CFA1E21A2EAA1BBB1BFD010DC0AA1FFD
S1131F60BB1FEE1FFF1FA217B307E407F50720F0FE
S1131F70A21BB30BE40BF50B661F771F881F991F79
S1131F801A9469F760957095809590959B01AC01C2
S1131F90BD01CF0108954CE750E20BC0FB01DC0109
S1131FA00D900020E9F7119701900D920020E1F7C0
S1131FB00895FA01A191B081009719F41097E1F006
S1131FC0CD01DC01CD010D90002011F4C00113C03E
S1131FD0FB012191222319F02015D9F7F3CFFB013E
S1131FE02191201519F41E92119606C02223C1F7DF
S1131FF00D900020A1F7D001FA01A193B0830895B8
S1072000F894FFCF7E
S113200400C20100030000000000C201000300003C
S113201400000D0A0061742B61777464613D612CC6
S1132024224943415F31222C003A202C0061742B55
S113203461777464613D632A0061742B617774640D
S1132044613D642A0061742B61777464613D612C81
S1132054224943415F31222C313032313039390045
S1132064656570726F6D5F77726974655F70756CA6
S10F207473655F636F756E7465727300B2
S9030000FC
