S02A00004945534D2D584D45474133324134552D2D4765797365724D6F6E69746F724C6974652E73726563BF
S1130000FDC0000018C100000C94742C14C1000041
S113001012C1000010C100000EC100000CC100009C
S11300200AC1000008C100000C94FD150C941616BA
S113003002C100000C94D81B0C948D160C94B616B7
S11300400C94DF160C9408170C9431170C945A175F
S11300500C9483170C94AC170C94D5170C94FE17BE
S1130060EAC00000E8C00000E6C00000E4C00000F0
S11300700C9482110C94B6110C94AC11DCC00000E9
S1130080DAC00000D8C000000C94882CD4C0000052
S1130090D2C00000D0C00000CEC00000CCC0000020
S11300A0CAC00000C8C00000C6C00000C4C0000030
S11300B0C2C00000C0C000000C94FB1B0C94C1190A
S11300C00C94EA190C94131A0C943C1A0C94651AA7
S11300D00C948E1AB0C00000AEC00000ACC000008A
S11300E0AAC00000A8C000000C9458120C948C12F2
S11300F00C948212A0C000009EC000009CC00000AE
S11301000C94602C98C000000C949C2C94C00000AB
S113011092C0000090C000008EC000008CC000009F
S11301208AC0000088C0000086C0000084C00000AF
S113013082C000000C9427180C9450180C94791861
S11301400C94A2180C94CB180C94F4180C941D194C
S11301500C9446190C946F190C9498196CC00000F7
S11301606AC0000068C0000066C0000064C00000EF
S113017062C0000060C000005EC000005CC00000FF
S11301805AC0000058C0000056C0000054C000000F
S113019052C0000050C000004EC000004CC000001F
S11301A04AC0000048C0000046C0000044C000002F
S11301B042C0000040C000003EC000003CC000003F
S11301C03AC0000038C0000036C0000034C000004F
S11301D032C0000030C000002EC000002CC000005F
S11301E02AC0000028C0000026C0000024C000006F
S11301F022C0000020C000001EC0000011241FBE49
S1130200CFEFDFE2DEBFCDBF13E2A0E0B0E2E0ED6E
S1130210FFE602C005900D92A43AB107D9F72DE28A
S1130220A4EAB3E201C01D92A539B207E1F70E9426
S1130230B02C0C94E637E4CECF93DF93EC01E0913D
S1130240BD24F091BE24309711F080E0099581E03F
S11302508093C5248093C6248093B8241092B1243B
S11302601092B4241092B5244FEF5FEF6FEF7FE745
S11302704093AD245093AE246093AF247093B02484
S11302801092A7241092A824C093A524D093A62446
S11302901092A4248093A4231092AA241092AB2435
S11302A01092AC241092B2241092B3241092B7246A
S11302B082E00E949D1F68E070E082E00E94761F49
S11302C0DF91CF9108952F923F924F925F926F9258
S11302D07F928F929F92AF92BF92CF92DF92EF92D2
S11302E0FF920F931F93CF93DF93CDB7DEB7E797BA
S11302F0CDBFDEBF0F2EF4EAAF2EF3E2BF2EF02DFA
S11303000F2EF4EACF2EF4E2DF2EF02D882483940E
S1130310912C8C0E9D1E392C89A69AA6982C732C90
S113032073C48A309105F9F08D309105E1F0D5015F
S11303302C91211169C4F6019081E92FF0E0EC556C
S1130340FC4D8183892F8F5FD6018C93E82FF0E0D9
S1130350EC55FC4D11828E3F09F056C41C9281E08D
S1130360F501808351C4D5011C92F6018081882354
S113037009F44AC4108262E170E285EA93E20E94C1
S1130380C636282F392F232B71F48091A524909100
S1130390A624019709F038C483E090E08093A52453
S11303A09093A62466C465E170E285EA93E20E9414
S11303B0C636282F392F232B71F48091A5249091D0
S11303C0A624019709F020C482E090E08093A5243C
S11303D09093A6244EC46AE170E285EA93E20E94F7
S11303E0C636282F392F232B71F48091A5249091A0
S11303F0A624019709F008C485E090E08093A52421
S11304009093A62436C468E270E285EA93E20E94DF
S1130410C636282F392F232B71F48091A52490916F
S1130420A624019709F0F0C384E090E08093A5240A
S11304309093A6241EC468E370E285EA93E20E94C6
S1130440C636282F392F232B71F48091A52490913F
S1130450A624019709F0D8C384E090E08093A524F2
S11304609093A62406C469E470E285EA93E20E94AC
S1130470C636282F392F232B71F48091A52490910F
S1130480A624019709F0C0C384E090E08093A524DA
S11304909093A624EEC366E570E285EA93E20E9497
S11304A0C636282F392F232B71F48091A5249091DF
S11304B0A624019709F0A8C384E090E08093A524C2
S11304C09093A624D6C365E670E285EA93E20E947F
S11304D0C636282F392F232B71F48091A5249091AF
S11304E0A624019709F090C384E090E08093A524AA
S11304F09093A624BEC36FE670E285EA93E20E945D
S1130500C636282F392F232B71F48091A52490917E
S1130510A624019709F078C384E090E08093A52491
S11305209093A624A6C365E770E285EA93E20E944D
S1130530C636282F392F232B39F481E090E080939D
S1130540B4249093B52460C36FE770E285EA93E224
S11305500E94C636282F392F232B39F4A2E0B0E0AD
S1130560A093B424B093B5244FC369E870E285EA3C
S113057093E20E94C636282F392F232B21F481E0E1
S11305808093B62441C348E050E067EA70E285EA0C
S113059093E20E94CF36282F392F232BC1F54AE04E
S11305A050E060E070E08DEA93E20E948C356B01CC
S11305B07C0183E090E08093A5249093A624C11449
S11305C0D104E104F10409F454C30E940F0E97010D
S11305D086010B5F1F4F2F4F3F4F06171707280742
S11305E0390760F097018601055011092109310985
S11305F0601771078207930708F03BC3C701B60170
S11306000E949A0D80EB90E20E94441332C347E0AB
S113061050E061EC70E285EA93E20E94CF36282F25
S1130620392F232B59F58CEA93E20E947B366B0118
S11306307C0183E090E08093A5249093A62480918C
S1130640AD249091AE24A091AF24B091B0248C1528
S11306509D05AE05BF054CF083E090E0EDDDE09133
S1130660BD24F091BE2480E00995C092AD24D092BF
S1130670AE24E092AF24F092B024FBC24CE050E0F0
S113068069EC70E285EA93E20E94CF36282F392F75
S1130690232BF1F48091A5249091A624019719F4B9
S11306A085E090E002C080E090E0C6DDE091BD24EA
S11306B0F091BE2480E009951092AD241092AE24EE
S11306C01092AF241092B02481E08093A9249CC29C
S11306D04AE050E066ED70E285EA93E20E94CF368C
S11306E0282F392F232BB9F481E0E1EBF4E2808346
S11306F0E091BD24F091BE2409958091A72488231C
S113070009F482C21092A72483E090E08093A52488
S11307109093A624AEC24AE050E061EE70E285EA0E
S113072093E20E94CF36282F392F232B21F5A1EBFA
S1130730B4E21C92E091BD24F091BE2480E00995BE
S11307408091A724882349F01092A72483E090E0A5
S11307508093A5249093A6248CC28091A524909183
S1130760A624019709F050C285E090E08093A52467
S11307709093A6247EC24AE050E06CEE70E285EAD3
S113078093E20E94CF36282F392F232B09F01CC166
S1130790F5018385282F332727FD30952053310910
S11307A02A30310598F5E0EBF3E2212C312C2101BC
S11307B092018101000F111F221F331FB901A801EB
S11307C0440F551F661F771F440F551F661F771F61
S11307D0400F511F621F731F992787FD9095C09783
S11307E0AA2797FDA095BA2F1C012D01240E351EB2
S11307F0461E571EDF018191282F332727FD309590
S1130800205331092A30310598F205C0AFEAB3E22A
S1130810212C312C2101CD0101968AAB9BAB119681
S11308208C9111978C3239F01296FD0111968081CA
S11308308C32D9F702C0EAA9FBA9DF011D92A8AB4B
S1130840B9AB612CAEABBFABCF0102968CAB9DAB09
S1130850ABA6BCA6CDA6DEA6D62CB92C7FA601C01D
S1130860D39469A47AA498E0D99E600C711C1124D5
S1130870E8A9F9A9D301ED93FC938081882309F4B5
S113088069C08C3209F4C6C1ACA9BDA9FD018D9122
S1130890882309F467C08C32C9F7BEC18C3209F4CD
S11308A0C9C132968F018191882309F463C08C32C7
S11308B0C9F7C1C1D30112961D921C921397C401AA
S11308C00E947B36F30164837583868397832EC0ED
S11308D067EF70E2C7010E94C636282F392F232BF9
S11308E089F4E2E0F0E0D3011296ED93FC931397C0
S11308F081E0D80111969C91943509F080E0F301D0
S1130900848314C06CEF70E2C7010E94C636282F9E
S1130910392F232BB9F5E1E0F0E0D3011296ED93E2
S1130920FC93139714968D929C921597D801119667
S11309308C911197882371F111961C920E3F1F4FD1
S113094009F08ECF6D2CCDA4DEA49B2CABA4BCA44B
S11309507FA427C06D2CCDA4DEA49B2CABA4BCA487
S11309607FA41FC06D2CCDA4DEA49B2CABA4BCA47F
S11309707FA417C06D2CCDA4DEA49B2CABA4BCA477
S11309807FA40FC06D2CCDA4DEA49B2CABA4BCA46F
S11309907FA407C06D2CCDA4DEA49B2CABA4BCA467
S11309A07FA4662009F430C1A1ECB4E2ED91FC917E
S11309B0309709F429C1092D172D262D4AA95BA9C1
S11309C0C201B101099520C14AE050E060E071E242
S11309D085EA93E20E94CF36282F392F232B09F082
S11309E013C1F5018385282F332727FD3095205324
S11309F031092A30310598F5E0EBF3E2212C312C52
S1130A00210192018101000F111F221F331FB9011F
S1130A10A801440F551F661F771F440F551F661FFB
S1130A20771F400F511F621F731F992787FD9095F1
S1130A30C097AA2797FDA095BA2F1C012D01240E5B
S1130A40351E461E571EDF018191282F332727FDAF
S1130A503095205331092A30310598F205C0AFEAA8
S1130A60B3E2212C312C2101CD0101968AAB9BAB41
S1130A7011968C9111978C3239F01296FD011196D2
S1130A8080818C32D9F702C0EAA9FBA9DF011D924B
S1130A90A8ABB9AB81818C3239F03296DF01319643
S1130AA08C918C32D9F702C0A8A9B9A9FD01119281
S1130AB08F01612CABA6BCA6CDA6DEA6D62CB92C84
S1130AC07FA601C0D3948D2D90E09C01220F331F8B
S1130AD0820F931F3C01660C771C89A59AA5680EAA
S1130AE0791ED8018C91882309F467C08C3209F4EB
S1130AF0B0C0F80131964F018191882309F465C093
S1130B008C32C9F7A7C06BE071E2C8010E94C636F7
S1130B10282F392F232B71F4F30110821182C7017E
S1130B200E947B36D30112966D937D938D939C9393
S1130B30159726C067EF70E2C8010E94C636282FB9
S1130B40392F232B69F482E090E0F30180839183B1
S1130B5081E094E5C91280E0D30112968C9310C011
S1130B606CEF70E2C8010E94C636282F392F232B60
S1130B70A1F581E090E0F30180839183E282F38226
S1130B80D40111968C91882351F08C3241F0F401F8
S1130B9032967F018191882311F08C32D1F7F701CD
S1130BA011928F01309709F08DCF6D2CCDA4DEA466
S1130BB09B2CABA4BCA47FA417C06D2CCDA4DEA435
S1130BC09B2CABA4BCA47FA40FC06D2CCDA4DEA42D
S1130BD09B2CABA4BCA47FA407C06D2CCDA4DEA425
S1130BE09B2CABA4BCA47FA4AFEBB4E2ED91FC912D
S1130BF0309751F0E92CF72C062D28A939A94AA9D8
S1130C005BA9C201B10109950E947F1399230CF0DD
S1130C1088CB2FC0EEA9FFA9DF011D927D01818140
S1130C2081113CCE6D2CCDA4DEA49B2CABA4BCA422
S1130C307FA4B7CE8701F80111924F016BE071E2F6
S1130C40C7010E94C636282F392F232B09F432CE30
S1130C503FCE4801D4011D927D01F401C180C11031
S1130C6052CF6D2CCDA4DEA49B2CABA4BCA47FA43A
S1130C70BBCFE796CDBFDEBFDF91CF911F910F9120
S1130C80FF90EF90DF90CF90BF90AF909F908F90A8
S1130C907F906F905F904F903F902F9008950F93A7
S1130CA01F93CF93DF93EC01660F771F660F771FB7
S1130CB0660F771F83E00E94721F05EA14E211C0D9
S1130CC083E00E94781F882339F085E090E08093C8
S1130CD0A5249093A6240BC0F6DA209711F0FE0108
S1130CE00995F801208131812130310549F383E0F0
S1130CF00E949D1FDF91CF911F910F910895CF9274
S1130D00DF92EF92FF920F931F93CF93DF93EC0147
S1130D107B018A01D8DA2091A5243091A624232BC3
S1130D2051F50F2EF5EACF2EF4E2DF2EF02D81E0FF
S1130D3090E0F60180839183C7010E9492138DE0B5
S1130D400E948B13B801CE01AADF81E0F601208155
S1130D5031812330310509F080E01092A5241092EE
S1130D60A624811104C09091AA249F5F01C090E041
S1130D709093AA2401C080E0DF91CF911F910F913D
S1130D80FF90EF90DF90CF900895DF92EF92FF9263
S1130D900F931F93CF93DF937C016894DD24D2F8E3
S1130DA004EA13E2C4EAD4E2F801108218828BDA6E
S1130DB041E050E063E570E2C701A1DF811103C0A7
S1130DC0DA9491F701C081E0DF91CF911F910F91E7
S1130DD0FF90EF90DF900895CF93DF93EB0161E1F3
S1130DE071E20E94AB13BE010E94AB1364E171E295
S1130DF00E94AB13DF91CF910895BF92CF92DF92FF
S1130E00EF92FF920F931F93CF93DF93CDB7DEB78B
S1130E106097CDBFDEBF7C016B018A0154DA8091FB
S1130E20A5249091A624892B09F066C081E090E066
S1130E308093A5249093A62468E671E083E00E9441
S1130E40721F87E191E20E94921364E271E28FEFD4
S1130E500E94AB13B82EE3D62AE030E0AE014F5F18
S1130E605F4F0E945237BC018B2D0E94AB13B60119
S1130E70B3DFD82E4AE050E0BE016F5F7F4FF80128
S1130E80848195810E94EC36BC018D2D0E94AB13A8
S1130E90D82EF80120853185232B69F061E171E2B8
S1130EA00E94AB13F801608571850E94AB1362E266
S1130EB00E94A013D82E88E291E20E949213AD2DD5
S1130EC0A295AF70B0E0A352BE4D8C910E948B13DB
S1130ED0ED2DEF70F0E0E352FE4D80810E948B1304
S1130EE0E092C324F092C42481E08093A8248DE08E
S1130EF00E948B1381E001C080E06096CDBFDEBF0D
S1130F00DF91CF911F910F91FF90EF90DF90CF90E1
S1130F10BF9008958F929F92AF92BF92CF92DF922B
S1130F20EF92FF920F931F93CF93DF93CDB7DEB76A
S1130F306097CDBFDEBF7C018B01B42EA22EC32EE1
S1130F40C2D98091A5249091A624892B09F0A0C030
S1130F5081E090E08093A5249093A62468E671E054
S1130F6083E00E94721F87E191E20E94921364E67B
S1130F708FEF0E94A01363E60E94A013B8012CDF38
S1130F80182F4AE050E0BE016F5F7F4F8B2D90E039
S1130F900E947537BC01812F0E94AB13D82EBB2051
S1130FA009F455C00A2D1C2D0F2EF6E49F2EF02DAA
S1130FB00F2EF4E5AF2EF02D61E171E28D2D0E942C
S1130FC0AB13F801608171810E94AB13F801228197
S1130FD0338121303105D9F020F02230310571F50B
S1130FE020C06DE271E20E94AB13882EF801648187
S1130FF07581868197812AE030E0AE014F5F5F4FB3
S11310000E940B37BC01882D0E94AB1317C065E307
S113101071E20E94AB13F801648175810E94AB13E5
S11310200DC06BE371E20E94AB13F8019481992324
S113103011F06A2D01C0692D0E94A01362E20E9482
S1131040A013D82E085F1F4FBA9409F0B5CF88E2D9
S113105091E20E949213AD2DA295AF70B0E0A3521D
S1131060BE4D8C910E948B13ED2DEF70F0E0E35296
S1131070FE4D80810E948B1381E08093A824E0922E
S1131080C324F092C4248DE00E948B1381E001C03C
S113109080E06096CDBFDEBFDF91CF911F910F91AD
S11310A0FF90EF90DF90CF90BF90AF909F908F9084
S11310B008952F923F924F925F926F927F928F92F8
S11310C09F92AF92BF92CF92DF92EF92FF920F93D3
S11310D01F93CF93DF93CDB7DEB76297CDBFDEBF4B
S11310E0898B9A8B8091C7249091C824891709F41D
S11310F08BC00F2EF7E33F2EF02D05EA14E288246F
S11311008394912C0F2EF8EAAF2EF4E2BF2EF02D2B
S11311100F2EF7ECCF2EF4E2DF2EF02DE82EF12C7B
S11311203E9CF0013F9CF00D1124E953FB4D44A873
S113113055A866A877A820ACC6D8F801808191810B
S1131140892B09F061C08082918287E191E20E943B
S11311509213222029F061E68FEF0E94A01304C0AD
S11311606EE68FEF0E94A0133E9CB0013F9C700D71
S1131170112467537B4D30DEF82E2AE030E0AE01B7
S11311804F5F5F4FC301B2010E945237BC018F2DE4
S11311900E94AB13F82E88E291E20E949213EF2D85
S11311A0E295EF70F0E0E352FE4D80810E948B13D4
S11311B0EF2DEF70F0E0E352FE4D80810E948B131F
S11311C0F50110828DE00E948B136DE270E0898935
S11311D09A8965DDF80180819181108211820397DB
S11311E031F0EBEAF4E280818F5F80830DC0EBEA9B
S11311F0F4E21082F60180818F5F87708083E8ECCF
S1131200F4E2908198138ACF6296CDBFDEBFDF915E
S1131210CF911F910F91FF90EF90DF90CF90BF90EF
S1131220AF909F908F907F906F905F904F903F9082
S11312302F900895CF92DF92EF92FF92CF93DF9396
S113124069017A012091C824C22FCF5FC7709091A1
S1131250C7249C1701F1D7E3D29F90011124F9010F
S1131260E953FB4D80AF42E350E0C90187539B4DE6
S11312700E94DD36E8ECF4E2A081DA9FD00111246B
S1131280A953BB4DD496CD92DD92ED92FC92D797A3
S1131290C08381E001C080E0DF91CF91FF90EF90A7
S11312A0DF90CF900895EF92FF920F931F93CF9307
S11312B0DF93EC018B0182E491E20E944413B801B4
S11312C0882777FD8095982F0E94581380E090E03E
S11312D00E945213E091BB24F091BC2480E090E082
S11312E009951AE089E491E20E94921368E070E0A3
S11312F080E00E94721F06C00E947F13209711F0A5
S1131300FE01099580E00E94781F8823A9F31150FB
S113131049F780E090E00E941C011092A92482E029
S1131320E0E2F6E085836894FF24F3F800E216E037
S11313306894EE24E1F8F801E78261E070E080E06F
S11313400E94721F04C0209711F0FE01099580E0ED
S11313500E94781F8823B9F3FA9469F760EE71E06C
S113136080E00E94721F09EA14E206C00E94630131
S1131370209711F0FE010995F8018081811104C0C4
S11313800E94781F882391F380E00E949D1F809122
S1131390A924882349F180E090E0F7DC882321F137
S11313A060E170E080E00E94721F8FEF9FEFDC012C
S11313B08093AD249093AE24A093AF24B093B02433
S11313C0E091BB24F091BC2481E090E0099506C033
S11313D00E946301209711F0FE01099580E00E94AC
S11313E0781F8823A9F317C080E090E0CEDC10E0DA
S11313F045E050E06BE471E2CE0181DC811104C070
S11314001F5F1330A9F702C0133029F4E091B92407
S1131410F091BA240995E091BB24F091BC2481E0B9
S113142090E00995DF91CF911F910F91FF90EF907C
S11314300895FF920F931F93CF93DF93EC012091B4
S1131440C3243091C424232B09F486C00E94630171
S11314502091A5243091A62421303105D1F483E0D4
S11314600E94781F882309F469C01092A524109261
S1131470A624EBEAF4E280818F5F808303EC14E21C
S1131480D801ED91FC9180E00995F8011082118258
S113149055C08091A8248823B1F11092A824223049
S11314A0310569F41092AB2403EC14E2D801ED91F8
S11314B0FC9181E00995F801108211821FC023304C
S11314C0310569F41092AB2403EC14E2D801ED91D8
S11314D0FC9180E00995F801108211820FC0EBEABB
S11314E0F4E280818F5F808303EC14E2D801ED91F4
S11314F0FC9180E00995F801108211821092A524D4
S11315001092A6241BC081E02330310509F080E04D
S11315101092A5241092A624811104C09091AB24AA
S11315209F5F01C090E09093AB2403EC14E2D801D8
S1131530ED91FC910995F801108211828091AB2400
S1131540833028F48091AA24833008F458C16FEFC3
S113155072E0CE01A8DE53C10E9463018091C524CC
S1131560882309F452C00E9463018091A5249091BC
S1131570A624892B09F044C005EA14E281E090E036
S1131580D8018D939C9387E191E20E94921364E6C3
S11315908FEF0E94A0136AE20E94A013F82E88E243
S11315A091E20E949213AF2DA295AF70B0E0A352C6
S11315B0BE4D8C910E948B13EF2DEF70F0E0E3523F
S11315C0FE4D80810E948B138DE00E948B1363E09B
S11315D070E0CE0164DB21E0F80180819181039702
S11315E009F020E01092A5241092A624211104C031
S11315F08091AA248F5F01C080E08093AA2401C057
S113160020E081E028272093C5248091C6248823E4
S113161009F452C00E9463018091A5249091A624EC
S1131620892B09F044C005EA14E281E090E0D80176
S11316308D939C9387E191E20E94921363E68FEF6E
S11316400E94A0136AE20E94A013F82E88E291E29D
S11316500E949213AF2DA295AF70B0E0A352BE4D7D
S11316608C910E948B13EF2DEF70F0E0E352FE4D4E
S113167080810E948B138DE00E948B1363E070E0E5
S1131680CE010DDB21E0F80180819181039709F0FF
S113169020E01092A5241092A624211104C0809168
S11316A0AA248F5F01C080E08093AA2401C020E0B7
S11316B081E028272093C6248091B824882351F000
S11316C041E050E061E671E2CE0119DB91E0892747
S11316D08093B82482E00E94781F882309F481C093
S11316E08091A5249091A624892B91F0ECEAF4E250
S11316F080818F5F80838C3309F073C069E173E06C
S1131700CE01D1DDE091B924F091BA24099569C0E4
S11317101092AC248091B2249091B324813091052D
S1131720E1F120F0029709F04FC017C04AE050E001
S113173067E771E2CE01E3DA882349F082E090E0C2
S11317408093B2249093B3241092B7244AC0E7EB59
S1131750F4E280818F5F808337C04AE050E063E821
S113176071E2CE01CCDA882391F08091B1248823F0
S113177029F01092B2241092B32406C081E090E0C4
S11317808093B2249093B3241092B7242AC0E7EB39
S1131790F4E280818F5F808317C081E08093A72467
S11317A04AE050E060E971E2CE01A9DA882339F019
S11317B01092B2241092B3241092B72412C0E7EB13
S11317C0F4E280818F5F80838091B724883749F465
S11317D06FE373E0CE0167DDE091B924F091BA24A0
S11317E009958091AB24833020F48091AA2483301E
S11317F020F066E473E0CE0156DDCE015ADCDF91C1
S1131800CF911F910F91FF9008950F931F93809391
S1131810B9249093BA241092C3241092C4246093E0
S1131820BB247093BC244093BD245093BE240093E6
S1131830C1241093C2242093BF243093C024109257
S1131840C5241092C62485E191E0E4EAF3E2DF01C5
S11318509C011D9221503040E1F780E090E00E940D
S11318601C011092C7241092C8248ED682E090E006
S113187082D645D79923ECF714E080E090E085DA2E
S1131880882309F45BC01092B62442E050E06DE96D
S113189071E280E090E033DA811105C0E091B9246F
S11318A0F091BA2409958091B624882361F042E02E
S11318B050E063EA71E280E090E021DAE091B9243B
S11318C0F091BA24099542E050E064EB71E280E0C3
S11318D090E015DA811105C0E091B924F091BA24A1
S11318E009958091B4249091B524009731F4E09146
S11318F0B924F091BA2409950EC0029761F44DE21F
S113190050E061EC71E280E090E0F9D9E091B92413
S1131910F091BA24099560E170E080E00E94721FA2
S113192080E00E94781F8823D9F341E050E060E909
S113193071E280E090E0E3D981E015C064E070E0FA
S113194080E00E94721F80E00E94781F8823D9F3F0
S113195041E050E06FEC71E280E090E0D0D91150AA
S113196009F08BCF80E01F910F910895862798E0AE
S11319702CE880FF03C08695822701C0869591508C
S1131980C1F708951F93CF93DF93EC01162F1150E5
S1131990662331F080E06991E9DF1150E0F701C07E
S11319A080E0DF91CF911F910895FF920F931F93D1
S11319B0CF93DF9380918126882309F18091822639
S11319C090E0880F991F880F991F880F991F8C5FCB
S11319D0924DC7D3882339F084E462D3882319F065
S11319E0109281268BC08091822690E001966091AE
S11319F0842D70E00E944B35809382267FC08091B5
S1131A00822690E0880F991F880F991F880F991FCD
S1131A108C5F924DA6D3882309F44AC08EEB40D341
S1131A20882309F445C003E816E2C0E0D0E0F12CB5
S1131A30CE018D57994D3FD3882359F0F801619118
S1131A408F018F2D93DFF82E2196C930D10581F7B0
S1131A5002C0FF24FA942091822630E0F901E45771
S1131A60F94D80818A3F28F4F901E457F94D8F5FDD
S1131A708083F1101DC09091842680E040918326DC
S1131A80842B8035F5E09F0799F080364FEF94075B
S1131A907CF08135E5E09E075CF4F901EE0FFF1F51
S1131AA0EC52F44D80839183F901E457F94D10828F
S1131AB02091842D8091822690E00196622F70E01F
S1131AC00E944B358093822681E0809381262223D5
S1131AD0A9F0ECE8F6E2A4EDBBE22150822F90E0FD
S1131AE08357994D20E030E84191433018F02D930D
S1131AF03C9311971296E817F907B1F7DF91CF914C
S1131B001F910F91FF9008951092D32B109282266B
S1131B1081E080938126ECE8F6E2A4EDBBE22CE9B7
S1131B2036E280E090E811928D939D93E217F307DB
S1131B30D1F708954F925F926F927F928F929F9206
S1131B40AF92BF92CF92DF92EF92FF921F93CF9307
S1131B50DF9300D000D0CDB7DEB76B017C011FB797
S1131B60F89480919C2690919D26A0919E26B091F8
S1131B709F268C159D05AE05BF05E9F180919C2635
S1131B8090919D26A0919E26B0919F2689839A8349
S1131B90AB83BC83C701B601605E734E8F4F9F4F0A
S1131BA00F2EF0E88F2EF1E59F2EAA24A394B12CDA
S1131BB0F02DA50194010E945E352B013C01698141
S1131BC07A818B819C81605E734E8F4F9F4FA501FC
S1131BD094010E945E35461657066806790618F485
S1131BE081E08093A026C0929C26D0929D26E0920C
S1131BF09E26F0929F261FBF2496CDBFDEBFDF91A5
S1131C00CF911F91FF90EF90DF90CF90BF90AF9056
S1131C109F908F907F906F905F904F9008950F9357
S1131C201F938FB7F89400919C2610919D262091C4
S1131C309E2630919F268FBF602F712F822F932F66
S1131C401F910F910895CF93CFB7F89480919C265C
S1131C5090919D26A0919E26B0919F26892B8A2B38
S1131C608B2BD1F180919C2690919D26A0919E264C
S1131C70B0919F260196A11DB11D80939C2690933F
S1131C809D26A0939E26B0939F268091A026811125
S1131C901EC080919C2690919D26A0919E26B09175
S1131CA09F26BC01CD01605E734E8F4F9F4F20E88D
S1131CB031E541E050E00E945E3521E030E0672BE1
S1131CC0682B692B11F020E030E0C90102C081E0EB
S1131CD090E081708093A026CFBFCF910895CF93D9
S1131CE0DF93CDB7DEB72B97CDBFDEBF98E19983E5
S1131CF01A821D821E826F83788789871A861B86C3
S1131D0041E0BE016F5F7F4F80E894E00E94361C83
S1131D1021E0892B09F020E0822F2B96CDBFDEBF76
S1131D20DF91CF9108950F931F93CF93DF93CDB796
S1131D30DEB72C97CDBFDEBF88E18A8384EB8B832B
S1131D4021E030E02E833F83188619861A861B868D
S1131D501C8640E0BE016E5F7F4F80E894E00E94E5
S1131D60361C892BB1F4BE016F5F7F4F81E0B7DF72
S1131D70898180FDF8CF81FF07C08695869591E023
S1131D808927082F017002C000E010E0802F8170C5
S1131D9001C080E02C96CDBFDEBFDF91CF911F91B3
S1131DA00F910895CF93DF93CDB7DEB72C97CDBFB6
S1131DB0DEBF98E1998395EA9A838B8382E090E071
S1131DC08D839E83CE010C968F83988781E090E06B
S1131DD089879A871B8641E0BE016F5F7F4F80E849
S1131DE094E00E94361C892B69F48C8580FF0CC01A
S1131DF0BE01645F7F4F81E072DF8C8580FDF8CF88
S1131E0081E003C080E001C081E02C96CDBFDEBF3D
S1131E10DF91CF910895CF93DF93CDB7DEB72B97A2
S1131E20CDBFDEBF88E1898382ED8A8384EB8B8317
S1131E3082E090E08D839E831F82188619861A861D
S1131E401B8640E0BE016F5F7F4F80E894E00E94F4
S1131E50361C21E0892B09F020E0822F2B96CDBF80
S1131E60DEBFDF91CF9108952F923F924F925F9200
S1131E706F927F928F929F92AF92BF92CF92DF9296
S1131E80EF92FF920F931F93CF93DF93CDB7DEB7FB
S1131E902D97CDBFDEBF7C011092AB268091AA2680
S1131EA08111D4C088E1898381EE8A8380EF8B839A
S1131EB082E090E08D839E831F82188619861A869D
S1131EC01B8640E0BE016F5F7F4F80E894E00E9474
S1131ED0361CBE01645F7F4F81E001DF8C8580FD8D
S1131EE0F8CF21DF811105C01092A9261092AA26ED
S1131EF0C0C091DF80EF56DF77247394612C1D8678
S1131F00552453940F2EF9EA8F2EF6E29F2EF02DCE
S1131F100F2EF8E12F2EF02D0F2EF8E73F2EF02D87
S1131F206894AA24A1F8B12C8E01045F1F4FCC241D
S1131F30C394D12C252D30E0F4018081992787FDAD
S1131F4090952817390764F4E62DF0E0EF55F94D24
S1131F508081872144244394811108C0412C06C008
S1131F60442443942817390709F0412C54DF1C8674
S1131F7029823A82442011F080E801C080E08B83FA
S1131F80AD82BE820F831887C986DA861B8641E03C
S1131F90BE016F5F7F4F80E894E00E94361C892B5E
S1131FA049F48C8580FF06C0B80181E098DE8C85F9
S1131FB080FDFACF8C8586FB992790F9282F221F64
S1131FC02227221F85FF03C0992331F02FC09111CE
S1131FD003C0222359F002C0222349F0E62DF0E089
S1131FE0EF55F94D8081872980830AC05D86E62DEF
S1131FF0F0E0EF55F94D872D8095908189238083FA
S11320005394770C79F4E62DF0E0EF55F94D6081A7
S1132010EBEAF6E28081AADCEBEAF6E280836394E1
S113202077247394F7E0F61508F084CF80E48515DF
S113203068F48091AB26811109C0ED85E093A9264F
S1132040E11109C081E08093AA2605C01092A92657
S11320501092AA260EC08091A1268823B9F388E0A5
S1132060E1EAF6E2D70101900D928A95E1F781E069
S113207001C080E02D96CDBFDEBFDF91CF911F91CF
S11320800F91FF90EF90DF90CF90BF90AF909F9013
S11320908F907F906F905F904F903F902F90089516
S11320A0CF93C82FB8DE882319F08C2F7BDE01C0B4
S11320B080E0CF9108950F931F93CF93DF93CDB713
S11320C0DEB76797CDBFDEBF8C0188E18C8786E9D8
S11320D08D8721E030E0288B398BAE01495E5F4F5C
S11320E04A8B5B8B2C8B3D8B1E8A41E0BE01645F67
S11320F07F4F80E894E00E94361C892B41F58F893C
S113210080FF08C0BE01695E7F4F81E0E8DD8F89F2
S113211080FDF8CF88E1898381EE8A838B8382E016
S113212090E08D839E830F83188781E090E08987F8
S11321309A871B8641E0BE016F5F7F4F80E894E081
S11321400E94361C21E0892B19F020E001C020E018
S1132150822F6796CDBFDEBFDF91CF911F910F9184
S113216008950F931F93CF93DF93082F192FDBDD6F
S1132170882379F085E516DE882369F0C02FD12FF6
S113218018E089910FDE882341F01150D1F781E0E6
S113219005C080E003C080E001C080E0DF91CF9102
S11321A01F910F910895CF92DF92EF92FF920F93B8
S11321B01F93CF93DF93CDB7DEB72C97CDBFDEBF90
S11321C01092842D88E1898380EF8A8381E090E0F6
S11321D08D839E831F82188619861A861B8640E08B
S11321E0BE016F5F7F4F80E894E00E94361C892B0C
S11321F009F07AC01C86BE01645F7F4F81E06FDD09
S11322008C8580FDF7CF877F803109F06DC003DEB8
S1132210882309F469C08091842D90E0880F991F68
S1132220880F991F880F991F1092A9261092AA2629
S11322308C5F924D19DE882309F456C08091842D59
S11322408F5F8093842D803128F0F090842DF110DD
S11322500EC04AC090E0880F991F880F991F880FFD
S1132260991F8C5F924D00DE8111E8CFEECF60E0C4
S113227070E00F2EF1E1EF2EF02DE69E8001E79E37
S1132280100D11240C50144DDB01AA0FBB1FAA0F13
S1132290BB1FAA0FBB1F0F2EF4E0CF2EFDE2DF2ED3
S11322A0F02DCA0EDB1EA801405F5F4FF801D60176
S11322B08D916D01282F22952F7030E023523E4DD1
S11322C0D9019C9190838F7090E083529E4DDC01E4
S11322D08C9181833296E417F50749F7F801108A47
S11322E06F5F7F4F6F1548F28091842D2C96CDBF80
S11322F0DEBFDF91CF911F910F91FF90EF90DF90A0
S1132300CF9008951F920F920FB60F9211242F931E
S11323108F939F93AF93BF93EF93FF932091B00854
S113232080913C278F5F8F7090913D27981741F0E3
S1132330ECE3F7E2A081B0E0A455B94D2C9380837F
S1132340FF91EF91BF91AF919F918F912F910F903A
S11323500FBE0F901F9018951F920F920FB60F92F9
S113236011240F900FBE0F901F9018951F920F927B
S11323700FB60F9211248F939F93AF93BF93EF9354
S1132380FF9390913E2780913F27981306C0E0EB7E
S1132390F8E083818C7F83830EC0EFE3F7E2A081B2
S11323A0B0E0A455B94D50968C918093B0088081CB
S11323B08F5F8F778083FF91EF91BF91AF919F9152
S11323C08F910F900FBE0F901F901895E0EBF8E0DF
S11323D093818295807F9F7C982B93830895CF93DC
S11323E0DF93CDB7DEB72997CDBFDEBF89E0E0E04C
S11323F0F0E2DE01119601900D928A95E1F71092B8
S11324003D2710923C2710923F2710923E27BE0191
S11324106F5F7F4F80EB98E00E94AF1DE0EBF8E028
S113242083818F7C83838381837F838383818C7F78
S1132430816083832996CDBFDEBFDF91CF9108955C
S1132440FF920F931F93CF93DF93F82E68E070E011
S113245081E00E94721F0EE317E2CFE3D7E202C0CD
S11324600E942C2AF80190819F5F9F772881921700
S113247099F0EEE3F7E2A081B0E0A455B94D50968F
S1132480FC929083E0EBF8E083818C7F816083830E
S113249081E00E949D1F06C081E00E94781F88236E
S11324A009F3DECFDF91CF911F910F91FF90089533
S11324B01F920F920FB60F9211242F938F939F9315
S11324C0AF93BF93EF93FF932091A00A809140288C
S11324D08F5F8F7790914128981741F0E0E4F8E2FC
S11324E0A081B0E0A05CB84D2C938083FF91EF9164
S11324F0BF91AF919F918F912F910F900FBE0F902D
S11325001F9018951F920F920FB60F9211240F90DF
S11325100FBE0F901F9018951F920F920FB60F9237
S113252011248F939F93AF93BF93EF93FF93909155
S1132530422880914328981306C0E0EAFAE0838198
S11325408C7F83830DC0E3E4F8E2A081B0E0A05463
S1132550B84D8C918093A00A80818F5F8F778083A0
S1132560FF91EF91BF91AF919F918F910F900FBE0B
S11325700F901F901895E0EAFAE093818295807F8E
S11325809F7C982B93830895CF93DF93CDB7DEB7C9
S11325902997CDBFDEBF89E0E9E0F0E2DE011196C4
S11325A001900D928A95E1F71092412810924028EB
S11325B01092432810924228BE016F5F7F4F80EA39
S11325C09AE00E94AF1DE0EAFAE083818F7C838366
S11325D08381837F838383818C7F81608383299636
S11325E0CDBFDEBFDF91CF910895909141288091B6
S11325F04028981769F0E1E4F8E2A081B0E0A05C1B
S1132600B84D2C9180818F5F8F77808330E002C03A
S11326102FEF3FEF822F932F0895FF920F931F9375
S1132620CF93DF93F82E68E070E081E00E94721F80
S113263002E418E2C3E4D8E202C00E942C2AF801A2
S113264090819F5F9F772881921791F0E2E4F8E2EE
S1132650A081B0E0A054B84DFC929083E0EAFAE087
S113266083818C7F8160838381E00E949D1F06C0EB
S113267081E00E94781F882311F3DFCFDF91CF918F
S11326801F910F91FF900895CF93DF93EC01888100
S1132690882329F02196D4DE89918111FCCFDF9122
S11326A0CF910895009709F0EFDF8EEE91E2ECCF21
S11326B0CF92DF92EF92FF926B017C018AE0C81601
S11326C0D104E104F10458F0C701B6012AE030E076
S11326D040E050E00E945E35CA01B901E9DFC7015C
S11326E0B6012AE030E040E050E00E945E35862FDB
S11326F0805DA6DEFF90EF90DF90CF900895CF939A
S1132700DF9373DFEC0199230CF09ADE8C2F9D2F5D
S1132710DF91CF910895CF93C82F7FDF8C2F90DE68
S1132720CF910895CF93DF93EC018881882329F01A
S11327302196F1DF89918111FCCFDF91CF9108952A
S1132740CF93DF93C62F12D9D82F8C2FE4DF8D2F90
S1132750DF91CF910895CF93DF93EB0168816623D6
S113276029F02196EDDF69916111FCCFDF91CF91C2
S1132770089543E050E068E080E296E0BDD043E095
S113278050E060E280E096E0B7D043E050E068E0DB
S113279080E896E0B1D040E050E064E080E896E064
S11327A0ABD043E050E068E080E896E0A5D040E09C
S11327B050E064E080E896E09FD043E050E060E8B9
S11327C080E496E099D040E050E060E480E496E054
S11327D093D043E050E062E080E296E08DD043E0A5
S11327E050E060E480E096E087D041E050E061E0B2
S11327F080E696E081D041E050E062E080E696E039
S11328007BD043E050E068E080E696E075D040E09D
S113281050E064E080E496E06FD040E050E064E093
S113282080E696E069D040E050E064E080E296E023
S113283063D040E050E064E080E096E05DC0CF9378
S1132840DF938FEF80937000809371008093720008
S11328508093730080937400809375008093760056
S11328608FB7F894E0E5F0E09081926090838FBF99
S1132870818181FFFDCF8FB7F894E0E5F0E090818E
S1132880946090838FBF818182FFFDCF8FB7F894CE
S1132890C0E5D0E09E81997F9E839E819E83E0E681
S11328A0F0E09081916090838FBF61E080E490E0DC
S11328B04BD08FB7F89498819E7F98838FBF8FB742
S11328C0F8949881946098838FBFE0E5F0E081816B
S11328D082FFFDCF85E0E0E4F0E08383DF91CF91D8
S11328E008952FB7F894FC01E059FF4F609580815B
S11328F0682360832FBF0895CF93DF93FC01709604
S113290020E030E0C62FD0E0DE01022E02C0B595F3
S1132910A7950A94E2F7A0FD50832F5F3F4F3196AD
S11329202830310589F740FF0AC041FF03C0FC018C
S1132930658302C0FC016683FC01618302C0FC0163
S11329406283DF91CF9108951BBEFC0128ED24BF63
S113295060830895CF93DF939C01862F972FE0EC3B
S1132960F1E0A785AA23ECF3CCECD1E068816860A0
S11329706883305F622F732F0E94B6368881877F09
S11329808883DF91CF910895E0ECF1E08785882377
S1132990ECF3E0ECF1E0878581FF06C086E38287F3
S11329A061E08BEC91E0D0CF0895E0ECF1E0978505
S11329B09923ECF3ECECF1E0908198609083A82FDC
S11329C0B0E0B05F6C938081877F80830895FF922D
S11329D00F931F93CF93DF93182FF92EC62FE0EC9C
S11329E0F1E00285D1DFE0ECF1E027852223ECF36E
S11329F06C2F812FDADFC0ECD1E01A82F9821883C0
S1132A0085E38A8761E08BEC91E09EDF0A87DF91A2
S1132A10CF911F910F91FF900895EF92FF920F9322
S1132A201F93CF93DF938C01E0ECF1E0878588233B
S1132A30ECF3780180E2E80EF11CE8018C2F801B96
S1132A406991B3DFCE15DF05C9F7DF91CF911F91EF
S1132A500F91FF90EF9008951F93CF93DF93E0ECD5
S1132A60F1E097859923ECF320E2829FC0011124C1
S1132A70C0ECD1E01A82998388831A8585E38A871A
S1132A8061E08BEC91E060DF1A87DF91CF911F91B9
S1132A900895CF92DF92EF92FF920F931F93CF93FB
S1132AA0DF93EC017B018A014115510551F1CE01FF
S1132AB08F719927892BB1F40032110598F0C70161
S1132AC0ACDFCE0196958795929582958F70892774
S1132AD09F708927C1DFA09680E2E80EF11C0052A6
S1132AE011090CC06E01EFEFCE1ADE0AF7016191F5
S1132AF07F01CE016CDF01501109E60101151105BA
S1132B00B1F6DF91CF911F910F91FF90EF90DF907D
S1132B10CF900895CF93DF93D82F36DFE0ECF1E028
S1132B2087858823ECF3C0E06D2F8C2F3EDFCF5FC9
S1132B30C032D1F7DF91CF9108951F93CF93DF93E4
S1132B40E0ECF1E087858823ECF3C0ECD1E01A8552
S1132B5080E38A8761E08BEC91E0F6DE1A87DF91EF
S1132B60CF911F9108958FEFD5DFE7CF1092000426
S1132B70E0E0F4E0218120FDFDCFE0E0F4E06087B7
S1132B80718780938B2D90938C2D81E080830895A1
S1132B90E0E0F4E021E022836487758760938F2D61
S1132BA07093902D80938D2D90938E2D818180FD37
S1132BB0FDCFE0E0F4E082E0838385E08283089542
S1132BC08093912D9093922D089564E080E090E09D
S1132BD088DEE0E0F4E08FEF9FEF82879387108632
S1132BE011868FB7F894A8E8BDE29C919F5F9C93EF
S1132BF08FBF81E08283808308951F920F920FB666
S1132C000F9211248F939F93EF93FF93EBE8FDE2D0
S1132C1080819181019680839183FF91EF919F91AF
S1132C208F910F900FBE0F901F9018951F920F92C7
S1132C300FB60F921124CF92DF92EF92FF920F936F
S1132C401F932F933F934F935F936F937F938F9330
S1132C509F93AF93BF93EF93FF9340918B2D50912C
S1132C608C2D80918D2D90918E2D48175907F0F160
S1132C7081E0E0E0F4E08283E091912DF091922DE7
S1132C803097A1F1A0E0B4E018968D919C9119972A
S1132C9060E070E0BA0155274427A0E0B0E08A0163
S1132CA09B01082B192B2A2B3B2BC901B80100913E
S1132CB08D2D10918E2D20E030E0980111270027F2
S1132CC0C0908F2DD090902DE12CF12C0C291D2932
S1132CD02E293F29061717072807390730F0C9019D
S1132CE0B8016F5F7F4F8F4F9F4F0995FF91EF9111
S1132CF0BF91AF919F918F917F916F915F914F9110
S1132D003F912F911F910F91FF90EF90DF90CF9003
S1132D100F900FBE0F901F9018951F920F920FB631
S1132D200F9211242F933F934F935F936F937F934D
S1132D308F939F93AF93BF93EF93FF93E0914428B6
S1132D40F0914528309709F00995FF91EF91BF91D3
S1132D50AF919F918F917F916F915F914F913F912F
S1132D602F910F900FBE0F901F9018951F920F92E6
S1132D700FB60F9211242F933F934F935F936F934A
S1132D807F938F939F93AF93BF93EF93FF93E091C0
S1132D904628F0914728309709F00995FF91EF9163
S1132DA0BF91AF919F918F917F916F915F914F915F
S1132DB03F912F910F900FBE0F901F9018951F9267
S1132DC00F920FB60F9211242F933F934F935F935B
S1132DD06F937F938F939F93AF93BF93EF93FF93DF
S1132DE0E0914828F0914928309709F00995FF911E
S1132DF0EF91BF91AF919F918F917F916F915F916F
S1132E004F913F912F910F900FBE0F901F901895E7
S1132E101F920F920FB60F9211242F933F934F934B
S1132E205F936F937F938F939F93AF93BF93EF932E
S1132E30FF93E0914A28F0914B28309709F00995C7
S1132E40FF91EF91BF91AF919F918F917F916F917E
S1132E505F914F913F912F910F900FBE0F901F9054
S1132E6018951F920F920FB60F9211242F933F9330
S1132E704F935F936F937F938F939F93AF93BF937E
S1132E80EF93FF93E0914C28F0914D28309709F08F
S1132E900995FF91EF91BF91AF919F918F917F9190
S1132EA06F915F914F913F912F910F900FBE0F90B3
S1132EB01F9018951F920F920FB60F9211242F9303
S1132EC03F934F935F936F937F938F939F93AF93AE
S1132ED0BF93EF93FF93E0914E28F0914F283097E2
S1132EE009F00995FF91EF91BF91AF919F918F9157
S1132EF07F916F915F914F913F912F910F900FBEF2
S1132F000F901F9018951F920F920FB60F921124D5
S1132F102F933F934F935F936F937F938F939F93DD
S1132F20AF93BF93EF93FF93E0915028F091512812
S1132F30309709F00995FF91EF91BF91AF919F915F
S1132F408F917F916F915F914F913F912F910F904E
S1132F500FBE0F901F9018951F920F920FB60F92ED
S1132F6011242F933F934F935F936F937F938F938A
S1132F709F93AF93BF93EF93FF93E0915228F09107
S1132F805328309709F00995FF91EF91BF91AF91C4
S1132F909F918F917F916F915F914F913F912F916D
S1132FA00F900FBE0F901F9018951F920F920FB69F
S1132FB00F9211242F933F934F935F936F937F93BB
S1132FC08F939F93AF93BF93EF93FF93E091542814
S1132FD0F0915528309709F00995FF91EF91BF9131
S1132FE0AF919F918F917F916F915F914F913F919D
S1132FF02F910F900FBE0F901F9018951F920F9254
S11330000FB60F9211242F933F934F935F936F93B7
S11330107F938F939F93AF93BF93EF93FF93E0912D
S11330205628F0915728309709F00995FF91EF91B0
S1133030BF91AF919F918F917F916F915F914F91CC
S11330403F912F910F900FBE0F901F9018951F92D4
S11330500F920FB60F9211242F933F934F935F93C8
S11330606F937F938F939F93AF93BF93EF93FF934C
S1133070E0915828F0915928309709F00995FF916B
S1133080EF91BF91AF919F918F917F916F915F91DC
S11330904F913F912F910F900FBE0F901F90189555
S11330A01F920F920FB60F9211242F933F934F93B9
S11330B05F936F937F938F939F93AF93BF93EF939C
S11330C0FF93E0915A28F0915B28309709F0099515
S11330D0FF91EF91BF91AF919F918F917F916F91EC
S11330E05F914F913F912F910F900FBE0F901F90C2
S11330F018951F920F920FB60F9211242F933F939E
S11331004F935F936F937F938F939F93AF93BF93EB
S1133110EF93FF93E0915C28F0915D28309709F0DC
S11331200995FF91EF91BF91AF919F918F917F91FD
S11331306F915F914F913F912F910F900FBE0F9020
S11331401F9018951F920F920FB60F9211242F9370
S11331503F934F935F936F937F938F939F93AF931B
S1133160BF93EF93FF93E0915E28F0915F2830972F
S113317009F00995FF91EF91BF91AF919F918F91C4
S11331807F916F915F914F913F912F910F900FBE5F
S11331900F901F9018951F920F920FB60F92112443
S11331A02F933F934F935F936F937F938F939F934B
S11331B0AF93BF93EF93FF93E0916028F091612860
S11331C0309709F00995FF91EF91BF91AF919F91CD
S11331D08F917F916F915F914F913F912F910F90BC
S11331E00FBE0F901F9018951F920F920FB60F925B
S11331F011242F933F934F935F936F937F938F93F8
S11332009F93AF93BF93EF93FF93E0916228F09164
S11332106328309709F00995FF91EF91BF91AF9121
S11332209F918F917F916F915F914F913F912F91DA
S11332300F900FBE0F901F9018951F920F920FB60C
S11332400F9211242F933F934F935F936F937F9328
S11332508F939F93AF93BF93EF93FF93E091642871
S1133260F0916528309709F00995FF91EF91BF918E
S1133270AF919F918F917F916F915F914F913F910A
S11332802F910F900FBE0F901F9018951F920F92C1
S11332900FB60F9211242F933F934F935F936F9325
S11332A07F938F939F93AF93BF93EF93FF93E0919B
S11332B06628F0916728309709F00995FF91EF91FE
S11332C0BF91AF919F918F917F916F915F914F913A
S11332D03F912F910F900FBE0F901F9018951F9242
S11332E00F920FB60F9211242F933F934F935F9336
S11332F06F937F938F939F93AF93BF93EF93FF93BA
S1133300E0916828F0916928309709F00995FF91B8
S1133310EF91BF91AF919F918F917F916F915F9149
S11333204F913F912F910F900FBE0F901F901895C2
S11333301F920F920FB60F9211242F933F934F9326
S11333405F936F937F938F939F93AF93BF93EF9309
S1133350FF93E0916A28F0916B28309709F0099562
S1133360FF91EF91BF91AF919F918F917F916F9159
S11333705F914F913F912F910F900FBE0F901F902F
S113338018951F920F920FB60F9211242F933F930B
S11333904F935F936F937F938F939F93AF93BF9359
S11333A0EF93FF93E0916C28F0916D28309709F02A
S11333B00995FF91EF91BF91AF919F918F917F916B
S11333C06F915F914F913F912F910F900FBE0F908E
S11333D01F9018951F920F920FB60F9211242F93DE
S11333E03F934F935F936F937F938F939F93AF9389
S11333F0BF93EF93FF93E0916E28F0916F2830977D
S113340009F00995FF91EF91BF91AF919F918F9131
S11334107F916F915F914F913F912F910F900FBECC
S11334200F901F9018951F920F920FB60F921124B0
S11334302F933F934F935F936F937F938F939F93B8
S1133440AF93BF93EF93FF93E0917028F0917128AD
S1133450309709F00995FF91EF91BF91AF919F913A
S11334608F917F916F915F914F913F912F910F9029
S11334700FBE0F901F9018951F920F920FB60F92C8
S113348011242F933F934F935F936F937F938F9365
S11334909F93AF93BF93EF93FF93E0917228F091C2
S11334A07328309709F00995FF91EF91BF91AF917F
S11334B09F918F917F916F915F914F913F912F9148
S11334C00F900FBE0F901F9018951F920F920FB67A
S11334D00F9211242F933F934F935F936F937F9396
S11334E08F939F93AF93BF93EF93FF93E0917428CF
S11334F0F0917528309709F00995FF91EF91BF91EC
S1133500AF919F918F917F916F915F914F913F9177
S11335102F910F900FBE0F901F9018951F920F922E
S11335200FB60F9211242F933F934F935F936F9392
S11335307F938F939F93AF93BF93EF93FF93E09108
S11335407628F0917728309709F00995FF91EF914B
S1133550BF91AF919F918F917F916F915F914F91A7
S11335603F912F910F900FBE0F901F901895CF93FE
S1133570CFB7F894811528E0920749F461E083E01D
S113358090E0AFD964E083E090E0ABD935C08034FB
S113359028E0920749F462E083E090E0A2D964E075
S11335A083E090E09ED928C0811529E0920749F470
S11335B061E084E090E095D964E084E090E091D902
S11335C01BC0803429E0920749F462E084E090E073
S11335D088D964E084E090E084D90EC081159A40D3
S11335E049F461E085E090E07CD964E085E090E016
S11335F078D902C0CFBF09C08FB7F894E6E8FDE2DE
S113360090819F5F90838FBFCFBFCF910895811525
S113361028E0920729F4609344287093452808957C
S1133620803428E0920729F460935028709351283D
S11336300895811529E0920729F46093582870931E
S113364059280895803429E0920729F46093642866
S113365070936528089581159A4021F460936C282D
S113366070936D280895CF93DF93E0917828F091BB
S11336707928848183FF0BC08860848383E08383FB
S113368086EF9FEF80938228909383288EC0982F93
S1133690947149F083E083838FEF9FEF80938228B6
S11336A09093832882C086FF42C0A0917A28B0916B
S11336B07B2880917C2890917D2814962D913C91B3
S11336C01597821793075CF4A80FB91F11962C91D4
S11336D02783019680937C2890937D2866C08091EF
S11336E07E2890917F2818962D913C9119978217E6
S11336F09307B0F420918028222321F086818160F1
S1133700868353C016960D90BC91A02DA80FB91FA7
S11337102C912783019680937E2890937F2845C01F
S113372083E0838310928228109283283EC08823EA
S1133730B4F5A0917A28B0917B2880917E2890914D
S11337407F2818962D913C91199782179307F0F4CE
S113375027811696CD91DC911797C80FD91F28831E
S1133760019680937E2890937F2818962D913C9102
S113377019978217930718F482E0838316C087E0B1
S1133780838310928228109283280FC083E083835E
S113379089EF9FEF809382289093832806C08BEF54
S11337A09FEF8093822890938328DF91CF9108958F
S11337B01F920F920FB60F9211242F933F934F93A2
S11337C05F936F937F938F939F93AF93BF93EF9385
S11337D0FF9349DFFF91EF91BF91AF919F918F913B
S11337E07F916F915F914F913F912F910F900FBEF9
S11337F00F901F9018951F920F920FB60F921124DD
S11338002F933F934F935F936F937F938F939F93E4
S1133810AF93BF93EF93FF9326DFFF91EF91BF9197
S1133820AF919F918F917F916F915F914F913F9154
S11338302F910F900FBE0F901F901895FC01DB0184
S113384014968C91858388EB818381E08483109224
S113385081281092822810928328E0EAF0E0828185
S113386082608283789480E090E00895009709F460
S113387059C06115710509F458C0FB0132852091C6
S1133880812802C0311154C02111FCCF5FB7F894D4
S113389021E02093812820E83FEF20938228309371
S11338A083285FBF809378289093792860937A283F
S11338B070937B2810927C2810927D2810927E2889
S11338C010927F2840938028FB015081550F24815A
S11338D03581232B11F4411103C0FC01568303C02D
S11338E05160FC015683E2E8F8E2808191818038DE
S11338F09F4FD9F3E0917828F091792884818370DF
S1133900813049F0A8E7B8E2ED91FC9111978481E8
S113391083708130C9F720918228309183281092D6
S1133920812808C028EF3FEF05C028EF3FEF02C011
S113393026EF3FEF822F932F08954F925F926F925D
S11339407F928F929F92AF92BF92CF92DF92EF922B
S1133950FF920F931F93CF93DF93EC014A015B0116
S113396028013901D901C801689412F8B695A795C0
S1133970979587951694D1F7B901A801032E36E1DE
S113398076956795579547953A95D1F7302D2C81C3
S113399022FD08C0B695A795979587957695679566
S11339A05795479588159905AA05BB0508F4AEC037
S11339B084169506A606B70608F4AAC08C8182FD73
S11339C004C0880C991CAA1CBB1CC301B201A5012C
S11339D094010E945E352F3F31054105510508F4DD
S11339E099C0C12CD12C7601CA9419EF05C02C15AD
S11339F03D054E055F0568F0CC0CDD1CEE1CFF1C7C
S1133A001D3F14F46894C0F81F5F173081F7212F0D
S1133A1054C0212F11230CF050C0D501C401880FCC
S1133A20991FAA1FBB1F880F991FAA1FBB1F880FAE
S1133A30991FAA1FBB1F481A590A6A0A7B0A1E3F0C
S1133A40F4F46DEF7FEF611B710917FD739504C0EA
S1133A50440C551C661C771C6A95D2F7D501C40129
S1133A60B695A79597958795BC01CD01640D751DF5
S1133A70861D971DA50194010E945E353EC0212F2D
S1133A80332727FD30952D5F3F4FD501C40104C076
S1133A90880F991FAA1FBB1F2A95D2F79C01AD015D
S1133AA0B695A79597958795BC01CD01640D751DB5
S1133AB0861D971D0E945E3520C0332727FD309553
S1133AC02D5F3F4FD501C40104C0880F991FAA1F61
S1133AD0BB1F2A95D2F79C01AD01B695A795979582
S1133AE08795BC01CD01640D751D861D971D0E942F
S1133AF05E352150310941095109832F8F70129588
S1133B00107F182B1F832E8381E018C080E016C01D
S1133B1080E014C0D501C401880F991FAA1FBB1FE0
S1133B20880F991FAA1FBB1F880F991FAA1FBB1FAD
S1133B30481A590A6A0A7B0A19EF83CFDF91CF9199
S1133B401F910F91FF90EF90DF90CF90BF90AF90B7
S1133B509F908F907F906F905F904F9008950F93F8
S1133B601F93CF93DF93EC018B01009709F4EEC010
S1133B70803C910531F460E180E090E00E94711492
S1133B80E5C0C11584E0D80731F464E080E090E03A
S1133B900E947114DBC0C038E1E0DE0731F462E05A
S1133BA080E090E00E947114D1C0C115F1E0DF07FC
S1133BB031F461E080E090E00E947114C7C0C03825
S1133BC083E0D80731F461E081E090E00E94711451
S1133BD0BDC0C115E2E0DE0731F462E081E090E0AF
S1133BE00E947114B3C0C032F3E0DF0731F464E023
S1133BF082E090E00E947114A9C0C11588E0D80742
S1133C0031F461E083E090E00E9471149FC0C1151B
S1133C10E9E0DE0731F461E084E090E00E94711491
S1133C2095C0C115FAE0DF0731F461E085E090E06A
S1133C300E9471148BC0C03488E0D80731F462E06C
S1133C4083E090E00E94711481C0C034E9E0DE0793
S1133C5031F462E084E090E00E94711477C0C039CE
S1133C60F8E0DF0731F464E083E090E00E9471142F
S1133C706DC0C03989E0D80731F464E084E090E095
S1133C800E94711463C0C039EAE0DE0731F464E0D5
S1133C9085E090E00E94711459C0C03CF8E0DF0751
S1133CA031F468E083E090E00E9471144FC0C03C9E
S1133CB089E0D80731F468E084E090E00E94711450
S1133CC045C0C03AE8E0DE0731F460E183E090E00B
S1133CD00E9471143BC0C03AF9E0DF0731F460E19F
S1133CE084E090E00E94711431C0C03A8AE0D807A1
S1133CF031F460E185E090E00E94711427C0C03B7C
S1133D00E8E0DE0731F460E283E090E00E947114A1
S1133D101DC0C03BF9E0DF0731F460E284E090E0CD
S1133D200E94711413C0C03884E0D80731F460E4F1
S1133D3083E090E00E94711409C0C03AE4E0DE0719
S1133D4029F460E485E090E00E9471148D818F7302
S1133D508D83F80196818481892B9085992311F0B4
S1133D6098E001C090E0892B8D83F8014081518156
S1133D706281738100E018E428EE31E0CE01DDDDDC
S1133D809C8198609C839C8190619C83DF91CF91FE
S1133D901F910F9108959091800092709160880F07
S1133DA0880F682F6C73692B80E890E00E94A4143C
S1133DB0E0E8F0E0828180FDFDCF0895609180000D
S1133DC06C7F616080E890E00C94A41460918000A2
S1133DD06C73636080E890E00E94A414E0E8F0E073
S1133DE0828180FDFDCF0895CF93DF93C091842815
S1133DF0D091A528E5E8F8E280E090E061E070E089
S1133E002C2F30E0082E02C0359527950A94E2F74E
S1133E1020FF1AC020813181215031092083318350
S1133E20232B91F49B01082E02C0220F331F0A9406
S1133E30E2F7D22B428153814115510519F0408399
S1133E40518302C02095C22301963496883091058F
S1133E50B9F6C0938428D093A52860E070E0CB0124
S1133E600E94B61560E870E080E090E00E94C815FA
S1133E70DF91CF9108950E94E51584EF9EE10E94A1
S1133E80E01560E070E0CB010E94B61560E870E0D8
S1133E9080E090E00C94C815883018F5AFB7F8941A
S1133EA0E82FF0E0EE0FFF1FEE0FFF1FEB57F74D6B
S1133EB0408351836283738321E030E0A90102C00F
S1133EC0440F551F8A95E2F7CA0190918428982BD4
S1133ED09093842880959091A52889238093A52880
S1133EE0AFBF0895AB0160E070E0D6CFAB01D4CF93
S1133EF08830F8F42091A52830E0082E02C03595CA
S1133F0027950A94E2F720FF16C04FB7F89421E0F2
S1133F1030E0B90102C0660F771F8A95E2F7CB0142
S1133F2080959091A52889238093A5284FBF81E08F
S1133F30089580E0089580E008954FB7F89421E053
S1133F4030E0B90102C0660F771F8A95E2F7CB0112
S1133F508095909184288923809384284FBF089565
S1133F602FB7F894E82FF0E0EE0FFF1FEE0FFF1FBE
S1133F70EE5DF44D60817181828193812FBF08953C
S1133F802FB7F894E82FF0E0EE0FFF1FEE0FFF1F9E
S1133F90EF5AF44D60817181828193812FBF08951E
S1133FA09FB7F894E82FF0E0EE0FFF1FEE0FFF1F0E
S1133FB0EE5DF44D40835183628373839FBF089504
S1133FC09FB7F894E82FF0E0EE0FFF1FEE0FFF1FEE
S1133FD0EF5AF44D40835183628373839FBF0895E6
S1133FE088E0E0E6F6E085830895E0E6F6E0808583
S1133FF083FF10C08091222B9091232BA091242B1E
S1134000B091252B80932F2B9093302BA093312BA1
S1134010B093322B88E0E0E6F6E086830895605E94
S1134020734E8F4F9F4F20E831E541E050E00E94EE
S11340305E35CA01B9016D5F7F4F8F4F9F4F27E0F7
S113404030E040E050E00E945E3521E065307105CB
S11340508105910508F020E0822F08958093A72818
S113406008950197B9F48091712B9091722B9C0162
S1134070220F331F280F391F369527952093AD281B
S11340803093AE288093AF289093B0281092A7283D
S11340901092A82808951092A828882361F01092FD
S11340A0AD281092AE28E1E3F9E2808190E0019618
S11340B08F709078808308951092A8288823C1F087
S11340C01092AD281092AE28EFEAF8E28081918137
S11340D06091712B7091722B0E943735808391838C
S11340E0E3E1FBE2808190E001968F709078808319
S11340F008951092A828882339F01092AD281092C0
S1134100AE281092AA28089581E08093AA280895E1
S11341101092A828882339F01092AD281092AE2866
S11341201092AB28089581E08093AB2808951092F3
S1134130A828882339F01092AD281092AE28109246
S1134140AC28089581E08093AC2808951092A828A3
S1134150882339F01092AD281092AE281092A92825
S1134160089581E08093A9280895805C282F33273F
S113417027FD3095932F9970890F8F7008951F93A1
S1134180CF93DF93EC018881F0DF182F8981EDDF75
S113419090E1199F90011124822BDF91CF911F91FF
S11341A00895982F90539A3048F0282F215481E095
S11341B090E0263028F080E090E002C081E090E0BA
S11341C081700895CF93DF93CDB7DEB76197CDBFEC
S11341D0DEBF89E893E20E94521341E150E0BE0140
S11341E06F5F7F4F83EC90E00E94AA1461E1CE01DF
S11341F001960E94C20C811135C089819A81AB81DC
S1134200BC818F3F9F4FAF4FBF4F21F419821A8259
S11342101B821C8289859A85AB85BC858F3F9F4F05
S1134220AF4FBF4F21F419861A861B861C868D81D9
S11342309E81AF81B8858F3F9F4FAF4FBF4F21F411
S11342401D821E821F8218868D859E85AF85B88942
S11342508F3F9F4FAF4FBF4F61F41D861E861F8651
S1134260188A07C0FE01319681E1DF011D928A950B
S1134270E9F749815A816B817C8180E091DE4D812F
S11342805E816F81788581E08BDE49855A856B85F7
S11342907C8580E095DE4D855E856F85788981E03B
S11342A08FDE6196CDBFDEBFDF91CF91089585E7A4
S11342B093E20E94521383E08093702B62E680E7BE
S11342C09BE20E94C20C8093D22BF89443E650E008
S11342D060E77BE280E690E00E944915E0ECF1E0C3
S11342E087858823ECF378940895CF93DF93CDB733
S11342F0DEB76197CDBFDEBF80E032DE69837A83AB
S11343008B839C8381E02CDE6D837E838F839887EF
S113431080E036DE69877A878B879C8781E030DE90
S11343206D877E878F87988B60E1CE0101960E940E
S1134330C20C898B41E150E0BE016F5F7F4F83EC7B
S113434090E00E944915E0ECF1E087858823ECF3C6
S113435089E593E20E9452136196CDBFDEBFDF91DF
S1134360CF910895EF92FF920F931F93CF93DF9312
S113437090E0FC01EE0FFF1FEE0FFF1FEE0FFF1F7B
S1134380E80FF91FE059F44D2381222351F1F090F5
S1134390842DFF2041F1C0E0D0E08C01000F111FFB
S11343A0000F111F000F111F080F191F0C58144D77
S11343B0BE01660F771F660F771F660F771F6C5F4E
S11343C0724D48E050E0C8010E94A936282F392FC9
S11343D0232B11F48C2F08C02196CF1548F38FEFAF
S11343E003C08FEF01C08FEFDF91CF911F910F9129
S11343F0FF90EF900895EF92FF920F931F93CF9346
S1134400DF93E82E8B01C0913229D0E09E012F5F0B
S11344103F4F2F703078F22E809131298217A1F00E
S1134420CC0FDD1FCC0FDD1FCC0FDD1FCF54D74DBC
S11344300E940F0E688379838A839B83EC821D829A
S11344400E831F83F0923229DF91CF911F910F9138
S1134450FF90EF900895CF92DF92EF92FF920F9327
S11344601F93CF93DF93182F6A017B01C0913229E8
S1134470D0E09E012F5F3F4F2F703078022F809144
S113448031298217A9F0CC0FDD1FCC0FDD1FCC0F13
S1134490DD1FCF54D74D0E940F0E688379838A8322
S11344A09B831C8381E08D83CE82DF82009332293B
S11344B0DF91CF911F910F91FF90EF90DF90CF90FC
S11344C008958F929F92AF92BF92CF92DF92EF9214
S11344D0FF921F93CF93DF9380E044DF982E81E017
S11344E041DFA82E82E03EDFB82E0E940F0E6093BB
S11344F0152B7093162B8093172B9093182BE0E6B3
S1134500F6E0808583FB882780F980932A2B8091AD
S1134510622B8823C9F08FB7F894C0905E2BD0909B
S11345205F2BE090602BF090612B8FBF0E940F0EE9
S11345302AE0C20ED11CE11CF11C6C157D058E0510
S11345409F0510F01092622B8091622B80932B2B8D
S113455080915D2B8823C9F08FB7F894C090592BB4
S1134560D0905A2BE0905B2BF0905C2B8FBF0E9475
S11345700F0E2AE0C20ED11CE11CF11C6C157D0546
S11345808E059F0510F010925D2BC0915D2BC0939A
S11345902C2B992044F0E92DEE0FFF0BEC52F44D37
S11345A04081518102C040E050E840931C2B50935D
S11345B01D2BAA204CF0EA2DEE0FFF0BEC52F44D0C
S11345C00190F081E02D02C0E0E0F0E8E0931E2BC2
S11345D0F0931F2BBB2044F0AB2DAA0FBB0BAC52A6
S11345E0B44D2D913C9102C020E030E82093202B63
S11345F03093212B411560E8560741F0E11570E82E
S1134600F70721F0211580E8380721F482E0809330
S1134610192B03C081E08093192B6091AF2870910E
S1134620B0288091712B9091722B6817790708F04C
S1134630B9C09091482B80912A2B9813B3C09091C4
S1134640492B80912B2B9813ADC080914A2BC81312
S1134650A9C0411560E8560709F180913A2B909161
S11346603B2B841B950BAA2797FDA095BA2FBB2340
S11346703CF4B095A095909581959F4FAF4FBF4F57
S113468040918E2B50918F2B662757FD6095762F86
S113469084179507A607B7070CF084C0E11570E8E6
S11346A0F70709F180913C2B90913D2B8E1B9F0BBA
S11346B0AA2797FDA095BA2FBB233CF4B095A095EB
S11346C0909581959F4FAF4FBF4F40918E2B509146
S11346D08F2B662757FD6095762F84179507A607BD
S11346E0B7070CF05FC0211580E8380701F180910D
S11346F03E2B90913F2B821B930BAA2797FDA095ED
S1134700BA2FBB233CF4B095A095909581959F4F0B
S1134710AF4FBF4F40918E2B50918F2B662757FD83
S11347206095762F84179507A607B707DCF580E018
S113473017DCC090402BD090412BE090422BF0909E
S1134740432BAB01BC014C195D096E097F098091B3
S1134750942B9091952BA091962BB091972B481761
S113476059076A077B07F0F481E0FADBC090442B19
S1134770D090452BE090462BF090472BAB01BC0129
S11347804C195D096E097F098091902B9091912BB2
S1134790A091922BB091932B481759076A077B0776
S11347A008F43FC08091142B90E09C012F5F3F4F91
S11347B02F703078F22E4091132B241306C02F5FF4
S11347C03F4F2F7033272093132B1092AF28109252
S11347D0B0281EE1189FE001199FD00D1124DE01BD
S11347E0AD5CB64D8EE1E5E1FBE201900D928A9558
S11347F0E1F70E940F0ECD5CD64D688379838A83DE
S11348009B83C4E1DBE2E8811E9FF0011124ED5C8F
S1134810F64D8EE1A3E3BBE201900D928A95E1F798
S1134820F88240911C2B50911D2B411520E8520712
S113483009F454C08091AA2B9091AB2B48175907C7
S1134840C4F020911A2B30911B2B2230310589F0B2
S11348508091A82B882331F0662757FD6095762F29
S113486084E6F9DD82E090E080931A2B90931B2B71
S113487035C02091AC2B3091AD2B24173507C4F0F3
S113488060911A2B70911B2B63307105C1F08091DC
S1134890A92B882331F0662757FD6095762F85E68E
S11348A0DADD83E090E080931A2B90931B2B16C0E3
S11348B060911A2B70911B2B6130710579F0205F88
S11348C03F4F2417350754F440974817590734F4D9
S11348D081E090E080931A2B90931B2B0E940F0E83
S11348E06B017C01605E734E8F4F9F4F20E831E572
S11348F041E050E00E945E3524E833E040E050E0BF
S11349000E945E35C22FC295C695C7702F71812C47
S1134910912C5401839404C0880C991CAA1CBB1CC0
S11349202A95D2F7C701B6017ADB882369F0EC2F08
S1134930F0E0EE0FFF1FEE0FFF1FE654F44D8081F1
S11349409181A281B3810CC0EC2FF0E0EE0FFF1F28
S1134950EE0FFF1FEA53F44D80819181A281B38150
S113496088229922AA22BB2289288A288B2881F0AE
S113497080912C2B882371F080912D2B81110AC0FA
S113498081E080932D2B60E070E088E734DD02C085
S113499010922D2BE0E6F6E0808583FF03C0109291
S11349A02E2B20C040912F2B5091302B6091312B16
S11349B07091322B8091222B9091232BA091242B48
S11349C0B091252B481759076A077B0759F0809146
S11349D02E2B811107C060E070E082E80CDD81E0DD
S11349E080932E2B8091A62B9091A72B813091053B
S11349F039F020F0029709F07DC011C0F6DA7AC0D0
S1134A0020911C2B30911D2B8091AA2B9091AB2BC4
S1134A102817390714F4E4DA6DC0E7DA6BC00E9492
S1134A200F0E6B017C01605E734E8F4F9F4F20E829
S1134A3031E541E050E00E945E3524E833E040E097
S1134A4050E00E945E35C22FC295C695C7702F7183
S1134A5081E090E0A0E0B0E04C015D0104C0880C6E
S1134A60991CAA1CBB1C2A95D2F7C701B601D7DA38
S1134A70882369F0EC2FF0E0EE0FFF1FEE0FFF1F0D
S1134A80E856F44D80819181A281B3810CC0EC2F52
S1134A90F0E0EE0FFF1FEE0FFF1FE255F44D808193
S1134AA09181A281B38188229922AA22BB228928DA
S1134AB08A288B28F1F080911C2B90911D2B20913A
S1134AC0A42B3091A52B40918E2B50918F2BB901A3
S1134AD0641B750B681779073CF08115904811F039
S1134AE07FDA08C082DA06C0821793071CF07DDAE9
S1134AF001C07BDADF91CF911F91FF90EF90DF909F
S1134B00CF90BF90AF909F908F900895E0E4F6E02F
S1134B10908592FB992790F9E4E6FBE28081880F67
S1134B20892B877080839091632B911123C08730E8
S1134B3029F521E02093632BE2E2FBE2808191815D
S1134B40A281B3810196A11DB11D80839183A283AB
S1134B50B3832093622B0E940F0E60935E2B70939D
S1134B605F2B8093602B9093612B88E0E0E2F6E06A
S1134B70878304C0811102C01092632BE0E6F6E043
S1134B80908592FB992790F9E6E6FBE28081880FF5
S1134B90892B877080839091652B911123C0873076
S1134BA029F521E02093652BE6E2FBE280819181E7
S1134BB0A281B3810196A11DB11D80839183A2833B
S1134BC0B38320935D2B0E940F0E6093592B709337
S1134BD05A2B80935B2B90935C2B80E2E0E0F6E011
S1134BE087830895811102C01092652B08952F9236
S1134BF03F924F925F926F927F928F929F92AF9269
S1134C00BF92CF92DF92EF92FF920F931F93CF93B5
S1134C10DF9300D01F92CDB7DEB72B013C016A01B0
S1134C20822E61EF71E2CA010E94C636282F392F05
S1134C30232B09F0FBC381E08093AA288093AB283F
S1134C40882009F4DDC3780184E0E80EF11C1982A0
S1134C50912C0F2EFEE82F2EFBE23F2EF02D0F2E6F
S1134C60F1E7AF2EFBE2BF2EF02D0A831B83EA810E
S1134C70FB810081118160E072E2C8010E94C636A6
S1134C80282F392F232B91F5EA81FB81828193818F
S1134C90892B61F5F7014081518162817381F501AE
S1134CA080819181A0E0B0E084179507A607B7073B
S1134CB009F494C34C33510538F48CE390E08083B9
S1134CC0918391E099838AC34830E7E05E0730F42A
S1134CD0F50140835183F1E0F98380C388E097E0D4
S1134CE0F5018083918391E0998378C364E072E253
S1134CF0C8010E94C636282F392F232BA9F5EA8133
S1134D00FB8182819381892B79F5F701408151815F
S1134D1062817381F10180819181AA2797FDA09519
S1134D20BA2F8A019B01000F111F221F331F000F8E
S1134D30111F221F331F000F111F221F331F000FCB
S1134D40111F221F331F80179107A207B30709F40D
S1134D5045C342955295507F5427407F5427408342
S1134D605183F1E0F9833AC36CE072E2C8010E9416
S1134D70C636282F392F232BF1F4EA81FB81828157
S1134D809381892BC1F4F70180819181A281B38140
S1134D90E4E9FBE24081518162817381481759073C
S1134DA06A077B0709F41AC380839183A283B383C0
S1134DB0F1E0F98313C361E172E2C8010E94C636CF
S1134DC0282F392F232BF1F4EA81FB8182819381EF
S1134DD0892BC1F4F70180819181A281B381E0E93B
S1134DE0FBE24081518162817381481759076A0748
S1134DF07B0709F4F3C280839183A283B383F1E038
S1134E00F983ECC266E172E2C8010E94C636282F1B
S1134E10392F232BF1F4EA81FB8182819381892B41
S1134E20C1F4F70180819181A281B381E8E9FBE2B9
S1134E304081518162817381481759076A077B0752
S1134E4009F4CCC280839183A283B383F1E0F98314
S1134E50C5C26AE172E2C8010E94C636282F392F02
S1134E60232BF1F4EA81FB8182819381892BC1F4A4
S1134E70F70180819181A281B381ECE9FBE2408159
S1134E80518162817381481759076A077B0709F4C6
S1134E90A5C280839183A283B383F1E0F9839EC288
S1134EA06EE172E2C8010E94C636282F392F232BE7
S1134EB0F1F4EA81FB8182819381892BC1F4F701AA
S1134EC080819181A281B381E0EAFBE2408151813A
S1134ED062817381481759076A077B0709F47EC208
S1134EE080839183A283B383F1E0F98377C262E282
S1134EF072E2C8010E94C636282F392F232BF1F401
S1134F00EA81FB8182819381892BC1F4F70180813D
S1134F109181A281B381EEEAFBE2408151816281F9
S1134F207381481759076A077B0709F457C28083BE
S1134F309183A283B383F1E0F98350C268E272E201
S1134F40C8010E94C636282F392F232BF1F4EA8199
S1134F50FB8182819381892BC1F4F7018081918146
S1134F60A281B381E2EBFBE24081518162817381D2
S1134F70481759076A077B0709F430C28083918375
S1134F80A283B383F1E0F98329C26EE272E2C8011D
S1134F900E94C636282F392F232BF1F4EA81FB8196
S1134FA082819381892BC1F4F70180819181A2814F
S1134FB0B381E6EBFBE24081518162817381481742
S1134FC059076A077B0709F409C280839183A28386
S1134FD0B383F1E0F98302C264E372E2C8010E9480
S1134FE0C636282F392F232BF1F4EA81FB818281E5
S1134FF09381892BC1F4F70180819181A281B381CE
S1135000EAEBFBE2408151816281738148175907C1
S11350106A077B0709F4E2C180839183A283B38387
S1135020F1E0F983DBC16AE372E2C8010E94C6368B
S1135030282F392F232BF1F4EA81FB81828193817C
S1135040892BC1F4F70180819181A281B381EEEBB8
S1135050FBE24081518162817381481759076A07D5
S11350607B0709F4BBC180839183A283B383F1E0FE
S1135070F983B4C160E472E2C8010E94C636282FE5
S1135080392F232BF1F4EA81FB8182819381892BCF
S1135090C1F4F70180819181A281B381E2ECFBE24A
S11350A04081518162817381481759076A077B07E0
S11350B009F494C180839183A283B383F1E0F983DB
S11350C08DC166E472E2C8010E94C636282F392FCA
S11350D0232BF1F4EA81FB8182819381892BC1F432
S11350E0F70180819181A281B381E6ECFBE24081EA
S11350F0518162817381481759076A077B0709F454
S11351006DC180839183A283B383F1E0F98366C187
S11351106CE472E2C8010E94C636282F392F232B73
S1135120F1F4EA81FB8182819381892BC1F4F70137
S113513080819181A281B381EAECFBE240815181BB
S113514062817381481759076A077B0709F446C1CE
S113515080839183A283B383F1E0F9833FC162E545
S113516072E2C8010E94C636282F392F232BF1F48E
S1135170EA81FB8182819381892BC1F4F7018081CB
S11351809181A281B381EEECFBE240815181628185
S11351907381481759076A077B0709F41FC1808385
S11351A09183A283B383F1E0F98318C168E572E2C5
S11351B0C8010E94C636282F392F232BB1F5EA8166
S11351C0FB8182819381892B81F5F7014081518193
S11351D062817381E4EAFBE280819181AA2797FDD1
S11351E0A095BA2F8A019B01000F111F221F331FA4
S11351F0000F111F221F331F000F111F221F331F07
S1135200000F111F221F331F80179107A207B30736
S113521009F4E4C042955295507F5427407F5427A7
S113522040835183F1E0F983D9C060E672E2C8019A
S11352300E94C636282F392F232BE1F4EA81FB8103
S113524082819381892BB1F4F7014081518162817C
S11352507381E6EAFBE280819181A0E0B0E08417EB
S11352609507A607B70709F4B9C040835183F1E055
S1135270F983B4C064E672E2C8010E94C636282FDE
S1135280392F232B91F4EA81FB8182819381029748
S113529061F4F7018081E8EAFBE29081981709F450
S11352A09DC08083F1E0F98399C06AE672E2C80187
S11352B00E94C636282F392F232B91F4EA81FB81D3
S11352C082819381029761F4F7018081E9EAFBE22C
S11352D09081981709F482C08083F1E0F9837EC03D
S11352E060E772E2C8010E94C636282F392F232BAB
S11352F0B1F5EA81FB8182819381892B81F5F701E4
S11353004081518162817381EAEAFBE2808191816B
S1135310AA2797FDA095BA2F8A019B01000F111FA0
S1135320221F331F000F111F221F331F000F111FD5
S1135330221F331F000F111F221F331F80179107D5
S1135340A207B30709F44AC042955295507F5427E7
S1135350407F542740835183F1E0F9833FC069E7DC
S113536072E2C8010E94C636282F392F232B09F078
S113537053C0EA81FB8182819381892B09F04CC05F
S1135380F7014081518162817381ECEAFBE2808103
S11353909181AA2797FDA095BA2F8A019B01000F3E
S11353A0111F221F331F000F111F221F331F000F55
S11353B0111F221F331F000F111F221F331F8017BD
S11353C09107A207B30751F042955295507F542795
S11353D0407F542740835183F1E0F98393948A8179
S11353E09B8108968A839B8398E0E90EF11C9810B0
S11353F03ECC18C00E9457211092AF281092B028BA
S1135400A3019201B60181E00E941A09882321F0C8
S11354101092AD281092AE2881E08093AA28809340
S1135420AB2804C0E981EE2359F3E4CF2396CDBF22
S1135430DEBFDF91CF911F910F91FF90EF90DF902E
S1135440CF90BF90AF909F908F907F906F905F9020
S11354504F903F902F9008950E947521F89461E039
S113546089E790E00E94A414FFCF2F923F924F92BD
S11354705F926F927F928F929F92AF92BF92CF92E0
S1135480DF92EF92FF920F931F93CF93DF9300D09D
S113549000D0CDB7DEB74B015C016A01390162E887
S11354A072E2C9010E94C636282F392F232B19F521
S11354B0A5019401B60181E00E941A0985E00E94C9
S11354C09D1F68E270E085E00E94721F04C081E6BF
S11354D092E20E94590885E00E94781F8823B9F35C
S11354E0F7018281882331F062EF74E080E090E07C
S11354F00E945309B1DF68E872E2C3010E94C63614
S1135500282F392F232BA1F5013009F0BDC1F70154
S113551080819181892B09F0B7C11281012F10FF7D
S11355200CC040E050E0BA0180E00E94D01F40E08F
S113553050E0BA0180E00E94E01F11FF0CC040E07F
S113554050E0BA0181E00E94D01F40E050E0BA016F
S113555081E00E94E01F002321F00E9475210E9437
S1135560E220A5019401B60181E00E941A0992C1CA
S11355706AE872E2C3010E94C636282F392F232B12
S113558071F5023009F080C1F70180819181892B86
S113559009F07AC186819781892B09F075C18281CE
S11355A0982F9150923008F06FC1192F4084518484
S11355B062847384B301A201892F0E94D01FB301B6
S11355C0A201812F0E94E01F0E9475210E94E22007
S11355D0A5019401B60181E00E941A095BC16CE93E
S11355E072E2C3010E94C636282F392F232B09F0FB
S11355F041C0A5019401B60181E00E941A0985E029
S11356000E949D1F68E270E085E00E94721F04C042
S113561081E692E20E94590885E00E94781F88235F
S1135620B9F3F8940E94B315E0ECF1E08785882380
S1135630ECF31092222B1092232B1092242B109215
S1135640252B1092262B1092272B1092282B109288
S1135650292B1092512B1092522B1092532B1092F3
S1135660542B1092552B1092562B1092572B1092AC
S1135670582BF2DE6BEA72E2C3010E94C636282F71
S1135680392F232B09F000C1033009F0FDC0F701C5
S113569080819181019709F0F7C0868197810197F4
S11356A009F0F2C084859585019709F0EDC0328137
S11356B02381E32FF22FDF010D900020E9F7CD01C4
S11356C041978E179F0709F0DFC0F7015085418588
S11356D0E52FF42FDF010D900020E9F7CD0141976C
S11356E08E179F0709F0D0C0F70176856785E72FED
S11356F0F62FDF010D900020E9F7CD0141978E17B9
S11357009F0709F0C1C0032F122F272E362E652EB6
S1135710742E6894552454F8F80181918F010E94E5
S1135720D120882309F4B0C0F30181913F010E9484
S1135730D120882309F4A8C0F10181911F010E949E
S1135740D120882309F4A0C05A9431F71092732B06
S113575010927C2B1092852B04E71BE20F2EFDE7A1
S11357606F2EFBE27F2EF02D26E83BE229833A835D
S11357701B821C820F2EF5E82F2EFBE23F2EF02D0C
S1135780F701828193812B813C81820F931F0E94B8
S1135790BF20582EF80181938F01F70180859185F0
S11357A02B813C81820F931F0E94BF20482EF3015E
S11357B081933F01F701868597852B813C81820F78
S11357C0931F0E94BF20E981FA818193E983FA83C0
S11357D0E3E7FBE29081911108C021E030E0FFEFA4
S11357E05F1205C020E030E002C021E030E021700B
S11357F0E3E7FBE22083ECE7FBE29081911108C030
S113580021E030E0FFEF4F1205C020E030E002C09D
S113581021E030E02170ECE7FBE22083F10190818C
S1135820911108C021E030E08F3F11F420E030E016
S1135830C90102C081E090E08170F10180832B8175
S11358403C812E5F3F4F2B833C832031310509F08F
S113585097CF0E945721A5019401B60181E00E94CF
S11358601A0985E00E949D1F60E570E085E00E94B2
S1135870721F04C081E692E20E94590885E00E94EA
S1135880781F8823B9F3E8DDA5019401B60180E00F
S11358900E941A092496CDBFDEBFDF91CF911F91DC
S11358A00F91FF90EF90DF90CF90BF90AF909F90BB
S11358B08F907F906F905F904F903F902F900895BE
S11358C01F920F920FB60F9211248F93EF93FF93B1
S11358D081E0E0E6F6E08487FF91EF918F910F90ED
S11358E00FBE0F901F9018951F920F920FB60F9234
S11358F011248F93EF93FF9381E0E0E4F6E0848733
S1135900FF91EF918F910F900FBE0F901F901895FC
S11359101F920F920FB60F9211248F93EF93FF9360
S113592081E0E0E2F6E08487FF91EF918F910F90A0
S11359300FBE0F901F9018951F920F920FB60F92E3
S113594011248F93EF93FF9381E0E0E0F6E08487E6
S1135950FF91EF918F910F900FBE0F901F901895AC
S1135960CF93DF93CDB7DEB7C058D109CDBFDEBF2B
S1135970E0EAF0E087E0828382830E941F140E94A1
S11359803B1F0E94B9131092852D1092862D109200
S1135990872D1092882D1092892D81E080938A2D75
S11359A0789480E098E00E94B71A63E27EE080E099
S11359B098E00E94071BE0E0F8E08181887F818302
S11359C082E19AE786A397A386818C7F868386816A
S11359D0826086838081807F8760808380E099E015
S11359E00E94B71A66E875E280E099E00E94071BFE
S11359F0E0E0F9E08181887F81838CE990E086A3EF
S1135A0097A386818C7F8683868183608683808149
S1135A10807F876080830E94EF1181E090E00E9484
S1135A20E61164ED70E080E090E00E94581388ED88
S1135A3092E20E94441362E070E080E090E00E94F1
S1135A40581380E090E00E94521300E71BE283E6C3
S1135A50D8011D928A95E9F743E650E0B80180E643
S1135A6090E00E94AA14F8018081823021F08330F2
S1135A7009F0DFC0D4C06FE380E79BE20E94C20C50
S1135A808111D7C08091982B9091992BA0919A2B3A
S1135A90B0919B2B8093AE2B9093AF2BA093B02B04
S1135AA0B093B12B1092BA2B1092BB2B1092BC2B3B
S1135AB01092BD2B1092C62B1092C72B1092C82B9C
S1135AC01092C92B80919C2B90919D2BA0919E2B81
S1135AD0B0919F2B8093B22B9093B32BA093B42BB4
S1135AE0B093B52B1092BE2B1092BF2B1092C02BEB
S1135AF01092C12B1092CA2B1092CB2B1092CC2B4C
S1135B001092CD2B8091A02B9091A12BA091A22B30
S1135B10B091A32B8093B62B9093B72BA093B82B63
S1135B20B093B92B1092C22B1092C32B1092C42B9A
S1135B301092C52B1092CE2B1092CF2B1092D02BFB
S1135B401092D12B41E150E0BE016F5F7F4F8FE98E
S1135B5090E00E94AA1461E1CE0101960E94C20C59
S1135B60811135C089819A81AB81BC818F3F9F4F60
S1135B70AF4FBF4F21F419821A821B821C82898580
S1135B809A85AB85BC858F3F9F4FAF4FBF4F21F4A4
S1135B9019861A861B861C868D819E81AF81B885E5
S1135BA08F3F9F4FAF4FBF4F21F41D821E821F8234
S1135BB018868D859E85AF85B8898F3F9F4FAF4FDF
S1135BC0BF4F61F41D861E861F86188A07C0FE011A
S1135BD0319681E1DF011D928A95E9F749815A8165
S1135BE06B817C8180E00E94D01F4D815E816F813A
S1135BF0788581E00E94D01F49855A856B857C8514
S1135C0080E00E94E01F4D855E856F85788981E084
S1135C100E94E01F0E9457210E947521BFC063E6C5
S1135C2080E79BE20E94C20C811103C00E94E22023
S1135C30B5C043E650E06FEF70E080E79BE20E945E
S1135C40BF3683E08093702B88E592E08093712BBC
S1135C509093722B1092732B10927C2B1092852BA5
S1135C6080E190E080938E2B90938F2B88E290E0DC
S1135C70A0E0B0E08093902B9093912BA093922B73
S1135C80B093932B80EF90E0A0E0B0E08093942B4E
S1135C909093952BA093962BB093972B1092982BBF
S1135CA01092992B10929A2B10929B2B10929C2B52
S1135CB010929D2B10929E2B10929F2B1092A02B32
S1135CC01092A12B1092A22B1092A32B1092AE2B08
S1135CD01092AF2B1092B02B1092B12B1092B22BCA
