S02B00004945534D2D584D45474133324134552D2D49727269676174696F6E436F6E74726F6C6C65722E73722F
S1130000FDC0000018C100000C94641014C100006D
S113001012C1000010C100000EC100000CC100009C
S11300200AC1000008C100007EC5000095C500009B
S113003002C100000C94420B06C600002DC600004D
S113004054C600007BC60000A2C60000C9C600005A
S1130050F0C6000017C700003EC7000065C70000D7
S1130060EAC00000E8C00000E6C00000E4C00000F0
S113007002C1000034C1000028C10000DCC000003F
S1130080DAC00000D8C000000C947810D4C000007E
S1130090D2C00000D0C00000CEC00000CCC0000020
S11300A0CAC00000C8C00000C6C00000C4C0000030
S11300B0C2C00000C0C000000C94650B0C9457092A
S11300C00C9480090C94A9090C94D2090C94FB0992
S11300D00C94240AB0C00000AEC00000ACC0000004
S11300E0AAC00000A8C000009CC10000CEC100004E
S11300F0C2C10000A0C000009EC000009CC000005F
S11301000C94501098C000000C948C1094C0000003
S113011092C0000090C000008EC000008CC000009F
S11301208AC0000088C0000086C0000084C00000AF
S113013082C0000022C7000049C7000070C7000049
S113014097C70000BEC70000E5C700000C94B308C1
S11301500C94DC080C9405090C942E096CC0000066
S11301606AC0000068C0000066C0000064C00000EF
S113017062C0000060C000005EC000005CC00000FF
S11301805AC0000058C0000056C0000054C000000F
S113019052C0000050C000004EC000004CC000001F
S11301A04AC0000048C0000046C0000044C000002F
S11301B042C0000040C000003EC000003CC000003F
S11301C03AC0000038C0000036C0000034C000004F
S11301D032C0000030C000002EC000002CC000005F
S11301E02AC0000028C0000026C0000024C000006F
S11301F022C0000020C000001EC0000011241FBE49
S1130200CFEFDFE2DEBFCDBF13E2A0E0B0E2E4EF68
S1130210FCE302C005900D92AE39B107D9F725E28F
S1130220AEE9B3E201C01D92A93CB207E1F70E9416
S11302306A1C0C94781EE4CE862798E02CE880FF94
S113024003C08695822701C086959150C1F7089511
S11302501F93CF93DF93EC01162F1150662331F0D7
S113026080E06991E9DF1150E0F701C080E0DF919F
S1130270CF911F9108951F920F920FB60F921124E0
S11302802F938F939F93AF93BF93EF93FF932091FB
S1130290B008809130248F5F8F709091312498172B
S11302A041F0E0E3F4E2A081B0E0A056BC4D2C9311
S11302B08083FF91EF91BF91AF919F918F912F9187
S11302C00F900FBE0F901F9018951F920F920FB6AC
S11302D00F9211240F900FBE0F901F9018951F922C
S11302E00F920FB60F9211248F939F93AF93BF93E6
S11302F0EF93FF939091322480913324981306C096
S1130300E0EBF8E083818C7F83830EC0E3E3F4E2C7
S1130310A081B0E0A056BC4D50968C918093B0085B
S113032080818F5F8F778083FF91EF91BF91AF9131
S11303309F918F910F900FBE0F901F901895E0EB37
S1130340F8E093818295807F9F7C982B9383089516
S1130350CF93DF93CDB7DEB72997CDBFDEBF89E05A
S1130360E0E0F0E2DE01119601900D928A95E1F74A
S1130370109231241092302410923324109232249B
S1130380BE016F5F7F4F80EB98E00E949A0CE0EB18
S1130390F8E083818F7C83838381837F838383815C
S11303A08C7F816083832996CDBFDEBFDF91CF919F
S11303B00895FF920F931F93CF93DF93F82E68E075
S11303C070E081E00E94C80F02E314E2C3E3D4E2C8
S11303D002C00E941210F80190819F5F9F772881CC
S11303E0921799F0E2E3F4E2A081B0E0A056BC4D8C
S11303F05096FC929083E0EBF8E083818C7F8160DF
S1130400838381E00E94F10F06C081E00E94CC0F3B
S1130410882309F3DECFDF91CF911F910F91FF90D5
S113042008951F920F920FB60F9211242F938F935A
S11304309F93AF93BF93EF93FF932091A00A809172
S113044034258F5F8F7790913525981741F0E4E339
S1130450F5E2A081B0E0AC5CBB4D2C938083FF91AE
S1130460EF91BF91AF919F918F912F910F900FBEFC
S11304700F901F9018951F920F920FB60F92112490
S11304800F900FBE0F901F9018951F920F920FB6EA
S11304900F9211248F939F93AF93BF93EF93FF9386
S11304A09091362580913725981306C0E0EAFAE04A
S11304B083818C7F83830DC0E7E3F5E2A081B0E004
S11304C0AC54BB4D8C918093A00A80818F5F8F7751
S11304D08083FF91EF91BF91AF919F918F910F9086
S11304E00FBE0F901F901895E0EAFAE09381829571
S11304F0807F9F7C982B93830895CF93DF93CDB710
S1130500DEB72997CDBFDEBF89E0E9E0F0E2DE0186
S1130510119601900D928A95E1F71092352510926B
S113052034251092372510923625BE016F5F7F4F18
S113053080EA9AE00E949A0CE0EAFAE083818F7CD8
S113054083838381837F838383818C7F816083839F
S11305502996CDBFDEBFDF91CF91089590913525C7
S113056080913425981769F0E5E3F5E2A081B0E0C5
S1130570AC5CBB4D2C9180818F5F8F77808330E0A2
S113058002C02FEF3FEF822F932F0895209135253E
S11305909091342581E0291301C080E00895FF92F1
S11305A00F931F93CF93DF93F82E68E070E081E000
S11305B00E94C80F06E315E2C7E3D5E202C00E9419
S11305C01210F80190819F5F9F772881921791F014
S11305D0E6E3F5E2A081B0E0AC54BB4DFC9290831D
S11305E0E0EAFAE083818C7F8160838381E00E946A
S11305F0F10F06C081E00E94CC0F882311F3DFCFF6
S1130600DF91CF911F910F91FF900895CF93DF93C6
S1130610EC018881882329F02196CBDE8991811110
S1130620FCCFDF91CF910895009709F0EFDF82E1CD
S113063090E2ECCFCF92DF92EF92FF926B017C01BC
S11306408AE0C816D104E104F10458F0C701B601E8
S11306502AE030E040E050E00E94DB1DCA01B9010D
S1130660E9DFC701B6012AE030E040E050E00E9433
S1130670DB1D862F805D9DDEFF90EF90DF90CF9095
S113068008956CCF0895CF93C82F89DF8C2F91DE06
S1130690CF910895CF93DF93EC018881882329F0CB
S11306A02196F1DF89918111FCCFDF91CF910895DB
S11306B043E050E068E080E296E0BDD043E050E0E3
S11306C060E280E096E0B7D043E050E068E080E884
S11306D096E0B1D040E050E064E080E896E0ABD032
S11306E043E050E068E080E896E0A5D040E050E0C8
S11306F064E080E896E09FD043E050E060E880E466
S113070096E099D040E050E060E480E496E093D035
S113071043E050E062E080E296E08DD043E050E0B8
S113072060E480E096E087D041E050E061E080E65C
S113073096E081D041E050E062E080E696E07BD034
S113074043E050E068E080E696E075D040E050E099
S113075064E080E496E06FD040E050E064E080E63E
S113076096E069D040E050E064E080E296E063D037
S113077040E050E064E080E096E05DC0CF93DF931A
S11307808FEF809370008093710080937200809348
S113079073008093740080937500809376008FB704
S11307A0F894E0E5F0E09081926090838FBF8181BE
S11307B081FFFDCF8FB7F894E0E5F0E0908194607D
S11307C090838FBF818182FFFDCF8FB7F894C0E5FE
S11307D0D0E09E81997F9E839E819E83E0E6F0E037
S11307E09081916090838FBF61E080E490E04BD072
S11307F08FB7F89498819E7F98838FBF8FB7F894B2
S11308009881946098838FBFE0E5F0E0818182FF56
S1130810FDCF85E0E0E4F0E08383DF91CF9108959C
S11308202FB7F894FC01E059FF4F6095808168234D
S113083060832FBF0895CF93DF93FC01709620E06F
S113084030E0C62FD0E0DE01022E02C0B595A79598
S11308500A94E2F7A0FD50832F5F3F4F3196283072
S1130860310589F740FF0AC041FF03C0FC016583DD
S113087002C0FC016683FC01618302C0FC01628347
S1130880DF91CF9108951BBEFC0128ED24BF608346
S11308900895E0ECF1E027852223ECF3ECECF1E0A1
S11308A0208128602083DC01B05F8C919081977F48
S11308B090830895E0ECF1E087858823ECF3E0EC85
S11308C0F1E0878581FF06C086E3828761E08BECD7
S11308D091E0D9CF0895E0ECF1E097859923ECF30A
S11308E0ECECF1E0908198609083A82FB0E0B05FC9
S11308F06C938081877F80830895FF920F931F9369
S1130900CF93DF93182FF92EC62FE0ECF1E0028588
S1130910D1DFE0ECF1E027852223ECF36C2F812F6B
S1130920DADFC0ECD1E01A82F982188385E38A8782
S113093061E08BEC91E0A7DF0A87DF91CF911F91F3
S11309400F91FF900895EF92FF920F931F93CF930F
S1130950DF938C01E0ECF1E087858823ECF37801E8
S113096080E2E80EF11CE8018C2F801B6991B3DF53
S1130970CE15DF05C9F7DF91CF911F910F91FF903D
S1130980EF9008951F93CF93DF93E0ECF1E0978508
S11309909923ECF320E2829FC0011124C0ECD1E042
S11309A01A82998388831A8585E38A8761E08BECB0
S11309B091E069DF1A87DF91CF911F910895CF925B
S11309C0DF92EF92FF920F931F93CF93DF93EC018B
S11309D07B018A014115510551F1CE018F7199278F
S11309E0892BB1F40032110598F0C701ACDFCE01B8
S11309F096958795929582958F7089279F70892700
S1130A00C1DFA09680E2E80EF11C005211090CC06F
S1130A106E01EFEFCE1ADE0AF70161917F01CE017C
S1130A206CDF01501109E60101151105B1F6DF91E2
S1130A30CF911F910F91FF90EF90DF90CF90089589
S1130A4010920004E0E0F4E0218120FDFDCFE0E01D
S1130A50F4E0608771878093C1259093C22587E075
S1130A60808308950F931F93E0E0F4E0818180FD7B
S1130A70FDCF2FB7F8940091C1251091C225E0E075
S1130A80F4E080859185009729F4338130FF02C01A
S1130A900F5F1F4F2FBF20E030E098011127002780
S1130AA0A0E0B0E0082B192B2A2B3B2B602F712FD1
S1130AB0822F932F1F910F910895E0E0F4E021E03D
S1130AC02283648775876093C5257093C6258093B8
S1130AD0C3259093C425818180FDFDCFE0E0F4E03F
S1130AE082E0838385E0828308958093C725909371
S1130AF0C825089564E080E090E092DEE0E0F4E050
S1130B008FEF9FEF82879387108611868FB7F894B3
S1130B10AEEBB5E29C919F5F9C938FBF81E0828393
S1130B2087E0808308951F920F920FB60F921124CD
S1130B308F939F93EF93FF93E1ECF5E28081918192
S1130B40019680839183FF91EF919F918F910F90F4
S1130B500FBE0F901F9018951F920F920FB60F9211
S1130B601124CF92DF92EF92FF920F931F932F9352
S1130B703F934F935F936F937F938F939F93AF9321
S1130B80BF93EF93FF934091C1255091C22580916B
S1130B90C3259091C42548175907F0F181E0E0E09E
S1130BA0F4E08283E091C725F091C8253097A1F144
S1130BB0A0E0B4E018968D919C91199760E070E0E4
S1130BC0BA0155274427A0E0B0E08A019B01082B15
S1130BD0192B2A2B3B2BC901B8010091C325109175
S1130BE0C42520E030E0980111270027C090C525D6
S1130BF0D090C625E12CF12C0C291D292E293F2942
S1130C00061717072807390730F0C901B8016F5FC5
S1130C107F4F8F4F9F4F0995FF91EF91BF91AF91F8
S1130C209F918F917F916F915F914F913F912F9100
S1130C301F910F91FF90EF90DF90CF900F900FBE18
S1130C400F901F9018951F920F920FB60F921124B8
S1130C502F933F934F935F936F937F938F939F93C0
S1130C60AF93BF93EF93FF93E0913825F09139252B
S1130C70309709F00995FF91EF91BF91AF919F9142
S1130C808F917F916F915F914F913F912F910F9031
S1130C900FBE0F901F9018951F920F920FB60F92D0
S1130CA011242F933F934F935F936F937F938F936D
S1130CB09F93AF93BF93EF93FF93E0913A25F09105
S1130CC03B25309709F00995FF91EF91BF91AF91C2
S1130CD09F918F917F916F915F914F913F912F9150
S1130CE00F900FBE0F901F9018951F920F920FB682
S1130CF00F9211242F933F934F935F936F937F939E
S1130D008F939F93AF93BF93EF93FF93E0913C2511
S1130D10F0913D25309709F00995FF91EF91BF912E
S1130D20AF919F918F917F916F915F914F913F917F
S1130D302F910F900FBE0F901F9018951F920F9236
S1130D400FB60F9211242F933F934F935F936F939A
S1130D507F938F939F93AF93BF93EF93FF93E09110
S1130D603E25F0913F25309709F00995FF91EF91C9
S1130D70BF91AF919F918F917F916F915F914F91AF
S1130D803F912F910F900FBE0F901F9018951F92B7
S1130D900F920FB60F9211242F933F934F935F93AB
S1130DA06F937F938F939F93AF93BF93EF93FF932F
S1130DB0E0914025F0914125309709F00995FF9184
S1130DC0EF91BF91AF919F918F917F916F915F91BF
S1130DD04F913F912F910F900FBE0F901F90189538
S1130DE01F920F920FB60F9211242F933F934F939C
S1130DF05F936F937F938F939F93AF93BF93EF937F
S1130E00FF93E0914225F0914325309709F009952D
S1130E10FF91EF91BF91AF919F918F917F916F91CE
S1130E205F914F913F912F910F900FBE0F901F90A4
S1130E3018951F920F920FB60F9211242F933F9380
S1130E404F935F936F937F938F939F93AF93BF93CE
S1130E50EF93FF93E0914425F0914525309709F0F5
S1130E600995FF91EF91BF91AF919F918F917F91E0
S1130E706F915F914F913F912F910F900FBE0F9003
S1130E801F9018951F920F920FB60F9211242F9353
S1130E903F934F935F936F937F938F939F93AF93FE
S1130EA0BF93EF93FF93E0914625F0914725309748
S1130EB009F00995FF91EF91BF91AF919F918F91A7
S1130EC07F916F915F914F913F912F910F900FBE42
S1130ED00F901F9018951F920F920FB60F92112426
S1130EE02F933F934F935F936F937F938F939F932E
S1130EF0AF93BF93EF93FF93E0914825F091492579
S1130F00309709F00995FF91EF91BF91AF919F91AF
S1130F108F917F916F915F914F913F912F910F909E
S1130F200FBE0F901F9018951F920F920FB60F923D
S1130F3011242F933F934F935F936F937F938F93DA
S1130F409F93AF93BF93EF93FF93E0914A25F09162
S1130F504B25309709F00995FF91EF91BF91AF911F
S1130F609F918F917F916F915F914F913F912F91BD
S1130F700F900FBE0F901F9018951F920F920FB6EF
S1130F800F9211242F933F934F935F936F937F930B
S1130F908F939F93AF93BF93EF93FF93E0914C256F
S1130FA0F0914D25309709F00995FF91EF91BF918C
S1130FB0AF919F918F917F916F915F914F913F91ED
S1130FC02F910F900FBE0F901F9018951F920F92A4
S1130FD00FB60F9211242F933F934F935F936F9308
S1130FE07F938F939F93AF93BF93EF93FF93E0917E
S1130FF04E25F0914F25309709F00995FF91EF9117
S1131000BF91AF919F918F917F916F915F914F911C
S11310103F912F910F900FBE0F901F9018951F9224
S11310200F920FB60F9211242F933F934F935F9318
S11310306F937F938F939F93AF93BF93EF93FF939C
S1131040E0915025F0915125309709F00995FF91D1
S1131050EF91BF91AF919F918F917F916F915F912C
S11310604F913F912F910F900FBE0F901F901895A5
S11310701F920F920FB60F9211242F933F934F9309
S11310805F936F937F938F939F93AF93BF93EF93EC
S1131090FF93E0915225F0915325309709F009957B
S11310A0FF91EF91BF91AF919F918F917F916F913C
S11310B05F914F913F912F910F900FBE0F901F9012
S11310C018951F920F920FB60F9211242F933F93EE
S11310D04F935F936F937F938F939F93AF93BF933C
S11310E0EF93FF93E0915425F0915525309709F043
S11310F00995FF91EF91BF91AF919F918F917F914E
S11311006F915F914F913F912F910F900FBE0F9070
S11311101F9018951F920F920FB60F9211242F93C0
S11311203F934F935F936F937F938F939F93AF936B
S1131130BF93EF93FF93E0915625F0915725309795
S113114009F00995FF91EF91BF91AF919F918F9114
S11311507F916F915F914F913F912F910F900FBEAF
S11311600F901F9018951F920F920FB60F92112493
S11311702F933F934F935F936F937F938F939F939B
S1131180AF93BF93EF93FF93E0915825F0915925C6
S1131190309709F00995FF91EF91BF91AF919F911D
S11311A08F917F916F915F914F913F912F910F900C
S11311B00FBE0F901F9018951F920F920FB60F92AB
S11311C011242F933F934F935F936F937F938F9348
S11311D09F93AF93BF93EF93FF93E0915A25F091C0
S11311E05B25309709F00995FF91EF91BF91AF917D
S11311F09F918F917F916F915F914F913F912F912B
S11312000F900FBE0F901F9018951F920F920FB65C
S11312100F9211242F933F934F935F936F937F9378
S11312208F939F93AF93BF93EF93FF93E0915C25CC
S1131230F0915D25309709F00995FF91EF91BF91E9
S1131240AF919F918F917F916F915F914F913F915A
S11312502F910F900FBE0F901F9018951F920F9211
S11312600FB60F9211242F933F934F935F936F9375
S11312707F938F939F93AF93BF93EF93FF93E091EB
S11312805E25F0915F25309709F00995FF91EF9164
S1131290BF91AF919F918F917F916F915F914F918A
S11312A03F912F910F900FBE0F901F9018951F9292
S11312B00F920FB60F9211242F933F934F935F9386
S11312C06F937F938F939F93AF93BF93EF93FF930A
S11312D0E0916025F0916125309709F00995FF911F
S11312E0EF91BF91AF919F918F917F916F915F919A
S11312F04F913F912F910F900FBE0F901F90189513
S11313001F920F920FB60F9211242F933F934F9376
S11313105F936F937F938F939F93AF93BF93EF9359
S1131320FF93E0916225F0916325309709F00995C8
S1131330FF91EF91BF91AF919F918F917F916F91A9
S11313405F914F913F912F910F900FBE0F901F907F
S113135018951F920F920FB60F9211242F933F935B
S11313604F935F936F937F938F939F93AF93BF93A9
S1131370EF93FF93E0916425F0916525309709F090
S11313800995FF91EF91BF91AF919F918F917F91BB
S11313906F915F914F913F912F910F900FBE0F90DE
S11313A01F9018951F920F920FB60F9211242F932E
S11313B03F934F935F936F937F938F939F93AF93D9
S11313C0BF93EF93FF93E0916625F09167253097E3
S11313D009F00995FF91EF91BF91AF919F918F9182
S11313E07F916F915F914F913F912F910F900FBE1D
S11313F00F901F9018951F920F920FB60F92112401
S11314002F933F934F935F936F937F938F939F9308
S1131410AF93BF93EF93FF93E0916825F091692513
S1131420309709F00995FF91EF91BF91AF919F918A
S11314308F917F916F915F914F913F912F910F9079
S11314400FBE0F901F9018951F920F920FB60F9218
S113145011242F933F934F935F936F937F938F93B5
S11314609F93AF93BF93EF93FF93E0916A25F0911D
S11314706B25309709F00995FF91EF91BF91AF91DA
S11314809F918F917F916F915F914F913F912F9198
S11314900F900FBE0F901F901895CF93CFB7F8946D
S11314A0811528E0920749F461E083E090E0B8D91F
S11314B064E083E090E0B4D935C0803428E092073A
S11314C049F462E083E090E0ABD964E083E090E02B
S11314D0A7D928C0811529E0920749F461E084E086
S11314E090E09ED964E084E090E09AD91BC08034F7
S11314F029E0920749F462E084E090E091D964E045
S113150084E090E08DD90EC081159A4049F461E0E1
S113151085E090E085D964E085E090E081D902C05F
S1131520CFBF09C08FB7F894ECEBF5E290819F5FD1
S113153090838FBFCFBFCF910895CF93DF93E09176
S11315406C25F0916D25848183FF0BC088608483B2
S113155083E0838386EF9FEF8093762590937725AE
S11315608EC0982F947149F083E083838FEF9FEFAF
S1131570809376259093772582C086FF42C0A09100
S11315806E25B0916F2580917025909171251496E8
S11315902D913C911597821793075CF4A80FB91FFE
S11315A011962C9127830196809370259093712531
S11315B066C0809172259091732518962D913C9167
S11315C0199782179307B0F420917425222321F0F0
S11315D086818160868353C016960D90BC91A02DA0
S11315E0A80FB91F2C91278301968093722590939D
S11315F0732545C083E08383109276251092772566
S11316003EC08823B4F5A0916E25B0916F258091DA
S113161072259091732518962D913C9119978217F4
S11316209307F0F427811696CD91DC911797C80F94
S1131630D91F288301968093722590937325189659
S11316402D913C9119978217930718F482E08383B4
S113165016C087E0838310927625109277250FC0F9
S113166083E0838389EF9FEF80937625909377259A
S113167006C08BEF9FEF8093762590937725DF91BB
S1131680CF9108951F920F920FB60F9211242F93AA
S11316903F934F935F936F937F938F939F93AF93F6
S11316A0BF93EF93FF9349DFFF91EF91BF91AF9108
S11316B09F918F917F916F915F914F913F912F9166
S11316C00F900FBE0F901F9018951F920F920FB698
S11316D00F9211242F933F934F935F936F937F93B4
S11316E08F939F93AF93BF93EF93FF9326DFFF9165
S11316F0EF91BF91AF919F918F917F916F915F9186
S11317004F913F912F910F900FBE0F901F901895FE
S11317104F925F926F927F928F929F92AF92BF92FD
S1131720CF92DF92EF92FF920F931F93CF93DF93A9
S1131730EC014A015B0128013901D901C80168940F
S113174012F8B695A795979587951694D1F7B90190
S1131750A801032E36E176956795579547953A95F6
S1131760D1F7302D2C8122FD08C0B695A795979509
S11317708795769567955795479588159905AA0590
S1131780BB0508F4AEC084169506A606B70608F491
S1131790AAC08C8182FD04C0880C991CAA1CBB1CA5
S11317A0C301B201A50194010E94DB1D2F3F310545
S11317B04105510508F499C0C12CD12C7601CA9475
S11317C019EF05C02C153D054E055F0568F0CC0CDE
S11317D0DD1CEE1CFF1C1D3F14F46894C0F81F5F51
S11317E0173081F7212F54C0212F11230CF050C042
S11317F0D501C401880F991FAA1FBB1F880F991F09
S1131800AA1FBB1F880F991FAA1FBB1F481A590A7A
S11318106A0A7B0A1E3FF4F46DEF7FEF611B7109C6
S113182017FD739504C0440C551C661C771C6A95FF
S1131830D2F7D501C401B695A79597958795BC01B4
S1131840CD01640D751D861D971DA50194010E948F
S1131850DB1D3EC0212F332727FD30952D5F3F4FE1
S1131860D501C40104C0880F991FAA1FBB1F2A9564
S1131870D2F79C01AD01B695A79597958795BC01C4
S1131880CD01640D751D861D971D0E94DB1D20C0B2
S1131890332727FD30952D5F3F4FD501C40104C088
S11318A0880F991FAA1FBB1F2A95D2F79C01AD016F
S11318B0B695A79597958795BC01CD01640D751DC7
S11318C0861D971D0E94DB1D2150310941095109D4
S11318D0832F8F701295107F182B1F832E8381E026
S11318E018C080E016C080E014C0D501C401880F80
S11318F0991FAA1FBB1F880F991FAA1FBB1F880F00
S1131900991FAA1FBB1F481A590A6A0A7B0A19EFB2
S113191083CFDF91CF911F910F91FF90EF90DF90D4
S1131920CF90BF90AF909F908F907F906F905F907B
S11319304F9008950F931F93CF93DF93EC018B0186
S1131940009709F4EEC0803C910531F460E180E039
S113195090E00E941004E5C0C11584E0D80731F47A
S113196064E080E090E00E941004DBC0C038E1E055
S1131970DE0731F462E080E090E00E941004D1C000
S1131980C115F1E0DF0731F461E080E090E00E94EE
S11319901004C7C0C03883E0D80731F461E081E0A7
S11319A090E00E941004BDC0C115E2E0DE0731F4EE
S11319B062E081E090E00E941004B3C0C032F3E022
S11319C0DF0731F464E082E090E00E941004A9C0D3
S11319D0C11588E0D80731F461E083E090E00E940B
S11319E010049FC0C115E9E0DE0731F461E084E032
S11319F090E00E94100495C0C115FAE0DF0731F4AD
S1131A0061E085E090E00E9410048BC0C03488E05F
S1131A10D80731F462E083E090E00E94100481C0B2
S1131A20C034E9E0DE0731F462E084E090E00E9433
S1131A30100477C0C039F8E0DF0731F464E083E0D4
S1131A4090E00E9410046DC0C03989E0D80731F4D9
S1131A5064E084E090E00E94100463C0C039EAE0CE
S1131A60DE0731F464E085E090E00E94100459C080
S1131A70C03CF8E0DF0731F468E083E090E00E94C6
S1131A8010044FC0C03C89E0D80731F468E084E01A
S1131A9090E00E94100445C0C03AE8E0DE0731F44B
S1131AA060E183E090E00E9410043BC0C03AF9E09A
S1131AB0DF0731F460E184E090E00E94100431C05B
S1131AC0C03A8AE0D80731F460E185E090E00E94F2
S1131AD0100427C0C03BE8E0DE0731F460E283E095
S1131AE090E00E9410041DC0C03BF9E0DF0731F410
S1131AF060E284E090E00E94100413C0C03884E0E7
S1131B00D80731F460E483E090E00E94100409C037
S1131B10C03AE4E0DE0729F460E485E090E00E9446
S1131B2010048D818F738D83F80196818481892BB4
S1131B309085992311F098E001C090E0892B8D8362
S1131B40F801408151816281738100E018E428EE3C
S1131B5031E0CE01DDDD9C8198609C839C819061A5
S1131B609C83DF91CF911F910F910895CF92DF92C3
S1131B70EF92FF92CF93DF93EC016B01E12CF12CF8
S1131B8060E078E488EE91E0A70196010E94DB1DF5
S1131B90CA01B9012FEF3FEF40E050E00E94DB1D86
S1131BA02115310539F481E090E08E839F8321E093
S1131BB030E039C02230310538F482E090E08E8381
S1131BC09F8322E030E02FC02430310538F483E0D5
S1131BD090E08E839F8324E030E025C028303105D7
S1131BE038F484E090E08E839F8328E030E01BC0CB
S1131BF02034310538F485E090E08E839F8320E41F
S1131C0030E011C02F3F310509F038F486E090E050
S1131C108E839F8320E031E006C087E090E08E83CE
S1131C209F8320E034E040E050E060E078E488EE18
S1131C3091E00E94DB1DCA01B901A70196010E942F
S1131C40DB1D288739872436310520F41E821F8244
S1131C5018861986DF91CF91FF90EF90DF90CF9097
S1131C6008950F931F93CF93DF93EC0189016230A2
S1131C707105E1F140F46115710571F06130710590
S1131C8009F072C01EC06330710509F444C06430A9
S1131C90710509F069C054C080E098E08883998395
S1131CA0E0E4F6E0A0819A012150310961E070E09E
S1131CB0CB0102C0880F991F2A95E2F78A2B8083F3
S1131CC053C080E498E088839983E0E4F6E0A0813F
S1131CD09A012D5F3F4F61E070E0CB0102C0880F95
S1131CE0991F2A95E2F78A2B80833EC080E099E011
S1131CF088839983E0E6F6E0A0819A0121503109B6
S1131D0061E070E0CB0102C0880F991F2A95E2F7C9
S1131D108A2B808329C080E499E088839983E0E654
S1131D20F6E0A0819A012D5F3F4F61E070E0CB01A6
S1131D3002C0880F991F2A95E2F78A2B808314C06A
S1131D4080E09AE088839983E0E8F6E0A0819A0134
S1131D502150310961E070E0CB0102C0880F991F66
S1131D602A95E2F78A2B80834A835B8342305105AC
S1131D7089F020F441305105D9F407C043305105AE
S1131D8071F044305105A1F40FC080E190E08C83E0
S1131D909D830EC080E290E08C839D8309C080E423
S1131DA090E08C839D8304C080E890E08C839D83C5
S1131DB08881998172DBE881F9818181887F8360E0
S1131DC08183188619861E821F82E881F9818081A9
S1131DD0807F8083B801CE01C9DEDF91CF911F914E
S1131DE00F910895CF93DF93EC01A885B985262F31
S1131DF030E00E94FD1D24E630E040E050E00E9407
S1131E00DB1D8A819B81E881F981E6FD19C082305E
S1131E10910569F018F40197F1F406C08330910537
S1131E2049F00497C1F409C020AF31AF14C022AF08
S1131E3033AF11C024AF35AF0EC026AF37AF0BC0E0
S1131E408130910519F0029731F403C020AF31AF0E
S1131E5002C022AF33AF88859985E881F98186A3D2
S1131E6097A38C819D81E881F981E6FD04C091816D
S1131E70892B818305C0218180739927822B8183DB
S1131E80E881F9818081807F9E81892B8083DF9125
S1131E90CF910895CF93DF93C0917825D091992560
S1131EA0E9E7F5E280E090E061E070E02C2F30E0BB
S1131EB0082E02C0359527950A94E2F720FF1AC030
S1131EC0208131812150310920833183232B91F4E6
S1131ED09B01082E02C0220F331F0A94E2F7D22B73
S1131EE0428153814115510519F04083518302C049
S1131EF02095C2230196349688309105B9F6C09393
S1131F007825D093992560E070E0CB010E942005EC
S1131F1060E870E080E090E00E945D05DF91CF9181
S1131F2008950E947A058AE49FE00E94750560E0A6
S1131F3070E0CB010E94200560E870E080E090E052
S1131F400C945D05883018F5AFB7F894E82FF0E0ED
S1131F50EE0FFF1FEE0FFF1FE758FA4D408351832A
S1131F606283738321E030E0A90102C0440F551F4E
S1131F708A95E2F7CA0190917825982B9093782559
S1131F80809590919925892380939925AFBF0895D1
S1131F90AB0160E070E0D6CF8830F8F42091992549
S1131FA030E0082E02C0359527950A94E2F720FF09
S1131FB016C04FB7F89421E030E0B90102C0660FB3
S1131FC0771F8A95E2F7CB01809590919925892313
S1131FD0809399254FBF81E0089580E0089580E0C3
S1131FE008954FB7F89421E030E0B90102C0660FBC
S1131FF0771F8A95E2F7CB01809590917825892304
S1132000809378254FBF08958FB7F8948FBF60E011
S113201070E0CB0108958FB7F8948FBF60E070E053
S1132020CB010895CF93DF93CDB7DEB76197CDBFD2
S1132030DEBF80E0E9DF69837A838B839C8381E060
S1132040E3DF6D837E838F83988780E0E4DF698795
S11320507A878B879C8781E0DEDF6D877E878F8719
S1132060988B60E1CE0101960E942801898B41E1A1
S113207050E0BE016F5F7F4F83EC90E00E94DF046D
S1132080E0ECF1E087858823ECF382E893E20E9498
S11320901403F89461E089E790E00E944304FFCFC1
S11320A01F920F920FB60F9211248F93EF93FF9309
S11320B081E0E0E6F6E08487FF91EF918F910F9045
S11320C00FBE0F901F9018951F920F920FB60F928C
S11320D011248F93EF93FF9381E0E0E4F6E084878B
S11320E0FF91EF918F910F900FBE0F901F90189555
S11320F01F920F920FB60F9211248F93EF93FF93B9
S113210081E0E0E2F6E08487FF91EF918F910F90F8
S11321100FBE0F901F9018951F920F920FB60F923B
S113212011248F93EF93FF9381E0E0E0F6E084873E
S1132130FF91EF918F910F900FBE0F901F90189504
S1132140CF93DF93813079F08230C1F0811120C0C8
S1132150C0E0D0E06FEFCE010E947D042196C03133
S1132160D105C1F715C0CAE0D0E06FEFCE010E94DF
S11321707D042196C032D105C1F70AC0C4E1D0E084
S11321806FEFCE010E947D042196C033D105C1F7C3
S1132190DF91CF910895CF93DF93813079F082302E
S11321A0C1F0811120C0CEE1D0E06FEFCE010E94DA
S11321B07D042196C034D105C1F715C0C8E2D0E032
S11321C06FEFCE010E947D042196C035D105C1F781
S11321D00AC0C2E3D0E06FEFCE010E947D042196D5
S11321E0C036D105C1F7DF91CF910895CF93DF9326
S11321F0813079F08230C1F0811120C0CCE3D0E08D
S11322006FEFCE010E947D042196C037D105C1F73E
S113221015C0C6E4D0E06FEFCE010E947D04219684
S1132220C038D105C1F70AC0C0E5D0E06FEFCE01D8
S11322300E947D042196C039D105C1F7DF91CF9169
S11322400895CF92DF92EF92FF920F931F93CF9353
S1132250DF936C017B01C0E0D0E08C0101501109D7
S11322600E944103C017D10724F4F701EC0FFD1FAE
S1132270808321968D3011F08A3091F7EC0CFD1C8F
S1132280F70131971082DF91CF911F910F91FF9049
S1132290EF90DF90CF900895E62FF72F80E090E045
S11322A0119201968C339105D9F70895CF93DF935A
S11322B0CDB7DEB7EC97CDBFDEBF23E1E5E1F0E2B9
S11322C0DE01119601900D922A95E1F7BC01CE0131
S11322D001960E941C1ECE0101960E944A038AE0C8
S11322E00E9443038DE00E94430380E092E1AAE749
S11322F0B0E00197A109B109E1F7EC96CDBFDEBFCB
S1132300DF91CF9108950F931F93CF93DF93CDB7B0
S1132310DEB7A897CDBFDEBF162F042F81309105FD
S1132320F9F01CF4892B41F056C08230910561F11B
S1132330039709F050C03CC041E050E062E070E017
S1132340CE0101968EDC112329F0602FCE01019677
S113235049DD41C0E981FA818081807F80833BC06F
S113236042E050E062E070E0CE010B967ADC11238B
S113237029F0602FCE010B9635DD2DC0EB85FC8551
S11323808081807F808327C043E050E062E070E07A
S1132390CE01459666DC112329F0602FCE014596C7
S11323A021DD19C0ED89FE898081807F808313C07F
S11323B044E050E062E070E0CE014F9652DC11231D
S11323C029F0602FCE014F960DDD05C0EF8DF8A1E9
S11323D08081807F8083A896CDBFDEBFDF91CF91BF
S11323E01F910F9108952F923F924F925F926F9297
S11323F07F928F929F92AF92BF92CF92DF92EF9291
S1132400FF920F931F93CF93DF93CDB7DEB7289737
S1132410CDBFDEBF7C0168E270E20E94191E8C0110
S11324206CE270E2C7010E94371E892B09F49EC03A
S1132430D7015096FE013196CE0109962D91219334
S1132440E817F907D9F78F81992787FD9095C097E9
S1132450AA2797FDA095BA2F880F991FAA1FBB1F03
S11324606C017D01CC0CDD1CEE1CFF1CCC0CDD1CB6
S1132470EE1CFF1C8C0D9D1DAE1DBF1D48855527F0
S113248047FD509540535109662757FD6095762FB7
S11324906C017D01C40ED51EE61EF71E89819927A5
S11324A087FD9095C097AA2797FDA095BA2F880F0E
S11324B0991FAA1FBB1FAC01BD01440F551F661F06
S11324C0771F440F551F661F771F840F951FA61F84
S11324D0B71F4A81552747FD509540535109662738
S11324E057FD6095762F9A01AB01280F391F4A1FBB
S11324F05B1FA0E1BEE00E94091EC60ED71EE81EA7
S1132500F91E4C81552747FD5095405351096627C4
S113251057FD6095762F440F551F661F771FDB010B
S1132520CA01880F991FAA1FBB1F880F991FAA1FD2
S1132530BB1F480F591F6A1F7B1F8D81992787FD79
S11325409095C097AA2797FDA095BA2F9A01AB0141
S1132550280F391F4A1F5B1FACE3B0E00E94091E1D
S11325606C0D7D1D8E1D9F1D0E942005012B09F4FD
S11325706FC000E010E00F2EF1EA8F2EF5E29F2EDF
S1132580F02D0F2EF5EAAF2EF5E2BF2EF02D0F2E13
S1132590F3EACF2EF5E2DF2EF02D0F2EF9EA6F2E9F
S11325A0F5E27F2EF02D0F2EFBE94F2EF5E25F2E84
S11325B0F02D0F2EFFE92F2EF5E23F2EF02D6AE2CB
S11325C070E280E090E00E94191E7C010330110546
S11325D029F144F40130110589F0E4F401151105E1
S11325E049F031C00530110509F1E4F00630110558
S11325F051F526C0EAE9F5E2808325C057DEC7011C
S1132600AA2797FDA095BA2FF20180839183A28314
S1132610B38319C0F1018083918315C0F4018083D1
S1132620918311C0F601808391830DC0AA2797FD81
S1132630A095BA2FF50180839183A283B38303C04D
S1132640F301808391830F5F1F4FEF2809F0B7CF09
S11326508AE995E22896CDBFDEBFDF91CF911F9125
S11326600F91FF90EF90DF90CF90BF90AF909F902D
S11326708F907F906F905F904F903F902F90089530
S11326800F931F93CF93DF938B01681779074CF057
S1132690EC016FEFCE010E947D0421960C171D07FB
S11326A0C4F7DF91CF911F910F910895CF92DF92DC
S11326B0EF92FF920F931F93CF93DF93CDB7DEB7C3
S11326C02F97CDBFDEBF8C0161E370E2FC018581F1
S11326D096810E94271E282F392F232B09F0ACC086
S11326E066E370E2F801878190850E94271E282FF7
S11326F0392F232B01F56FE070E080E090E0C0DF1C
S1132700F80163857485CE0101960E94301E6981AB
S1132710662389F06E01F2E0CF0ED11CE12CF12C7E
S1132720C7010E947D048FEFE81AF80AF60161914F
S11327306F016111F5CF6DE370E2F8018781908537
S11327400E94271E282F392F232B11F56FE170E0EB
S113275080E190E095DFF80163857485CE010196F0
S11327600E94301E6981662399F06E01F2E0CF0E5B
S1132770D11C6894EE24E4F8F12CC7010E947D0476
S11327808FEFE81AF80AF60161916F016111F5CF34
S113279064E470E2F801878190850E94271E282F47
S11327A0392F232B11F56FE270E080E290E068DFAF
S11327B0F80163857485CE0101960E94301E6981FB
S11327C0662399F06E01F2E0CF0ED11C6894EE24DA
S11327D0E5F8F12CC7010E947D048FEFE81AF80A8E
S11327E0F60161916F016111F5CF6BE470E2F801BC
S11327F0878190850E94271E282F392F232B11F4BF
S113280080E09EDC62E570E2F801878190850E9499
S1132810271E282F392F232B11F481E091DC69E541
S113282070E2F801878190850E94271E282F392F96
S1132830232B11F482E084DC60E670E2F8018581E8
S113284096810E94271E282F392F232B09F0B0C010
S113285066E370E2F801878190850E94271E282F85
S1132860392F232B19F56FE370E080E390E008DF44
S1132870F80163857485CE0101960E94301E69813A
S11328806623A1F06E01F2E0CF0ED11C0F2EF0E30F
S1132890EF2EF12CF02DC7010E947D048FEFE81A72
S11328A0F80AF60161916F016111F5CF6DE370E2F1
S11328B0F801878190850E94271E282F392F232B0A
S11328C011F56FE470E080E490E0DADEF8016385EE
S11328D07485CE0101960E94301E6981662399F0A9
S11328E06E01F2E0CF0ED11C6894EE24E6F8F12CD0
S11328F0C7010E947D048FEFE81AF80AF60161917E
S11329006F016111F5CF64E470E2F801878190856D
S11329100E94271E282F392F232B19F56FE570E00D
S113292080E590E0ADDEF80163857485CE01019603
S11329300E94301E69816623A1F06E01F2E0CF0E81
S1132940D11C0F2EF0E5EF2EF12CF02DC7010E94C3
S11329507D048FEFE81AF80AF60161916F016111A5
S1132960F5CF6BE470E2F801878190850E94271E01
S1132970282F392F232B11F480E00DDC62E570E25F
S1132980F801878190850E94271E282F392F232B39
S113299011F481E000DC69E570E2F801878190853B
S11329A00E94271E282F392F232B11F482E0F3DBFA
S11329B065E670E2F801858196810E94271E282F22
S11329C0392F232B09F0B0C066E370E2F801878148
S11329D090850E94271E282F392F232B19F56FE687
S11329E070E080E690E04CDEF80163857485CE01EA
S11329F001960E94301E69816623A1F06E01F2E007
S1132A00CF0ED11C0F2EF0E6EF2EF12CF02DC701C6
S1132A100E947D048FEFE81AF80AF60161916F01B4
S1132A206111F5CF6DE370E2F801878190850E9412
S1132A30271E282F392F232B19F56FE770E080E725
S1132A4090E01EDEF80163857485CE0101960E9434
S1132A50301E69816623A1F06E01F2E0CF0ED11C15
S1132A600F2EF0E7EF2EF12CF02DC7010E947D040C
S1132A708FEFE81AF80AF60161916F016111F5CF41
S1132A8064E470E2F801878190850E94271E282F54
S1132A90392F232B11F56FE870E080E890E0F0DD2A
S1132AA0F80163857485CE0101960E94301E698108
S1132AB0662399F06E01F2E0CF0ED11C6894EE24E7
S1132AC0E7F8F12CC7010E947D048FEFE81AF80A99
S1132AD0F60161916F016111F5CF6BE470E2F801C9
S1132AE0878190850E94271E282F392F232B11F4CC
S1132AF080E07CDB62E570E2F801878190850E94CA
S1132B00271E282F392F232B11F481E06FDB69E571
S1132B1070E2F801878190850E94271E282F392FA3
S1132B20232B11F482E062DB2F96CDBFDEBFDF9151
S1132B30CF911F910F91FF90EF90DF90CF90089568
S1132B40CF92DF92EF92FF92CF93DF936B017C01E0
S1132B50EA0184E790E20E940603C701B6010E94DD
S1132B601A0384EC90E20E94060320E041E03AC09C
S1132B70FE01E20FF11D27FDFA95D701C601817010
S1132B809927AA27B078BB2354F40197A109B10966
S1132B908E6F9F6FAF6FBF6F0196A11DB11D8083B4
S1132BA0322F3F5FD701C601FF201CF40196A11DFF
S1132BB0B11D6C017D01F594E794D794C79481E02D
S1132BC0C816D104E104F10461F4FE01E30FF11D20
S1132BD037FDFA954083322F3E5FC12CD12C76010C
S1132BE0C394232F82E0C816D104E104F10408F051
S1132BF0BFCFDF91CF91FF90EF90DF90CF900895FA
S1132C002F923F924F925F926F927F928F929F92F8
S1132C10AF92BF92CF92DF92EF92FF920F931F93E6
S1132C20CF93DF93CDB7DEB7A097CDBFDEBF6C01E6
S1132C30F62E5A01DE01119680E2FD0111928A9569
S1132C40E9F70E943205EF2DFF27E7FDF095319754
S1132C500AF4C3C0EC0DFD1D760121E0E21AF1086F
S1132C6010E0412C512C32013FEFC31609F4A1C0EE
S1132C70A081BB27A7FDB095D0979D01442737FDC0
S1132C804095542F153009F458C07CF41230E9F102
S1132C9034F41123E1F0113009F08AC01DC013305F
S1132CA0E1F1143009F084C040C0183009F463C065
S1132CB03CF4163009F44BC0173009F079C051C008
S1132CC0193009F462C01A3009F072C068C0420EAB
S1132CD0531E641E751E6CC0BA01A901440F551F12
S1132CE0661F771FDB01CA01880F991FAA1FBB1F2C
S1132CF0880F991FAA1FBB1F840F951FA61FB71FFC
S1132D00480E591E6A1E7B1E53C0A4E6B0E081D74C
S1132D10460E571E681E791E4BC0A8EEB3E079D745
S1132D20460E571E681E791E43C0A0E1B7E271D754
S1132D30460E571E681E791E3BC060EA76E881E0A5
S1132D4090E02AD7460E571E681E791E31C060E4F3
S1132D5072E48FE090E020D7460E571E681E791E5D
S1132D6027C060E876E988E990E016D7460E571E3A
S1132D70681E791E1DC060E071EE85EF95E00CD7EA
S1132D80460E571E681E791E13C060E07AEC8AE96D
S1132D909BE302D7460E571E681E791E09C020E029
S1132DA034EE4BE054E53FD7460E571E681E791E9D
S1132DB01F5F3197EE15FF0509F056CF772084F495
S1132DC080E090E0A0E0B0E89C01AD012419350951
S1132DD04609570929013A0103C0412C512C3201FB
S1132DE0AE014F5F5F4FC301B201AADE0E943205FC
S1132DF06B017C0139E7A31630E2B30609F066C023
S1132E0088248394912C8C0E9D1E212C312C21011D
S1132E1000E010E0712CF40181914F01813009F040
S1132E2048C00F31110534F47724739480818130C4
S1132E3009F0712CC214D304E404F504B0F0D201F7
S1132E40C101CC96A11DB11D8C159D05AE05BF0514
S1132E5060F082E890E20E9406032AE030E04AE053
S1132E6050E061E080E090E04EDAD201C1018C577D
S1132E709C4FAF4FBF4FC816D906EA06FB06C8F0F1
S1132E80D201C10180549C4FAF4FBF4F8C159D059B
S1132E90AE05BF0570F071100CC086EA90E20E9486
S1132EA0060320E030E040E050E060E080E090E0A5
S1132EB02ADA0F5F1F4FF4E82F0EF3E03F1E411C88
S1132EC0511C0032110509F0A6CFE3C028ECA2166C
S1132ED020E2B20609F06BC088248394912C8C0EF6
S1132EE09D1E0F2EF4E02F2EF4E73F2E412C512C83
S1132EF0F02D00E010E0712CF40181914F0181303C
S1132F0009F048C00F31110534F47724739480819B
S1132F10813009F0712CD201C10184589340A10978
S1132F20B109C816D906EA06FB06B8F0D201C101F8
S1132F3088549340A109B1098C159D05AE05BF05C0
S1132F4060F081ED90E20E9406032AE030E04AE05E
S1132F5050E061E080E090E0D6D9C214D304E404E8
S1132F60F504C0F0D201C101CC96A11DB11D8C1590
S1132F709D05AE05BF0570F071100CC085EF90E2A1
S1132F800E94060320E030E040E050E060E080E092
S1132F9090E0B9D90F5F1F4FF4E82F0EF3E03F1E06
S1132FA0411C511C0032110509F0A6CFDDC027E1F8
S1132FB0A21621E2B20609F06BC088248394912CF6
S1132FC08C0E9D1E0F2EF4E82F2EF4EE3F2E412C76
S1132FD0512CF02D00E010E0712CF40181914F018F
S1132FE0813009F048C00F31110534F4772473940B
S1132FF08081813009F0712CD201C1018458934041
S1133000A109B109C816D906EA06FB06B8F0D2012F
S1133010C10188549340A109B1098C159D05AE05E1
S1133020BF0560F080E291E20E9406032AE030E0EE
S11330304AE050E061E080E090E065D9C214D30436
S1133040E404F504C0F0D201C101CC96A11DB11D68
S11330508C159D05AE05BF0570F071100CC084E49D
S113306091E20E94060320E030E040E050E060E09E
S113307080E090E048D90F5F1F4FF4E82F0EF3E093
S11330803F1E411C511C0032110509F0A6CFDCC0C3
S1133090712C26E6A21621E2B20609F065C0882446
S11330A08394912C8C0E9D1E212C312C210100E047
S11330B010E0F40181914F01813009F048C00F31D3
S11330C0110534F4772473948081813009F0712CD4
S11330D0C214D304E404F504B0F0D201C101CC96C7
S11330E0A11DB11D8C159D05AE05BF0560F08FE6D1
S11330F091E20E9406032AE030E04AE050E061E0F9
S113310081E090E000D9D201C1018C579C4FAF4FB0
S1133110BF4FC816D906EA06FB06C8F0D201C101A2
S113312080549C4FAF4FBF4F8C159D05AE05BF0516
S113313070F071100CC083E991E20E94060320E054
S113314030E040E050E060E081E090E0DCD80F5FE8
S11331501F4FF4E82F0EF3E03F1E411C511C0032B8
S1133160110509F0A6CFE1C025EBA21621E2B206B3
S113317009F06AC088248394912C8C0E9D1E0F2E16
S1133180F4E02F2EF4E73F2E412C512CF02D00E0DB
S113319010E0F40181914F01813009F048C00F31F2
S11331A0110534F4772473948081813009F0712CF3
S11331B0D201C10184589340A109B109C816D906A6
S11331C0EA06FB06B8F0D201C10188549340A10974
S11331D0B1098C159D05AE05BF0560F08EEB91E23B
S11331E00E9406032AE030E04AE050E061E081E01A
S11331F090E089D8C214D304E404F504C0F0D201E9
S1133200C101CC96A11DB11D8C159D05AE05BF0550
S113321070F071100CC082EE91E20E94060320E06F
S113322030E040E050E060E081E090E06CD80F5F77
S11332301F4FF4E82F0EF3E03F1E411C511C0032D7
S1133240110509F0A6CFDEC024E0A21622E2B206E0
S113325009F06BC088248394912C8C0E9D1E0F2E34
S1133260F4E82F2EF4EE3F2E412C512CF02D00E0EB
S113327010E0F40181914F01813009F049C00F3110
S1133280110534F4772473948081813009F0712C12
S1133290D201C10184589340A109B109C816D906C5
S11332A0EA06FB06B8F0D201C10188549340A10993
S11332B0B1098C159D05AE05BF0560F08DE092E265
S11332C00E9406032AE030E04AE050E061E081E039
S11332D090E019D8C214D304E404F504C8F0D20170
S11332E0C101CC96A11DB11D8C159D05AE05BF0570
S11332F078F071100DC081E392E20E94060320E091
S113330030E040E050E060E081E090E00E94831112
S11333100F5F1F4FF4E82F0EF3E03F1E411C511CBA
S11333200032110509F0A5CFDFC023E5A21622E281
S1133330B20609F067C0AA24A394B12CAC0EBD1E3A
S1133340212C312C210100E010E0F50181915F0175
S1133350813009F04AC00F31110534F47724739495
S11333608081813009F0712CC214D304E404F50483
S1133370B8F0D201C101CC96A11DB11D8C159D05DB
S1133380AE05BF0568F08CE592E20E9406032AE0D0
S113339030E04AE050E061E083E090E00E94831175
S11333A0D201C1018C579C4FAF4FBF4FC816D906ED
S11333B0EA06FB06D0F0D201C10180549C4FAF4F06
S11333C0BF4F8C159D05AE05BF0578F071100DC07B
S11333D080E892E20E94060320E030E040E050E002
S11333E060E083E090E00E9483110F5F1F4FF4E8D8
S11333F02F0EF3E03F1E411C511C0032110509F051
S1133400A4CFE7C022EAA21622E2B20609F06CC0F9
S1133410AA24A394B12CAC0EBD1E0F2EF4E02F2EC3
S1133420F4E73F2E412C512CF02D00E010E0F50183
S113343081915F01813009F04AC00F31110534F4E4
S1133440772473948081813009F0712CD201C101F9
S113345084589340A109B109C816D906EA06FB06A7
S1133460C0F0D201C10188549340A109B1098C155F
S11334709D05AE05BF0568F08BEA92E20E94060343
S11334802AE030E04AE050E061E083E090E00E940E
S11334908311C214D304E404F504C8F0D201C101B9
S11334A0CC96A11DB11D8C159D05AE05BF0578F008
S11334B071100DC08FEC92E20E94060320E030E010
S11334C040E050E060E083E090E00E9483110F5FF1
S11334D01F4FF4E82F0EF3E03F1E411C511C003235
S11334E0110509F0A4CF75C021EFA21622E2B2069D
S11334F009F06FC0AA24A394B12CAC0EBD1E0F2EEC
S1133500F4E82F2EF4EE3F2E412C512CF02D00E048
S113351010E0F50181915F01813009F04AC00F315B
S1133520110534F4772473948081813009F0712C6F
S1133530D201C10184589340A109B109C816D90622
S1133540EA06FB06C0F0D201C10188549340A109E8
S1133550B1098C159D05AE05BF0568F08AEF92E2AE
S11335600E9406032AE030E04AE050E061E083E094
S113357090E00E948311C214D304E404F504C8F05B
S1133580D201C101CC96A11DB11D8C159D05AE05BE
S1133590BF0578F071100DC08EE193E20E9406031E
S11335A020E030E040E050E060E083E090E00E9402
S11335B083110F5F1F4FF4E82F0EF3E03F1E411CF1
S11335C0511C0032110509F0A4CF03C00197F1F793
S11335D003C080E290E0FACFA096CDBFDEBFDF91BA
S11335E0CF911F910F91FF90EF90DF90CF90BF90FC
S11335F0AF909F908F907F906F905F904F903F908F
S11336002F900895AF92BF92CF92DF92EF92FF92E4
S11336100F931F93CF93DF930E943205C0E0D0E055
S1133620A12C0F2EFBEBEF2EF5E2FF2EF02DBB2489
S1133630BA94C031D10514F5CE010E9449048F3FDC
S113364041F0EA2DFF27E7FDF095E555FA4D80831B
S1133650A394CF30D10591F449E750E26A2D8BEA67
S113366095E2CEDAEBEAF5E2B192EE15FF05E1F769
S11336700F2EFFE0CF2ED12CF02D1EC16E01CE01F6
S113368040974097E8F4CE010E9449048F3F41F0EF
S1133690EA2DFF27E7FDF095E555FA4D8083A394C5
S11336A0CF31D10569F448EC50E26A2D8BEA95E2FA
S11336B0A7DAEBEAF5E2B192EE15FF05E1F7FCC0FB
S11336C08E01CE0180974097F0F4C6010E94490410
S11336D08F3F41F0EA2DFF27E7FDF095E555FA4DC0
S11336E08083A394CF32D10571F447E151E26A2D6E
S11336F08BEA95E285DAEBEAF5E2B192EE15FF0585
S1133700E1F7A12C22C0C801C0974097F0F4C6018C
S11337100E9449048F3F41F0EA2DFF27E7FDF09511
S1133720E555FA4D8083A394CF33D10571F446E671
S113373051E26A2D8BEA95E263DAEBEAF5E2B192A3
S1133740EE15FF05E1F7A12C23C0C80180549109AF
S11337504097F0F4C6010E9449048F3F41F0EA2DDE
S1133760FF27E7FDF095E555FA4D8083A394CF3408
S1133770D10571F445EB51E26A2D8BEA95E240DA0A
S1133780EBEAF5E2B192EE15FF05E1F7A12C23C0B7
S1133790C801805591094097F0F4C6010E9449047C
S11337A08F3F41F0EA2DFF27E7FDF095E555FA4DEF
S11337B08083A394CF35D10571F444E052E26A2D9D
S11337C08BEA95E21DDAEBEAF5E2B192EE15FF051C
S11337D0E1F7A12C23C0C801805691094097F0F469
S11337E0C6010E9449048F3F41F0EA2DFF27E7FDFF
S11337F0F095E555FA4D8083A394CF36D10571F445
S113380043E552E26A2D8BEA95E2FAD9EBEAF5E256
S1133810B192EE15FF05E1F7A12C23C0C801805732
S113382091094097F0F4C6010E9449048F3F41F08A
S1133830EA2DFF27E7FDF095E555FA4D8083A39423
S1133840CF37D10571F442EA52E26A2D8BEA95E250
S1133850D7D9EBEAF5E2B192EE15FF05E1F7A12C19
S113386025C0005811090031110500F5C6010E9458
S113387049048F3F41F0EA2DFF27E7FDF095E55518
S1133880FA4D8083A394CF38D10581F441EF52E2FD
S11338906A2D8BEA95E2B4D9EBEAF5E28BEB95E27B
S11338A02FEF2193E817F907E1F709C02196C039F2
S11338B0D10509F0BECE03C08E01A12C24CFDF9127
S11338C0CF911F910F91FF90EF90DF90CF90BF9019
S11338D0AF900895CF93DF93CDB7DEB7C854D10925
S11338E0CDBFDEBFE0EAF0E087E0828382830E94FE
S11338F0BE030E94910F0E9458031092BB251092A0
S1133900BC251092BD251092BE251092BF2581E0E2
S11339108093C0250E947A05789488E0E0E2F6E07E
S113392086830E94A80181E090E00E949F010E948A
S11339307D0281E090E00E94740280E493E20E94A0
S11339404A038DE00E9443038AE00E94430380E01F
S113395092E1AAE7B0E00197A109B109E1F78CE48B
S113396093E20E944A038DE00E9443038AE00E948E
S1133970430380E092E1AAE7B0E00197A109B1090D
S1133980E1F788E593E20E944A038DE00E94430335
S11339908AE00E94430380E092E1AAE7B0E0019745
S11339A0A109B109E1F70E9432052B013C010E94F3
S11339B0320521966CAF7DAF8EAF9FAF21970F2E4E
S11339C0812CF2E19F2EFAE7AF2EB12CF02D0E944C
S11339D03205DC01CB0184199509A609B7090497BE
S11339E0A105B105A0F080E693E20E944A038AE0B3
S11339F00E9443038DE00E944303D501C401019753
S1133A00A109B109E1F70E9432052B013C010E9492
S1133A10C602882319F1BE016F5F7F4F8CE390E0EB
S1133A200E94211189818A3091F08B3281F4CE0178
S1133A3001960E9406038AE00E94D9018DE00E944B
S1133A40D901CE0101960E94F3110E945613BE01C2
S1133A506F5F7F4F82E090E00E944C110E9432051C
S1133A60DC01CB0121962CAD3DAD4EAD5FAD219770
S1133A70821B930BA40BB50B0A97A105B105A0F00B
S1133A808AE793E20E9406030E9432050E941A0309
S1133A9084EC90E20E9406030E94320521966CAFEA
S1133AA07DAF8EAF9FAF21970E943205DC01CB0121
S1133AB025962CAD3DAD4EAD5FAD2597821B930B86
S1133AC0A40BB50B4497A105B10548F09BDD0E94FA
S1133AD0320525966CAF7DAF8EAF9FAF25970E94C0
S1133AE03205DC01CB0129962CAD3DAD4EAD5FAD69
S1133AF02997821B930BA40BB50BCC97A105B10599
S1133B00C0F088E593E20E944A038DE00E944303DB
S1133B108AE00E944303D501C4010197A109B109B8
S1133B20E1F70E94320529966CAF7DAF8EAF9FAF4F
S1133B3029970E943205DC01CB018C199D09AE093D
S1133B40BF098C329140A105B10508F440CF80E44F
S1133B5093E20E944A038DE00E9443038AE00E949C
S1133B604303D501C4010197A109B109E1F78CE42C
S1133B7093E20E944A038DE00E9443038AE00E947C
S1133B804303D501C4010197A109B109E1F70E94DA
S1133B9032056B017C011BCFDB018F939F9339D0DE
S1133BA0BF91AF91A29F800D911DA39F900DB29FD5
S1133BB0900D11240895A1E21A2EAA1BBB1BFD012E
S1133BC00DC0AA1FBB1FEE1FFF1FA217B307E407F8
S1133BD0F50720F0A21BB30BE40BF50B661F771F50
S1133BE0881F991F1A9469F7609570958095909530
S1133BF09B01AC01BD01CF010895A29FB001B39F09
S1133C00C001A39F01D0B29F700D811D1124911D8D
S1133C100895F3DFA59F900DB49F900DA49F800D90
S1133C20911D11240895B7FFF4CFF3DF821B930B8A
S1133C3008954EE953E235C0FB01DC010D900020EC
S1133C40E9F7119701900D920020E1F70895FB0127
S1133C50DC018D91019080190110D9F3990B08951D
S1133C60FB01DC0101900D920020E1F70895FB01B6
S1133C7051915523A9F0BF01DC014D914517411124
S1133C80E1F759F4CD010190002049F04D91401520
S1133C904111C9F3FB014111EFCF81E090E001979D
S1133CA00895FA01A191B081009719F41097E1F0F9
S1133CB0CD01DC01CD010D90002011F4C00113C031
S1133CC0FB012191222319F02015D9F7F3CFFB0131
S1133CD02191201519F41E92119606C02223C1F7D2
S1133CE00D900020A1F7D001FA01A193B0830895AB
S1073CF0F894FFCF72
S1133CF400C20100030000000000C2010003000030
S1133D0400000D0A0061742B61777464613D612CB9
S1133D142249434131222C003A202C002B52544393
S1133D2400494341310054565F7473300054565F64
S1133D347473310054565F74733200434D5F74736B
S1133D443000434D5F74733100434D5F747332002C
S1133D5449434132004943413300656570726F6DD4
S1133D64203A20006B203A2000494341315F7473A8
S1133D74300021212173746172742070776D206D79
S1133D846574686F642D494341315F747330212134
S1133D9421200A200D00212121656E642070776D95
S1133DA4206D6574686F642D494341315F747330C9
S1133DB4212121200A200D00494341315F747331CC
S1133DC40021212173746172742070776D206D65F4
S1133DD474686F642D494341315F74733121212127
S1133DE4200A200D00212121656E642070776D2046
S1133DF46D6574686F642D494341315F7473312177
S1133E042121200A200D00494341315F747332009B
S1133E1421212173746172742070776D206D65742F
S1133E24686F642D494341315F7473322121212029
S1133E340A200D00212121656E642070776D206DA8
S1133E446574686F642D494341315F747332212171
S1133E5421200A200D00494341325F74733000214C
S1133E64212173746172742070776D206D65746898
S1133E746F642D494341325F747330212121200A38
S1133E84200D00212121656E642070776D206D65FD
S1133E9474686F642D494341325F74733021212166
S1133EA4200A200D00494341325F747331002121FB
S1133EB42173746172742070776D206D6574686FFA
S1133EC4642D494341325F747331212121200A2036
S1133ED40D00212121656E642070776D206D657459
S1133EE4686F642D494341325F7473312121212069
S1133EF40A200D00494341325F74733200212121A9
S1133F0473746172742070776D206D6574686F6466
S1133F142D494341325F747332212121200A200D3B
S1133F2400212121656E642070776D206D657468AD
S1133F346F642D494341325F747332212121200A75
S1133F44200D00494341335F7473300021212173F0
S1133F54746172742070776D206D6574686F642D5C
S1133F64494341335F747330212121200A200D0019
S1133F74212121656E642070776D206D6574686FEE
S1133F84642D494341335F747330212121200A2075
S1133F940D00494341335F7473310021212173744B
S1133FA46172742070776D206D6574686F642D4937
S1133FB44341335F747331212121200A200D0021F0
S1133FC42121656E642070776D206D6574686F645B
S1133FD42D494341335F747331212121200A200D7B
S1133FE400494341335F74733200212121737461A6
S1133FF472742070776D206D6574686F642D494305
S113400441335F747332212121200A200D002121C0
S113401421656E642070776D206D6574686F642DFE
S1134024494341335F747332212121200A200D0056
S113403461742B61777464613D632A0061742B613C
S1134044777464613D642A0061742B7274633F0065
S113405461742B61777464613D612C22494341315D
S1134064222C313032313039390054696D65203AAB
S11340742000656570726F6D5F77726974655F7037
S1114084756C73655F636F756E74657273009F
S9030000FC
