:10000000FDC0000018C100000C94680E14C100006F
:1000100012C1000010C100000EC100000CC10000A0
:100020000AC1000008C100006AC5000081C50000C7
:1000300002C100000C94DE0AF2C5000019C60000DF
:1000400040C6000067C600008EC60000B5C60000AE
:10005000DCC6000003C700002AC7000051C700002B
:10006000EAC00000E8C00000E6C00000E4C00000F4
:1000700002C1000034C1000028C10000DCC0000043
:10008000DAC00000D8C000000C947C0ED4C0000080
:10009000D2C00000D0C00000CEC00000CCC0000024
:1000A000CAC00000C8C00000C6C00000C4C0000034
:1000B000C2C00000C0C000000C94010B0C944309A6
:1000C0000C946C090C9495090C94BE090C94E709E6
:1000D0000C94100AB0C00000AEC00000ACC000001C
:1000E000AAC00000A8C000009CC10000CEC1000052
:1000F000C2C10000A0C000009EC000009CC0000063
:100100000C94540E98C000000C94900E94C0000003
:1001100092C0000090C000008EC000008CC00000A3
:100120008AC0000088C0000086C0000084C00000B3
:1001300082C000000EC7000035C700005CC7000089
:1001400083C70000AAC70000D1C70000F8C700009D
:100150000C94C8080C94F1080C941A096CC00000A7
:100160006AC0000068C0000066C0000064C00000F3
:1001700062C0000060C000005EC000005CC0000003
:100180005AC0000058C0000056C0000054C0000013
:1001900052C0000050C000004EC000004CC0000023
:1001A0004AC0000048C0000046C0000044C0000033
:1001B00042C0000040C000003EC000003CC0000043
:1001C0003AC0000038C0000036C0000034C0000053
:1001D00032C0000030C000002EC000002CC0000063
:1001E0002AC0000028C0000026C0000024C0000073
:1001F00022C0000020C000001EC0000011241FBE4D
:10020000CFEFDFE2DEBFCDBF10E2A0E0B0E2ECE274
:10021000F2E202C005900D92AC3EB107D9F722E29E
:10022000ACEEB0E201C01D92A63FB207E1F70E941A
:1002300001100C941411E4CE862798E02CE880FF7E
:1002400003C08695822701C086959150C1F7089515
:100250001F93CF93DF93EC01162F1150662331F0DB
:1002600080E06991E9DF1150E0F701C080E0DF91A3
:10027000CF911F9108951F920F920FB60F921124E4
:100280002F938F939F93AF93BF93EF93FF932091FF
:10029000B00880917E218F5F8F7090917F21981799
:1002A00041F0EEE7F1E2A081B0E0A251BF4D2C9306
:1002B0008083FF91EF91BF91AF919F918F912F918B
:1002C0000F900FBE0F901F9018951F920F920FB6B0
:1002D0000F9211240F900FBE0F901F9018951F9230
:1002E0000F920FB60F9211248F939F93AF93BF93EA
:1002F000EF93FF939091802180918121981306C004
:10030000E0EBF8E083818C7F83830EC0E1E8F1E2CB
:10031000A081B0E0A251BF4D50968C918093B0085F
:1003200080818F5F8F778083FF91EF91BF91AF9135
:100330009F918F910F900FBE0F901F901895E0EB3B
:10034000F8E093818295807F9F7C982B938308951A
:10035000CF93DF93CDB7DEB72997CDBFDEBF89E05E
:10036000E0E0F0E2DE01119601900D928A95E1F74E
:1003700010927F2110927E21109281211092802173
:10038000BE016F5F7F4F80EB98E00E94320CE0EB84
:10039000F8E083818F7C83838381837F8383838160
:1003A0008C7F816083832996CDBFDEBFDF91CF91A3
:1003B0000895FF920F931F93CF93DF93F82E68E079
:1003C00070E081E00E94CC0D00E811E2C1E8D1E2CA
:1003D00002C00E94160EF80190819F5F9F772881CE
:1003E000921799F0E0E8F1E2A081B0E0A251BF4D90
:1003F0005096FC929083E0EBF8E083818C7F8160E3
:10040000838381E00E94F50D06C081E00E94D00D3B
:10041000882309F3DECFDF91CF911F910F91FF90D9
:1004200008951F920F920FB60F9211242F938F935E
:100430009F93AF93BF93EF93FF932091A00A809176
:1004400082228F5F8F7790918322981741F0E2E8A4
:10045000F2E2A081B0E0AE57BE4D2C938083FF91B5
:10046000EF91BF91AF919F918F912F910F900FBE00
:100470000F901F9018951F920F920FB60F92112494
:100480000F900FBE0F901F9018951F920F920FB6EE
:100490000F9211248F939F93AF93BF93EF93FF938A
:1004A0009091842280918522981306C0E0EAFAE0B8
:1004B00083818C7F83830DC0E5E8F2E2A081B0E008
:1004C000AE5FBD4D8C918093A00A80818F5F8F7746
:1004D0008083FF91EF91BF91AF919F918F910F908A
:1004E0000FBE0F901F901895E0EAFAE09381829575
:1004F000807F9F7C982B93830895CF93DF93CDB714
:10050000DEB72997CDBFDEBF89E0E9E0F0E2DE018A
:10051000119601900D928A95E1F710928322109224
:1005200082221092852210928422BE016F5F7F4F3B
:1005300080EA9AE00E94320CE0EAFAE083818F7C44
:1005400083838381837F838383818C7F81608383A3
:100550002996CDBFDEBFDF91CF9108959091832280
:1005600080918222981769F0E3E8F2E2A081B0E07E
:10057000AE57BE4D2C9180818F5F8F77808330E0A6
:1005800002C02FEF3FEF822F932F089520918322F7
:100590009091822281E0291301C080E00895FF92AA
:1005A0000F931F93CF93DF93F82E68E070E081E004
:1005B0000E94CC0D04E812E2C5E8D2E202C00E941B
:1005C000160EF80190819F5F9F772881921791F016
:1005D000E4E8F2E2A081B0E0AE5FBD4DFC92908312
:1005E000E0EAFAE083818C7F8160838381E00E946E
:1005F000F50D06C081E00E94D00D882311F3DFCFF6
:10060000DF91CF911F910F91FF900895CF93DF93CA
:10061000EC018881882329F02196CBDE8991811114
:10062000FCCFDF91CF910895009709F0EFDF82E1D1
:1006300090E2ECCFCF93C82FA82FA295AF70B0E077
:10064000AB5EBF4D8C91B5DECF70EC2FF0E0EB5E72
:10065000FF4D8081AEDECF91089580CF0895CF9376
:10066000C82F9DDF8C2FA5DECF910895CF93DF9308
:10067000EC018881882329F02196F1DF899181118D
:10068000FCCFDF91CF91089543E050E068E080E235
:1006900096E0BDD043E050E060E280E096E0B7D065
:1006A00043E050E068E080E896E0B1D040E050E000
:1006B00064E080E896E0ABD043E050E068E080E89A
:1006C00096E0A5D040E050E064E080E896E09FD05E
:1006D00043E050E060E880E496E099D040E050E0EC
:1006E00060E480E496E093D043E050E062E080E292
:1006F00096E08DD043E050E060E480E096E087D063
:1007000041E050E061E080E696E081D041E050E0D9
:1007100062E080E696E07BD043E050E068E080E66F
:1007200096E075D040E050E064E080E496E06FD061
:1007300040E050E064E080E696E069D040E050E0C0
:1007400064E080E296E063D040E050E064E080E066
:1007500096E05DC0CF93DF938FEF8093700080931E
:100760007100809372008093730080937400809373
:100770007500809376008FB7F894E0E5F0E0908103
:10078000926090838FBF818181FFFDCF8FB7F894F6
:10079000E0E5F0E09081946090838FBF818182FFDB
:1007A000FDCF8FB7F894C0E5D0E09E81997F9E83FE
:1007B0009E819E83E0E6F0E09081916090838FBF00
:1007C00061E080E490E04BD08FB7F89498819E7FF1
:1007D00098838FBF8FB7F8949881946098838FBF68
:1007E000E0E5F0E0818182FFFDCF85E0E0E4F0E02C
:1007F0008383DF91CF9108952FB7F894FC01E059DE
:10080000FF4F60958081682360832FBF0895CF9349
:10081000DF93FC01709620E030E0C62FD0E0DE01CF
:10082000022E02C0B595A7950A94E2F7A0FD508369
:100830002F5F3F4F31962830310589F740FF0AC0BE
:1008400041FF03C0FC01658302C0FC016683FC011B
:10085000618302C0FC016283DF91CF9108951BBECA
:10086000FC0128ED24BF60830895E0ECF1E02785CA
:100870002223ECF3ECECF1E0208128602083DC0102
:10088000B05F8C919081977F90830895E0ECF1E0C8
:1008900087858823ECF3E0ECF1E0878581FF06C0D3
:1008A00086E3828761E08BEC91E0D9CF0895E0EC9C
:1008B000F1E097859923ECF3ECECF1E090819860FE
:1008C0009083A82FB0E0B05F6C938081877F808396
:1008D0000895FF920F931F93CF93DF93182FF92E54
:1008E000C62FE0ECF1E00285D1DFE0ECF1E02785F6
:1008F0002223ECF36C2F812FDADFC0ECD1E01A82D7
:10090000F982188385E38A8761E08BEC91E0A7DFA9
:100910000A87DF91CF911F910F91FF900895EF9279
:10092000FF920F931F93CF93DF938C01E0ECF1E0E4
:1009300087858823ECF3780180E2E80EF11CE8015A
:100940008C2F801B6991B3DFCE15DF05C9F7DF91CE
:10095000CF911F910F91FF90EF9008951F93CF9328
:10096000DF93E0ECF1E097859923ECF320E2829F9E
:10097000C0011124C0ECD1E01A82998388831A85C2
:1009800085E38A8761E08BEC91E069DF1A87DF916C
:10099000CF911F910895CF92DF92EF92FF920F9324
:1009A0001F93CF93DF93EC017B018A014115510521
:1009B00051F1CE018F719927892BB1F400321105C5
:1009C00098F0C701ACDFCE019695879592958295F8
:1009D0008F7089279F708927C1DFA09680E2E80E7B
:1009E000F11C005211090CC06E01EFEFCE1ADE0AA5
:1009F000F70161917F01CE016CDF01501109E60121
:100A000001151105B1F6DF91CF911F910F91FF9064
:100A1000EF90DF90CF90089510920004E0E0F4E0B2
:100A2000218120FDFDCFE0E0F4E0608771878093B5
:100A3000EE229093EF2287E0808308950F931F9317
:100A4000E0E0F4E0818180FDFDCF2FB7F8940091C4
:100A5000EE221091EF22E0E0F4E08085918500978E
:100A600029F4338130FF02C00F5F1F4F2FBF20E0FA
:100A700030E0980111270027A0E0B0E0082B192BE7
:100A80002A2B3B2B602F712F822F932F1F910F91B9
:100A90000895E0E0F4E021E02283648775876093A5
:100AA000F2227093F3228093F0229093F1228181BD
:100AB00080FDFDCFE0E0F4E082E0838385E0828387
:100AC00008958093F4229093F522089564E080E0E5
:100AD00090E092DEE0E0F4E08FEF9FEF8287938773
:100AE000108611868FB7F894ABEEB2E29C919F5FAF
:100AF0009C938FBF81E0828387E0808308951F925B
:100B00000F920FB60F9211248F939F93EF93FF9341
:100B1000EEEEF2E280819181019680839183FF91D4
:100B2000EF919F918F910F900FBE0F901F9018958E
:100B30001F920F920FB60F921124CF92DF92EF9275
:100B4000FF920F931F932F933F934F935F936F9356
:100B50007F938F939F93AF93BF93EF93FF934091B6
:100B6000EE225091EF228091F0229091F1224817CD
:100B70005907F0F181E0E0E0F4E08283E091F422B3
:100B8000F091F5223097A1F1A0E0B4E018968D9194
:100B90009C91199760E070E0BA0155274427A0E0C6
:100BA000B0E08A019B01082B192B2A2B3B2BC90192
:100BB000B8010091F0221091F12220E030E098017C
:100BC00011270027C090F222D090F322E12CF12CC3
:100BD0000C291D292E293F29061717072807390731
:100BE00030F0C901B8016F5F7F4F8F4F9F4F09955C
:100BF000FF91EF91BF91AF919F918F917F916F91F5
:100C00005F914F913F912F911F910F91FF90EF9026
:100C1000DF90CF900F900FBE0F901F9018951F92EE
:100C20000F920FB60F9211242F933F934F935F9320
:100C30006F937F938F939F93AF93BF93EF93FF93A4
:100C4000E0918622F0918722309709F00995FF9173
:100C5000EF91BF91AF919F918F917F916F915F9134
:100C60004F913F912F910F900FBE0F901F901895AD
:100C70001F920F920FB60F9211242F933F934F9311
:100C80005F936F937F938F939F93AF93BF93EF93F4
:100C9000FF93E0918822F0918922309709F009951D
:100CA000FF91EF91BF91AF919F918F917F916F9144
:100CB0005F914F913F912F910F900FBE0F901F901A
:100CC00018951F920F920FB60F9211242F933F93F6
:100CD0004F935F936F937F938F939F93AF93BF9344
:100CE000EF93FF93E0918A22F0918B22309709F0E5
:100CF0000995FF91EF91BF91AF919F918F917F9156
:100D00006F915F914F913F912F910F900FBE0F9078
:100D10001F9018951F920F920FB60F9211242F93C8
:100D20003F934F935F936F937F938F939F93AF9373
:100D3000BF93EF93FF93E0918C22F0918D22309737
:100D400009F00995FF91EF91BF91AF919F918F911C
:100D50007F916F915F914F913F912F910F900FBEB7
:100D60000F901F9018951F920F920FB60F9211249B
:100D70002F933F934F935F936F937F938F939F93A3
:100D8000AF93BF93EF93FF93E0918E22F0918F2268
:100D9000309709F00995FF91EF91BF91AF919F9125
:100DA0008F917F916F915F914F913F912F910F9014
:100DB0000FBE0F901F9018951F920F920FB60F92B3
:100DC00011242F933F934F935F936F937F938F9350
:100DD0009F93AF93BF93EF93FF93E0919022F09195
:100DE0009122309709F00995FF91EF91BF91AF9152
:100DF0009F918F917F916F915F914F913F912F9133
:100E00000F900FBE0F901F9018951F920F920FB664
:100E10000F9211242F933F934F935F936F937F9380
:100E20008F939F93AF93BF93EF93FF93E0919222A1
:100E3000F0919322309709F00995FF91EF91BF91BE
:100E4000AF919F918F917F916F915F914F913F9162
:100E50002F910F900FBE0F901F9018951F920F9219
:100E60000FB60F9211242F933F934F935F936F937D
:100E70007F938F939F93AF93BF93EF93FF93E091F3
:100E80009422F0919522309709F00995FF91EF9106
:100E9000BF91AF919F918F917F916F915F914F9192
:100EA0003F912F910F900FBE0F901F9018951F929A
:100EB0000F920FB60F9211242F933F934F935F938E
:100EC0006F937F938F939F93AF93BF93EF93FF9312
:100ED000E0919622F0919722309709F00995FF91C1
:100EE000EF91BF91AF919F918F917F916F915F91A2
:100EF0004F913F912F910F900FBE0F901F9018951B
:100F00001F920F920FB60F9211242F933F934F937E
:100F10005F936F937F938F939F93AF93BF93EF9361
:100F2000FF93E0919822F0919922309709F009956A
:100F3000FF91EF91BF91AF919F918F917F916F91B1
:100F40005F914F913F912F910F900FBE0F901F9087
:100F500018951F920F920FB60F9211242F933F9363
:100F60004F935F936F937F938F939F93AF93BF93B1
:100F7000EF93FF93E0919A22F0919B22309709F032
:100F80000995FF91EF91BF91AF919F918F917F91C3
:100F90006F915F914F913F912F910F900FBE0F90E6
:100FA0001F9018951F920F920FB60F9211242F9336
:100FB0003F934F935F936F937F938F939F93AF93E1
:100FC000BF93EF93FF93E0919C22F0919D22309785
:100FD00009F00995FF91EF91BF91AF919F918F918A
:100FE0007F916F915F914F913F912F910F900FBE25
:100FF0000F901F9018951F920F920FB60F92112409
:101000002F933F934F935F936F937F938F939F9310
:10101000AF93BF93EF93FF93E0919E22F0919F22B5
:10102000309709F00995FF91EF91BF91AF919F9192
:101030008F917F916F915F914F913F912F910F9081
:101040000FBE0F901F9018951F920F920FB60F9220
:1010500011242F933F934F935F936F937F938F93BD
:101060009F93AF93BF93EF93FF93E091A022F091F2
:10107000A122309709F00995FF91EF91BF91AF91AF
:101080009F918F917F916F915F914F913F912F91A0
:101090000F900FBE0F901F9018951F920F920FB6D2
:1010A0000F9211242F933F934F935F936F937F93EE
:1010B0008F939F93AF93BF93EF93FF93E091A222FF
:1010C000F091A322309709F00995FF91EF91BF911C
:1010D000AF919F918F917F916F915F914F913F91D0
:1010E0002F910F900FBE0F901F9018951F920F9287
:1010F0000FB60F9211242F933F934F935F936F93EB
:101100007F938F939F93AF93BF93EF93FF93E09160
:10111000A422F091A522309709F00995FF91EF9153
:10112000BF91AF919F918F917F916F915F914F91FF
:101130003F912F910F900FBE0F901F9018951F9207
:101140000F920FB60F9211242F933F934F935F93FB
:101150006F937F938F939F93AF93BF93EF93FF937F
:10116000E091A622F091A722309709F00995FF910E
:10117000EF91BF91AF919F918F917F916F915F910F
:101180004F913F912F910F900FBE0F901F90189588
:101190001F920F920FB60F9211242F933F934F93EC
:1011A0005F936F937F938F939F93AF93BF93EF93CF
:1011B000FF93E091A822F091A922309709F00995B8
:1011C000FF91EF91BF91AF919F918F917F916F911F
:1011D0005F914F913F912F910F900FBE0F901F90F5
:1011E00018951F920F920FB60F9211242F933F93D1
:1011F0004F935F936F937F938F939F93AF93BF931F
:10120000EF93FF93E091AA22F091AB22309709F07F
:101210000995FF91EF91BF91AF919F918F917F9130
:101220006F915F914F913F912F910F900FBE0F9053
:101230001F9018951F920F920FB60F9211242F93A3
:101240003F934F935F936F937F938F939F93AF934E
:10125000BF93EF93FF93E091AC22F091AD223097D2
:1012600009F00995FF91EF91BF91AF919F918F91F7
:101270007F916F915F914F913F912F910F900FBE92
:101280000F901F9018951F920F920FB60F92112476
:101290002F933F934F935F936F937F938F939F937E
:1012A000AF93BF93EF93FF93E091AE22F091AF2203
:1012B000309709F00995FF91EF91BF91AF919F9100
:1012C0008F917F916F915F914F913F912F910F90EF
:1012D0000FBE0F901F9018951F920F920FB60F928E
:1012E00011242F933F934F935F936F937F938F932B
:1012F0009F93AF93BF93EF93FF93E091B022F09150
:10130000B122309709F00995FF91EF91BF91AF910C
:101310009F918F917F916F915F914F913F912F910D
:101320000F900FBE0F901F9018951F920F920FB63F
:101330000F9211242F933F934F935F936F937F935B
:101340008F939F93AF93BF93EF93FF93E091B2225C
:10135000F091B322309709F00995FF91EF91BF9179
:10136000AF919F918F917F916F915F914F913F913D
:101370002F910F900FBE0F901F9018951F920F92F4
:101380000FB60F9211242F933F934F935F936F9358
:101390007F938F939F93AF93BF93EF93FF93E091CE
:1013A000B422F091B522309709F00995FF91EF91A1
:1013B000BF91AF919F918F917F916F915F914F916D
:1013C0003F912F910F900FBE0F901F9018951F9275
:1013D0000F920FB60F9211242F933F934F935F9369
:1013E0006F937F938F939F93AF93BF93EF93FF93ED
:1013F000E091B622F091B722309709F00995FF915C
:10140000EF91BF91AF919F918F917F916F915F917C
:101410004F913F912F910F900FBE0F901F901895F5
:101420001F920F920FB60F9211242F933F934F9359
:101430005F936F937F938F939F93AF93BF93EF933C
:10144000FF93E091B822F091B922309709F0099505
:10145000FF91EF91BF91AF919F918F917F916F918C
:101460005F914F913F912F910F900FBE0F901F9062
:101470001895CF93DF93E091BA22F091BB2284813B
:1014800083FF0BC08860848383E0838386EF9FEFB4
:101490008093C4229093C5228EC0982F947149F0F6
:1014A00083E083838FEF9FEF8093C4229093C522C4
:1014B00082C086FF42C0A091BC22B091BD22809123
:1014C000BE229091BF2214962D913C9115978217C0
:1014D00093075CF4A80FB91F11962C9127830196EE
:1014E0008093BE229093BF2266C08091C0229091CB
:1014F000C12218962D913C91199782179307B0F449
:101500002091C222222321F086818160868353C0EC
:1015100016960D90BC91A02DA80FB91F2C91278372
:1015200001968093C0229093C12245C083E08383BB
:101530001092C4221092C5223EC08823B4F5A09117
:10154000BC22B091BD228091C0229091C1221896F8
:101550002D913C91199782179307F0F427811696E5
:10156000CD91DC911797C80FD91F288301968093DE
:10157000C0229093C12218962D913C911997821701
:10158000930718F482E0838316C087E08383109268
:10159000C4221092C5220FC083E0838389EF9FEF9E
:1015A0008093C4229093C52206C08BEF9FEF809357
:1015B000C4229093C522DF91CF9108951F920F927C
:1015C0000FB60F9211242F933F934F935F936F9316
:1015D0007F938F939F93AF93BF93EF93FF9349DFD5
:1015E000FF91EF91BF91AF919F918F917F916F91FB
:1015F0005F914F913F912F910F900FBE0F901F90D1
:1016000018951F920F920FB60F9211242F933F93AC
:101610004F935F936F937F938F939F93AF93BF93FA
:10162000EF93FF9326DFFF91EF91BF91AF919F91D1
:101630008F917F916F915F914F913F912F910F907B
:101640000FBE0F901F9018954F925F926F927F92EE
:101650008F929F92AF92BF92CF92DF92EF92FF92C2
:101660000F931F93CF93DF93EC014A015B01280195
:101670003901D901C801689412F8B695A7959795D4
:1016800087951694D1F7B901A801032E36E1769516
:101690006795579547953A95D1F7302D2C8122FDC6
:1016A00008C0B695A79597958795769567955795B0
:1016B000479588159905AA05BB0508F4AAC08416A4
:1016C0009506A606B70608F4A6C08C8182FD04C064
:1016D000880C991CAA1CBB1CC301B201A501940172
:1016E0003CD52F3F31054105510508F496C0C12C6A
:1016F000D12C7601CA9419EF05C02C153D054E0575
:101700005F0568F0CC0CDD1CEE1CFF1C1D3F14F4C3
:101710006894C0F81F5F173081F7212F52C0212F26
:1017200011230CF04EC0D501C401880F991FAA1FC8
:10173000BB1F880F991FAA1FBB1F880F991FAA1FC5
:10174000BB1F481A590A6A0A7B0A1E3FECF46DEF68
:101750007FEF611B710917FD739504C0440C551C84
:10176000661C771C6A95D2F7D501C401B695A7957A
:1017700097958795BC01CD01640D751D861D971D3C
:10178000A5019401EAD43CC0212F332727FD3095D1
:101790002D5F3F4FD501C40104C0880F991FAA1FB8
:1017A000BB1F2A95D2F79C01AD01B695A7959795D9
:1017B0008795BC01CD01640D751D861D971DCDD487
:1017C0001FC0332727FD30952D5F3F4FD501C40142
:1017D00004C0880F991FAA1FBB1F2A95D2F79C012E
:1017E000AD01B695A79597958795BC01CD01640D80
:1017F000751D861D971DB1D421503109410951092C
:10180000832F8F701295107F182B1F832E8381E0FA
:1018100018C080E016C080E014C0D501C401880F54
:10182000991FAA1FBB1F880F991FAA1FBB1F880FD4
:10183000991FAA1FBB1F481A590A6A0A7B0A19EF87
:1018400086CFDF91CF911F910F91FF90EF90DF90A6
:10185000CF90BF90AF909F908F907F906F905F9050
:101860004F9008950F931F93CF93DF93EC018B015B
:10187000009709F4EEC0803C910531F460E180E00E
:1018800090E00E94FC03E5C0C11584E0D80731F464
:1018900064E080E090E00E94FC03DBC0C038E1E03F
:1018A000DE0731F462E080E090E00E94FC03D1C0EA
:1018B000C115F1E0DF0731F461E080E090E00E94C3
:1018C000FC03C7C0C03883E0D80731F461E081E091
:1018D00090E00E94FC03BDC0C115E2E0DE0731F4D8
:1018E00062E081E090E00E94FC03B3C0C032F3E00C
:1018F000DF0731F464E082E090E00E94FC03A9C0BD
:10190000C11588E0D80731F461E083E090E00E94DF
:10191000FC039FC0C115E9E0DE0731F461E084E01B
:1019200090E00E94FC0395C0C115FAE0DF0731F496
:1019300061E085E090E00E94FC038BC0C03488E049
:10194000D80731F462E083E090E00E94FC0381C09C
:10195000C034E9E0DE0731F462E084E090E00E9408
:10196000FC0377C0C039F8E0DF0731F464E083E0BE
:1019700090E00E94FC036DC0C03989E0D80731F4C3
:1019800064E084E090E00E94FC0363C0C039EAE0B8
:10199000DE0731F464E085E090E00E94FC0359C06A
:1019A000C03CF8E0DF0731F468E083E090E00E949B
:1019B000FC034FC0C03C89E0D80731F468E084E004
:1019C00090E00E94FC0345C0C03AE8E0DE0731F435
:1019D00060E183E090E00E94FC033BC0C03AF9E084
:1019E000DF0731F460E184E090E00E94FC0331C045
:1019F000C03A8AE0D80731F460E185E090E00E94C7
:101A0000FC0327C0C03BE8E0DE0731F460E283E07E
:101A100090E00E94FC031DC0C03BF9E0DF0731F4F9
:101A200060E284E090E00E94FC0313C0C03884E0D0
:101A3000D80731F460E483E090E00E94FC0309C021
:101A4000C03AE4E0DE0729F460E485E090E00E941B
:101A5000FC038D818F738D83F80196818481892B9E
:101A60009085992311F098E001C090E0892B8D8337
:101A7000F801408151816281738100E018E428EE11
:101A800031E0CE01E1DD9C8198609C839C81906176
:101A90009C83DF91CF911F910F910895CF93DF9396
:101AA000C091C622D091E722E7ECF2E280E090E01C
:101AB00061E070E02C2F30E0082E02C035952795AC
:101AC0000A94E2F720FF1AC02081318121503109A8
:101AD00020833183232B91F49B01082E02C0220F17
:101AE000331F0A94E2F7D22B4281538141155105ED
:101AF00019F04083518302C02095C2230196349689
:101B000088309105B9F6C093C622D093E72260E0F1
:101B100070E0CB010E940C0560E870E080E090E08E
:101B20000E944905DF91CF9108950E9466058EE4D9
:101B30009DE00E94610560E070E0CB010E940C0511
:101B400060E870E080E090E00C944905883018F57A
:101B5000AFB7F894E82FF0E0EE0FFF1FEE0FFF1F76
:101B6000E953FD4D408351836283738321E030E06C
:101B7000A90102C0440F551F8A95E2F7CA0190914E
:101B8000C622982B9093C62280959091E7228923B4
:101B90008093E722AFBF0895AB0160E070E0D6CF3D
:101BA0008830F8F42091E72230E0082E02C0359505
:101BB00027950A94E2F720FF16C04FB7F89421E06A
:101BC00030E0B90102C0660F771F8A95E2F7CB01BA
:101BD00080959091E72289238093E7224FBF81E08F
:101BE000089580E0089580E008954FB7F89421E0CB
:101BF00030E0B90102C0660F771F8A95E2F7CB018A
:101C000080959091C62289238093C6224FBF089564
:101C10008FB7F8948FBF60E070E0CB0108958FB765
:101C2000F8948FBF60E070E0CB010895CF93DF930D
:101C3000CDB7DEB76197CDBFDEBF80E0E9DF698356
:101C40007A838B839C8381E0E3DF6D837E838F8344
:101C5000988780E0E4DF69877A878B879C8781E0BB
:101C6000DEDF6D877E878F87988B60E1CE010196DE
:101C70000E942801898B41E150E0BE016F5F7F4FD8
:101C800083EC90E00E94CB04E0ECF1E087858823B0
:101C9000ECF380ED90E20E941403F89461E089E790
:101CA00090E00E942F04FFCF1F920F920FB60F9269
:101CB00011248F93EF93FF9381E0E0E6F6E08487B1
:101CC000FF91EF918F910F900FBE0F901F9018957D
:101CD0001F920F920FB60F9211248F93EF93FF93E1
:101CE00081E0E0E4F6E08487FF91EF918F910F901F
:101CF0000FBE0F901F9018951F920F920FB60F9264
:101D000011248F93EF93FF9381E0E0E2F6E0848764
:101D1000FF91EF918F910F900FBE0F901F9018952C
:101D20001F920F920FB60F9211248F93EF93FF9390
:101D300081E0E0E0F6E08487FF91EF918F910F90D2
:101D40000FBE0F901F901895CF92DF92EF92FF92E7
:101D50000F931F93CF93DF936C017B01C0E0D0E022
:101D60008C01015011090E942D03C017D10724F4E2
:101D7000F701EC0FFD1F808321968D3011F08A3022
:101D800091F7EC0CFD1CF70131971082DF91CF9198
:101D90001F910F91FF90EF90DF90CF900895E62F65
:101DA000F72F80E090E0119201968C339105D9F7DE
:101DB0000895CF93DF93CDB7DEB7EC97CDBFDEBFED
:101DC00023E1E6E2F0E2DE01119601900D922A9500
:101DD000E1F7BC01CE010196E5D1CE0101960E944A
:101DE00036038AE00E942F038DE00E942F0380E0DB
:101DF00092E1AAE7B0E00197A109B109E1F7EC96F9
:101E0000CDBFDEBFDF91CF910895EF92FF920F9388
:101E10001F93CF93DF93CDB7DEB76197CDBFDEBF02
:101E200069E370E2BCD1892B09F443C000E010E003
:101E30006BE370E280E090E0B2D17C0103301105E9
:101E400009F144F40130110579F0CCF401151105C4
:101E500049F02AC005301105D9F0BCF00630110553
:101E600019F520C0898320C0A4DFC701AA2797FDE8
:101E7000A095BA2F8A839B83AC83BD8315C08E83C4
:101E80009F8312C0888799870FC08A879B870CC061
:101E9000AC01662757FD6095762F4C875D876E876E
:101EA0007F8702C0888B998B0F5F1F4FEF2809F047
:101EB000BFCFCE0101966196CDBFDEBFDF91CF913E
:101EC0001F910F91FF90EF900895CF92DF92EF92C4
:101ED000FF920F931F93CF93DF93CDB7DEB72F976A
:101EE000CDBFDEBF8C016DE370E2FC018581968180
:101EF00064D1282F392F232B09F069C082E490E2A6
:101F00000E940603F801878190858B579042F1F477
:101F1000F80163857485CE01019658D182E490E280
:101F20000E9406036981662389F06E01F2E0CF0EFC
:101F3000D11CE12CF12CC7010E9469042FEFE21A99
:101F4000F20AF60161916F016111F5CFF801878105
:101F5000908582589042E1F4F80163857485CE0142
:101F6000019634D16981662399F06E01F2E0CF0EBB
:101F7000D11C6894EE24E4F8F12CC7010E94690496
:101F80002FEFE21AF20AF60161916F016111F5CFAC
:101F9000F8018781908589589042C9F4F8016385DA
:101FA0007485CE01019612D16981662381F07E018C
:101FB000F2E0EF0EF11C00E210E0C8010E9469049B
:101FC0000F5F1F4FF70161917F016111F6CF2F96CF
:101FD000CDBFDEBFDF91CF911F910F91FF90EF90AA
:101FE000DF90CF90089580E990E20E94060380E0A0
:101FF00090E00E9435040E941A038AE990E20C9452
:102000000603CF93DF93CDB7DEB7EC97CDBFDEBF2E
:10201000E0EAF0E087E0828382830E94AA0385DD04
:102020000E9444031092E8221092E9221092EA22C0
:102030001092EB221092EC2281E08093ED220E941C
:102040006605789488E0E0E2F6E086830E94A801C5
:1020500081E090E00E949F010E947D0281E090E07B
:102060000E9474028EE990E20E9436038DE00E9485
:102070002F038AE00E942F0380E092E1AAE7B0E0FC
:102080000197A109B109E1F78AEA90E20E943603BB
:102090008DE00E942F038AE00E942F0380E092E1EE
:1020A000AAE7B0E00197A109B109E1F70E941E0576
:1020B0004B015C010F2EC12CF2E1DF2EFAE7EF2E6F
:1020C000F12CF02D0E941E05DC01CB018819990925
:1020D000AA09BB090497A105B105A0F086EB90E21F
:1020E0000E9436038AE00E942F038DE00E942F0396
:1020F000D701C6010197A109B109E1F70E941E05A8
:102100004B015C010E94C6028823E1F2BE016F5FB1
:102110007F4F8CE390E018DE89818A30B9F08B32F2
:10212000A9F4CE0101960E9406038AE00E94D9011B
:102130008DE00E94D901D701C6010197A109B1091B
:10214000E1F7CE01019661DEC0DE4DDFBE016F5FBB
:102150007F4F82E090E023DEB5CFA1E21A2EAA1BCA
:10216000BB1BFD010DC0AA1FBB1FEE1FFF1FA21747
:10217000B307E407F50720F0A21BB30BE40BF50B44
:10218000661F771F881F991F1A9469F760957095CD
:10219000809590959B01AC01BD01CF0108954CEE57
:1021A00050E21BC0FB01DC010D900020E9F7119704
:1021B00001900D920020E1F70895FB01DC018D9163
:1021C000019080190110D9F3990B0895FB01DC01EE
:1021D00001900D920020E1F70895FA01A191B081DC
:1021E000009719F41097E1F0CD01DC01CD010D90BD
:1021F000002011F4C00113C0FB012191222319F02A
:102200002015D9F7F3CFFB012191201519F41E9267
:10221000119606C02223C1F70D900020A1F7D0012E
:0C222000FA01A193B0830895F894FFCF59
:10222C0000C20100030000000000C2010003000016
:10223C0000000D0A0030313233343536373839412D
:10224C0042434445460061742B61777464613D617F
:10225C002C2249434131222C003A202C0049434185
:10226C0031006A6F6F6F6F6F6F6F6F6F6F6F6F6F24
:10227C006F6F6F6F6F6F6F6F6F6F6F6F6F6F6F6F62
:10228C006F6F6F6F6F6F6F6F6F6F6F6F6F6F6F6F52
:10229C006F6F6F6F6F6F6F6F6F6F0054565F7473EC
:1022AC00300054565F7473310054565F74733200AF
:1022BC00656570726F6D203A20000A200D00617404
:1022CC002B61777464613D632A0061742B617774B0
:1022DC0064613D642A0061742B61777464613D61B3
:1022EC002C2249434131222C3130323130393900E2
:1022FC00656570726F6D5F77726974655F70756C10
:0C230C0073655F636F756E74657273001B
:00000001FF
