S02A00004945534D2D584D45474133324134552D2D4765797365724D6F6E69746F724C6974652E73726563BF
S1130000FDC0000018C100000C94F32714C10000C7
S113001012C1000010C100000EC100000CC100009C
S11300200AC1000008C100000C9422130C943B1375
S113003002C100000C94CE180C94A7130C94D01396
S11300400C94F9130C9422140C944B140C94741403
S11300500C949D140C94C6140C94EF140C94181561
S1130060EAC00000E8C00000E6C00000E4C00000F0
S11300700C94F00E0C94200F0C94160FDCC00000AE
S1130080DAC00000D8C000000C940728D4C00000D7
S1130090D2C00000D0C00000CEC00000CCC0000020
S11300A0CAC00000C8C00000C6C00000C4C0000030
S11300B0C2C00000C0C000000C94F1180C94DB1600
S11300C00C9404170C942D170C9456170C947F174A
S11300D00C94A817B0C00000AEC00000ACC0000073
S11300E0AAC00000A8C000000C94B00F0C94E00F4C
S11300F00C94D60FA0C000009EC000009CC000005D
S11301000C94DF2798C000000C941B2894C00000B6
S113011092C0000090C000008EC000008CC000009F
S11301208AC0000088C0000086C0000084C00000AF
S113013082C000000C9441150C946A150C9493151C
S11301400C94BC150C94E5150C940E160C943716EF
S11301500C9460160C9489160C94B2166CC00000B2
S11301606AC0000068C0000066C0000064C00000EF
S113017062C0000060C000005EC000005CC00000FF
S11301805AC0000058C0000056C0000054C000000F
S113019052C0000050C000004EC000004CC000001F
S11301A04AC0000048C0000046C0000044C000002F
S11301B042C0000040C000003EC000003CC000003F
S11301C03AC0000038C0000036C0000034C000004F
S11301D032C0000030C000002EC000002CC000005F
S11301E02AC0000028C0000026C0000024C000006F
S11301F022C0000020C000001EC0000011241FBE49
S1130200CFEFDFE2DEBFCDBF13E2A0E0B0E2EAEB66
S1130210F6E602C005900D92A43AB107D9F72DE293
S1130220A4EAB3E201C01D92A539B207E1F70E9426
S11302302F280C945B33E4CECF93DF93EC01E09151
S1130240BD24F091BE24309711F080E0099581E03F
S11302508093C5248093C6248093B8241092B1243B
S11302601092B4241092B5244FEF5FEF6FEF7FE745
S11302704093AD245093AE246093AF247093B02484
S11302801092A7241092A824C093A524D093A62446
S11302901092A4248093A4231092AA241092AB2435
S11302A01092AC241092B2241092B3241092B7246A
S11302B082E00E94E91B68E070E082E0DF91CF9168
S11302C00C94C71B2F923F924F925F926F927F9232
S11302D08F929F92AF92BF92CF92DF92EF92FF9252
S11302E00F931F93CF93DF93CDB7DEB7AA97CDBFFC
S11302F0DEBF0E94BF1097FD15C38A309105F9F047
S11303008D309105E1F02091A4232111F2CF909139
S1130310A424E92FF0E0EC55FC4D8183892F8F5FF5
S11303208093A424E82FF0E0EC55FC4D11828E3F1D
S113033001F71092A42481E08093A423DACF1092D1
S1130340A4238091A4248823A1F21092A42462E11E
S113035070E285EA93E20E944532009739F4809175
S1130360A5249091A624019721F653C165E170E27A
S113037085EA93E20E944532009751F48091A524C6
S11303809091A624019709F0B4CF82E090E04DC18A
S11303906AE170E285EA93E20E944532009709F42B
S11303A03BC168E270E285EA93E20E94453200971D
S11303B009F42CC068E370E285EA93E20E944532B6
S11303C0009709F423C069E470E285EA93E20E948D
S11303D04532009709F41AC066E570E285EA93E2B3
S11303E00E944532009709F411C065E670E285EA7F
S11303F093E20E944532009709F408C06FE670E268
S113040085EA93E20E944532009751F48091A52435
S11304109091A624019709F06CCF84E090E005C187
S113042065E770E285EA93E20E944532009739F469
S113043021E030E02093B4243093B5245ACF6FE701
S113044070E285EA93E20E944532009739F482E033
S113045090E08093B4249093B5244BCF69E870E284
S113046085EA93E20E944532009721F481E080936B
S1130470B6243FCF48E050E067EA70E285EA93E2B1
S11304800E944E320097C1F54AE050E060E070E00F
S11304908DEA93E20E940B316B017C0183E090E0D2
S11304A08093A5249093A624C114D104E104F104FB
S11304B009F438C20E94B50B970186010B5F1F4FE8
S11304C02F4F3F4F061717072807390760F097018A
S11304D08601055011092109310960177107820746
S11304E0930708F01FC2C701B6010E94400B80EBBE
S11304F090E20E94881016C247E050E061EC70E27E
S113050085EA93E20E944E32009759F58CEA93E211
S11305100E94FA316B017C0183E090E08093A52472
S11305209093A6248091AD249091AE24A091AF2401
S1130530B091B0248C159D05AE05BF054CF083E049
S113054090E07ADEE091BD24F091BE2480E009952C
S1130550C092AD24D092AE24E092AF24F092B024A5
S1130560E1C14CE050E069EC70E285EA93E20E945C
S11305704E320097F1F48091A5249091A62401971E
S113058019F485E090E002C080E090E055DEE0914F
S1130590BD24F091BE2480E009951092AD24109200
S11305A0AE241092AF241092B02481E08093A92449
S11305B0A0CE4AE050E066ED70E285EA93E20E9444
S11305C04E32009771F481E08093B124E091BD2410
S11305D0F091BE2409958091A724882309F489CE3B
S11305E016C04AE050E061EE70E285EA93E20E94B0
S11305F04E320097F9F41092B124E091BD24F091A9
S1130600BE2480E009958091A724882329F01092C4
S1130610A72483E090E009C08091A5249091A624AA
S1130620019709F066CE85E090E08093A52490932D
S1130630A62478C14AE050E06CEE70E285EA93E2C9
S11306400E944E32009709F0A8C00FEA13E2412C31
S1130650512C32010FC0AAE0B0E0A30192010E9424
S1130660F5302F01662457FC6094762C460E571EF5
S1130670681E791ED801ED918D01FF27E7FDF095E5
S1130680F097EA30F10538F3A9A7BAA7CD01FC0128
S1130690019620812C32D9F7DF011D925D01312CA6
S11306A001C03394EE24E394F12CEC0EFD1EB8E06B
S11306B03B9EE00CF11C1124F701A082B182F501EC
S11306C02E2F9F2F8191882309F453C08C32C1F7B8
S11306D010C16401D4018C91BFEF8B1A9B0A88234B
S11306E009F447C08C32A9F70BC1F70112821382B7
S11306F0C4010E94FA31D70114966D937D938D93B2
S11307009C93179728C067EF70E2C8010E94453296
S1130710009779F422E030E0F7012283338381E00B
S1130720D60111969C91943509F080E0F7018483F9
S113073012C06CEF70E2C8010E9445320097C9F400
S1130740E1E0F0E0D7011296ED93FC931397149631
S11307508D929C921597D60111968C9111978823AE
S113076041F011961C92BEEFCB16BFEFDB0609F0E9
S113077098CF332009F4BDCDE091C124F091C22477
S1130780309709F4B6CD8E010F5F1F4F232D49A575
S11307905AA5C301B2010995ACCD4AE050E060E02E
S11307A071E285EA93E20E944E32009709F0A1CDEE
S11307B00FEA13E2812C912C54010FC0AAE0B0E09F
S11307C0A50194010E94F5304F01AA2497FCA0943E
S11307D0BA2C860E971EA81EB91ED801ED918D0164
S11307E0FF27E7FDF095F097EA30F10538F31D0196
S11307F0CD01FC01019620812C32D9F711926F01B1
S1130800FC01019620812C32D9F7DF011D922D01C4
S113081000E001C00F5FEE24E394F12CEC0EFD1E0A
S1130820B6E0B09FE00CF11C1124D201FD018D91C2
S1130830882309F44CC08C32C9F76DC06BE071E2B7
S1130840C2010E944532009771F4F70110821182AF
S1130850C3010E94FA31D70112966D937D938D9353
S11308609C93159722C067EF70E2C2010E94453243
S1130870009769F422E030E0F7012083318381E0BE
S1130880143509F080E0D70112968C930EC06CEFFA
S113089070E2C2010E9445320097C9F421E030E0C1
S11308A0F7012083318362827382F3019E2F2F2FFD
S11308B08191811109C0492E522ED2011D922D0120
S11308C0109709F0A7CF03C08C3281F7F4CFE091E1
S11308D0BF24F091C024309709F40BCDEE24E394A7
S11308E0F12CEC0EFD1E9601A101C501B401099580
S11308F000CD022F192FF80111928F014F01E9CE7B
S1130900D6011C926BE071E2C8010E944532009747
S113091009F4EBCEF8CEDF011D923D0111811111D6
S11309208DCFD5CFAA96CDBFDEBFDF91CF911F91DA
S11309300F91FF90EF90DF90CF90BF90AF909F907A
S11309408F907F906F905F904F903F902F9008957D
S1130950CF93DF93EC0133E0660F771F3A95E1F70D
S113096083E00E94C31B11C083E00E94C91B88233B
S113097039F085E090E08093A5249093A6240BC0E1
S1130980A1DC209711F0FE0109958091A524909196
S1130990A624019749F383E0DF91CF910C94E91BDE
S11309A0CF93DF93EB0161E171E20E94E510BE0198
S11309B00E94E51064E171E2DF91CF910C94E5109F
S11309C0EF92FF920F931F93CF93DF93EC017B0180
S11309D08A0178DC8091A5249091A624892B31F595
S11309E081E090E08093A5249093A624C7010E94FF
S11309F0CF108DE00E94C910B801CE01A9DF81E0BB
S1130A002091A5243091A6242330310509F080E0FB
S1130A101092A5241092A624811104C09091AA24B6
S1130A209F5F01C090E09093AA2401C080E0DF9111
S1130A30CF911F910F91FF90EF900895CF93C4E051
S1130A401092A4231092A4243DDC41E050E063E51D
S1130A5070E280E090E0B4DF811103C0C15081F7FF
S1130A6001C081E0CF910895BF92CF92DF92EF92BF
S1130A70FF920F931F93CF93DF93CDB7DEB76097A9
S1130A80CDBFDEBF7C016B018A011CDC8091A524F3
S1130A909091A624892B09F066C081E090E08093B0
S1130AA0A5249093A62468E671E083E00E94C31B0A
S1130AB087E191E20E94CF1064E271E28FEF0E941D
S1130AC0E510B82E52D62AE030E0AE014F5F5F4FFA
S1130AD00E94D132BC018B2D0E94E510B60160DF6B
S1130AE0D82E4AE050E0BE016F5F7F4FF801848149
S1130AF095810E946B32BC018D2D0E94E510D82E89
S1130B00F80120853185232B69F061E171E20E94AF
S1130B10E510F801608571850E94E51062E20E948B
S1130B20DA10D82E88E291E20E94CF10AD2DA29562
S1130B30AF70B0E0A352BE4D8C910E94C910ED2D50
S1130B40EF70F0E0E352FE4D80810E94C910E09204
S1130B50C324F092C42481E08093A8248DE00E94F1
S1130B60C91081E001C080E06096CDBFDEBFDF9197
S1130B70CF911F910F91FF90EF90DF90CF90BF9096
S1130B8008958F929F92AF92BF92CF92DF92EF928D
S1130B90FF920F931F93CF93DF93CDB7DEB7609788
S1130BA0CDBFDEBF6C018B01B42E922EA32E8ADB47
S1130BB08091A5249091A624892B09F095C081E009
S1130BC090E08093A5249093A62468E671E083E0E6
S1130BD00E94C31B87E191E20E94CF1064E68FEF6D
S1130BE00E94DA1063E60E94DA10B801D9DE182FE9
S1130BF04AE050E0EE24E394F12CEC0EFD1EB70124
S1130C008B2D90E00E94F432BC01812F0E94E510EC
S1130C10882E092D1A2D45C061E171E2882D0E94AC
S1130C20E510F801608171810E94E510F8012281CC
S1130C30338121303105B9F020F02230310551F5EE
S1130C401CC06DE271E20E94E510A82EF8016481D7
S1130C507581868197812AE030E0A7010E948A325B
S1130C60BC018A2D07C065E371E20E94E510F8011A
S1130C70648175810E94E5100DC06BE371E20E94EE
S1130C80E510F8019481992311F064E501C066E44C
S1130C900E94DA1062E20E94DA10882EBA94085F89
S1130CA01F4FB110B9CF88E291E20E94CF10A82D56
S1130CB0A295AF70B0E0A352BE4D8C910E94C910B2
S1130CC0E82DEF70F0E0E352FE4D80810E94C910E0
S1130CD081E08093A824C092C324D092C4248DE0E0
S1130CE00E94C91081E001C080E06096CDBFDEBFE4
S1130CF0DF91CF911F910F91FF90EF90DF90CF90F4
S1130D00BF90AF909F908F9008956F927F928F9233
S1130D109F92AF92BF92CF92DF92EF92FF920F9386
S1130D201F93CF93DF93CDB7DEB76097CDBFDEBF00
S1130D305C0177E3772E88248394912C77C010E0AC
S1130D40709EF001719EF00D1124E953FB4DC4A86F
S1130D50D5A8E6A8F7A860ACB5DA8091A52490914F
S1130D60A624892B09F068C08092A5249092A62419
S1130D7087E191E20E94CF10662011F061E601C084
S1130D806EE68FEF0E94DA10709EB001719E700DB6
S1130D90112467537B4D04DE182F2AE030E0AE01A6
S1130DA04F5F5F4FC701B6010E94D132BC01812F52
S1130DB00E94E510182F88E291E20E94CF10A12F23
S1130DC0A295AF70B0E0A352BE4D8C910E94C910A1
S1130DD01F70E12FF0E0E352FE4D80810E94C910A4
S1130DE01092A8248DE00E94C9106DE270E0C50144
S1130DF0AFDD21E08091A5249091A624039709F00A
S1130E0020E01092A5241092A624211104C0809100
S1130E10AB248F5F01C080E08093AB24222361F078
S1130E208091C7248F5F87708093C7240091C72463
S1130E308091C824081383CF6096CDBFDEBFDF91B5
S1130E40CF911F910F91FF90EF90DF90CF90BF90C3
S1130E50AF909F908F907F906F900895CF92DF9284
S1130E60EF92FF92CF93DF9369017A012091C82416
S1130E70C22FCF5FC7709091C724C917F9F0D7E389
S1130E80D29F90011124D901A953BB4DD8968C93BC
S1130E9042E350E0C90187539B4D0E945C32E091CC
S1130EA0C824DE9FF0011124E953FB4DC4AAD5AA3E
S1130EB0E6AAF7AAC093C82481E001C080E0DF91CC
S1130EC0CF91FF90EF90DF90CF9008950F931F93F1
S1130ED0CF93DF93EC018B0182E491E20E948810AE
S1130EE0B801882777FD8095982F0E94991080E09B
S1130EF090E00E949310E091BB24F091BC2480E028
S1130F0090E009951AE089E491E20E94CF1068E02C
S1130F1070E080E00E94C31B06C00E94BF102097AF
S1130F2011F0FE01099580E00E94C91B8823A9F3F2
S1130F30115049F780E090E07FD91092A92482E013
S1130F408093250618E002E00093270661E070E034
S1130F5080E00E94C31B04C0209711F0FE01099594
S1130F6080E00E94C91B8823B9F3115069F760EE31
S1130F7071E080E00E94C31B05C0A4D9209711F042
S1130F80FE0109958091A924882341F080E00E9404
S1130F90E91B8091A924811107C02CC080E00E9424
S1130FA0C91B882351F3F2CF49DD882319F160E18D
S1130FB070E080E00E94C31B4FEF5FEFBA014093E3
S1130FC0AD245093AE246093AF247093B024E09189
S1130FD0BB24F091BC2481E090E0099505C072D94E
S1130FE0209711F0FE01099580E00E94C91B882317
S1130FF0B1F30DC023DD13E045E050E06BE471E292
S1131000CE01DEDC811103C01150B1F70BC0E091B9
S1131010BB24F091BC2481E090E0DF91CF911F913B
S11310200F910994E091B924F091BA240995EFCF76
S11310301F93CF93DF93EC018091C3249091C42438
S1131040892B09F46FC03ED92091A5243091A624A0
S113105021303105A9F483E00E94C91B882309F4D7
S113106051C01092A5241092A6248091AB248F5FC6
S11310708093AB24E091C324F091C42480E03DC06C
S11310808091A824882319F11092A824E091C32404
S1131090F091C4242230310521F41092AB2481E074
S11310A00CC02330310519F41092AB2405C0809193
S11310B0AB248F5F8093AB2480E009951092C32406
S11310C01092C4241092A5241092A6241BC081E07F
S11310D02330310509F080E01092A5241092A62453
S11310E0811104C09091AB249F5F01C090E0909364
S11310F0AB24E091C324F091C42409951092C32435
S11311001092C4248091AB24833028F48091AA24C3
S1131110833008F432C16FEF72E0CE01DF91CF91DA
S11311201F91D4CECFD88091C524882309F451C00F
S1131130C9D88091A5249091A624892B09F044C094
S113114081E090E08093A5249093A62487E191E226
S11311500E94CF1064E68FEF0E94DA106AE20E94C8
S1131160DA10182F88E291E20E94CF10A12FA295E5
S1131170AF70B0E0A352BE4D8C910E94C9101F7095
S1131180E12FF0E0E352FE4D80810E94C9108DE012
S11311900E94C91063E070E0CE01DADB21E08091A7
S11311A0A5249091A624039709F020E01092A52489
S11311B01092A624211104C08091AA248F5F01C03B
S11311C080E08093AA2401C020E081E082278093FC
S11311D0C5248091C624882309F44AC073D8809119
S11311E0A5249091A624892B09F03DC081E090E0CC
S11311F08093A5249093A62487E191E2D0D763E657
S11312008FEFD8D76AE2D6D7182F88E291E2C7D7F2
S1131210A12FA295AF70B0E0A352BE4D8C91B9D767
S11312201F70E12FF0E0E352FE4D8081B2D78DE0D4
S1131230B0D763E070E0CE018BDB21E08091A52480
S11312409091A624039709F020E01092A52410920F
S1131250A624211104C08091AA248F5F01C080E0DC
S11312608093AA2401C020E081E082278093C624D1
S11312708091B824882351F041E050E061E671E2A6
S1131280CE019EDB91E098279093B82482E00E94DF
S1131290C91B882309F460C08091A5249091A624D9
S11312A0892B59F08091AC248F5F8093AC248C33CC
S11312B009F052C069E173E048C01092AC248091F7
S11312C0B2249091B3248130910511F118F0029762
S11312D0B1F50BC04AE050E067E771E2CE0170DB84
S11312E0882341F182E090E00EC04AE050E063E8D8
S11312F071E2CE0165DB8823E9F08091B12481118C
S113130012C081E090E08093B2249093B3240FC084
S113131081E08093A7244AE050E060E971E2CE01C5
S11313204FDB882339F01092B2241092B324109228
S1131330B72405C08091B7248F5F8093B724809130
S1131340B724883749F46FE373E0CE01BFDDE09141
S1131350B924F091BA2409958091AB24833020F408
S11313608091AA24833020F066E473E0CE01AEDDE0
S1131370CE01DF91CF911F91C8CCDF91CF911F9106
S113138008950F931F938093B9249093BA241092D5
S1131390C3241092C4246093BB247093BC24409350
S11313A0BD245093BE240093C1241093C2242093DF
S11313B0BF243093C0241092C5241092C62485E122
S11313C091E0E4EAF3E2DF019C011D9221503040F8
S11313D0E1F780E090E00E941C011092C724109273
S11313E0C82423D682E090E017D6C9D697FFFDCF54
S11313F014E024DB882309F456C01092B62442E09A
S113140050E06DE971E280E090E0DADA811105C024
S1131410E091B924F091BA2409958091B6248823E7
S113142061F042E050E063EA71E280E090E0C8DA03
S1131430E091B924F091BA24099542E050E064EBBC
S113144071E280E090E0BCDA811105C0E091B9243A
S1131450F091BA2409958091B4249091B524009711
S113146009F409C0029761F44DE250E061EC71E2C5
S113147080E090E0A5DAE091B924F091BA240995CE
S113148060E170E080E00E94C31B80E00E94C91B01
S11314908823D9F341E050E060E971E280E090E014
S11314A08FDA81E015C064E070E080E00E94C31B25
S11314B080E00E94C91B8823D9F341E050E06FEC1F
S11314C071E280E090E07CDA115009F092CF80E084
S11314D01F910F910895682788E02CE8962F969520
S11314E060FF03C0692F622701C0692F8150B1F7E3
S11314F0862F08951F93CF93DF93EC01162F80E07E
S113150002C06991E8DF1150E0F7DF91CF911F919C
S11315100895FF920F931F93CF93DF9390918126A9
S1131520809182269923E1F028E0829FC001112452
S11315308C5F924D8CD3882339F084E42AD388239A
S113154019F01092812681C08091822690E0019644
S11315506091842D70E00E94C0308093822675C013
S113156048E0849FC00111248C5F924D70D388237E
S113157009F447C08EEB0DD3882309F442C003E875
S113158016E2C0E0D0E0F12CCE018D57994D0CD37A
S1131590882359F0F80161918F018F2D9CDFF82E7B
S11315A02196C930D10581F702C0FF24FA94209115
S11315B0822630E0F901E457F94D80818A3F10F426
S11315C08F5F8083F1101DC09091842680E040914C
S11315D08326842B8035F5E09F0799F080364FEF02
S11315E094077CF08135E5E09E075CF4F901EE0F89
S11315F0FF1FEC52F44D80839183F901E457F94DB8
S113160010824091842D8091822690E00196642F6F
S113161070E00E94C0308093822681E0809381260E
S1131620442399F08CE896E2A4EDBBE2FC0120E0AF
S113163030E807C05191533018F02D933C93119723
S113164012965E2F581B5417A8F3DF91CF911F9168
S11316500F91FF9008951092D32B1092822681E06F
S113166080938126ECE8F6E2A4EDBBE280E090E80A
S113167011928D939D9326E2EC39F207C9F70895F0
S11316804F925F926F927F928F929F92AF92BF928E
S1131690CF92DF92EF92FF921F93CF93DF9300D00C
S11316A000D0CDB7DEB76B017C011FB7F8948091F1
S11316B09C2690919D26A0919E26B0919F268C15E4
S11316C09D05AE05BF05E9F180909C2690909D266E
S11316D0A0909E26B0909F26C701B601605E734E0F
S11316E08F4F9F4F20E8422E21E5522E66246394AB
S11316F0712CA30192010E94D33069837A838B8376
S11317009C8320E2820E2CE1921EA11CB11CC50117
S1131710B401A30192010E94D33029813A814B8103
S11317205C81261737074807590718F481E080932E
S1131730A026C0929C26D0929D26E0929E26F092EE
S11317409F261FBF2496CDBFDEBFDF91CF911F918F
S1131750FF90EF90DF90CF90BF90AF909F908F90CD
S11317607F906F905F904F9008950F931F938FB762
S1131770F89400919C2610919D2620919E263091EC
S11317809F268FBFB801C9011F910F910895CF9370
S1131790CFB7F89480919C2690919D26A0919E2687
S11317A0B0919F26892B8A2B8B2BC1F180919C268B
S11317B090919D26A0919E26B0919F260196A11DF1
S11317C0B11D80939C2690939D26A0939E26B09352
S11317D09F268091A02681111CC060919C26709147
S11317E09D2680919E2690919F26605E734E8F4F1A
S11317F09F4F20E831E541E050E00E94D33021E0E2
S113180030E0672B682B692B11F020E030E0C90130
S113181002C081E090E081708093A026CFBFCF9179
S11318200895CF93DF93CDB7DEB72B97CDBFDEBF3F
S113183088E1898382ED8A8384EB8B8382E090E064
S11318408D839E831F82188619861A861B8640E024
S1131850BE016F5F7F4F80E894E00E942C1921E065
S1131860892B09F020E0822F2B96CDBFDEBFDF91BC
S1131870CF910895CF93DF93CDB7DEB72B97CDBF2C
S1131880DEBF28E129831A821D821E828F839887F6
S113189081E090E089879A871B8641E0BE016F5FF3
S11318A07F4F80E894E00E942C1921E0892B09F0F5
S11318B020E0822F2B96CDBFDEBFDF91CF9108951C
S11318C00F931F93CF93DF93CDB7DEB72C97CDBF84
S11318D0DEBF98E1998395EA9A838B8382E090E056
S11318E08D839E838E01045F1F4F0F83188781E0D1
S11318F090E089879A871B8641E0BE016F5F7F4F26
S113190080E894E00E942C19892B19F007C0C801C3
S1131910B1DF8C8580FDFBCF81E001C080E02C9697
S1131920CDBFDEBFDF91CF911F910F9108950F932B
S11319301F93CF93DF93CDB7DEB72C97CDBFDEBF18
S113194088E1898384EB8A8381E090E08D839E83A0
S11319501F82188619861A861B8640E0BE016F5FB7
S11319607F4F80E894E00E942C19892BA1F4CE01CA
S11319700C9680DF8C8580FDFACF81FF07C08695A9
S1131980869591E08927082F017002C000E010E0DD
S1131990802F817001C080E02C96CDBFDEBFDF9127
S11319A0CF911F910F9108956F927F928F929F9282
S11319B0AF92BF92CF92DF92EF92FF920F931F9359
S11319C0CF93DF93CDB7DEB72D97CDBFDEBF109297
S11319D0AB268091AA268111BFC088E1898381EE5C
S11319E08A8380EF8B8382E090E08D839E831F82C5
S11319F0188619861A861B8640E0BE016F5F7F4FEA
S1131A0080E894E00E942C19CE010C9633DF8C857B
S1131A1080FDFACF8CDF811105C01092A9261092A7
S1131A20AA26A5C0FEDE80EF4BDF66246394712CEA
S1131A30A12CBB24B39488E1982E98E7892E22E048
S1131A40E22EF12C8E01045F1F4FCC24C394D12CC1
S1131A502B2D30E08091A926992787FD9095281792
S1131A6039074CF4E72DF0E0EF55F94D80818621DC
S1131A7041E031F404C041E02817390709F040E09F
S1131A804D87CFDE1C8699828A824D85442311F0CE
S1131A9080E801C080E08B83ED82FE820F8318878B
S1131AA0C986DA861B8641E0BE016F5F7F4F80E8FE
S1131AB094E00E942C19892B69F08C8586FB2227DF
S1131AC020F9982F991F9927991F85FD07C009C0F0
S1131AD0C801D0DE8C8580FDFBCFEFCF222331F00F
S1131AE02CC0211103C0992351F002C0992341F065
S1131AF0E72DF0E0EF55F94D8081862909C0AB2C24
S1131B00E72DF0E0EF55F94D962D909580818923CE
S1131B108083B394660C69F4E72DF0E0EF55F94D3A
S1131B2060818091AB26D7DC8093AB2673946624C6
S1131B30639487E0871508F08BCF80E48B1560F4FD
S1131B408091AB26811108C0A092A926A1100AC0D9
S1131B5081E08093AA2606C01092A9261092AA2694
S1131B6080E005C08091A1268823B1F381E02D9601
S1131B70CDBFDEBFDF91CF911F910F91FF90EF900A
S1131B80DF90CF90BF90AF909F908F907F906F9099
S1131B900895CF93C82F45DE882319F08C2FCF9159
S1131BA08FCE80E0CF910895EF92FF920F931F9311
S1131BB0CF93DF93CDB7DEB76797CDBFDEBF7C0190
S1131BC088E18C8786E98D8721E030E0288B398B8A
S1131BD08E01095E1F4F0A8B1B8B2C8B3D8B1E8A3B
S1131BE041E0BE01645F7F4F80E894E00E942C19BD
S1131BF0892B19F020C0C8013DDE8F8980FDFBCF01
S1131C0088E1898381EE8A838B8382E090E08D83EF
S1131C109E83EF82F88681E090E089879A871B860D
S1131C2041E0BE016F5F7F4F80E894E00E942C1971
S1131C3021E0892B09F020E0822F6796CDBFDEBF1B
S1131C40DF91CF911F910F91FF90EF9008950F9323
S1131C501F93CF93DF93182F092F69DE811102C0E0
S1131C6080E00EC085E52CDE8823D1F3C12FD02F70
S1131C7018E0899125DE882399F31150D1F781E08A
S1131C80DF91CF911F910F910895CF92DF92EF9240
S1131C90FF920F931F93CF93DF93CDB7DEB72C97AB
S1131CA0CDBFDEBF1092842D88E1898380EF8A83C3
S1131CB081E090E08D839E831F82188619861A86A0
S1131CC01B8640E0BE016F5F7F4F80E894E00E9476
S1131CD02C19892B51F41C86CE010C96CBDD8C85F6
S1131CE080FDF9CF877F803119F08091842D6CC0FD
S1131CF098DD8823D1F31091842D1092A926109297
S1131D00AA2652DE882389F328E0129FD0011124E9
S1131D10AC5FB24D88E0E1EAF6E201900D928A955B
S1131D20E1F708E01091842D1F5F1093842D10318A
S1131D3048F0F090842D44E05DE280E090E061E1C1
S1131D40E62E3FC031DE8823A1F338E0139FD00193
S1131D501124AC5FB24DE1EAF6E2802F01900D92BE
S1131D608A95E1F7DFCFE89E6001E99ED00C11244B
S1131D70E4EFFBE2CE0EDF1ED60120E030E0BA0134
S1131D80620F731FFB016081062F02950F7010E034
S1131D9003521E4DF80170817C936F7070E06352A2
S1131DA07E4DFB01608111966C93119712962F5F03
S1131DB03F4F2830310519F7F601108A0196485F24
S1131DC05F4F8F1580F291CF2C96CDBFDEBFDF9190
S1131DD0CF911F910F91FF90EF90DF90CF900895D6
S1131DE01F920F920FB60F9211242F938F939F93EC
S1131DF0EF93FF939091B00880913C278F5F8F7091
S1131E0020913D27821741F0E0913C27F0E0E45512
S1131E10F94D908380933C27FF91EF919F918F918F
S1131E202F910F900FBE0F901F9018951F920F9235
S1131E300FB60F9211240F900FBE0F901F9018959C
S1131E401F920F920FB60F9211248F939F93EF93CB
S1131E50FF9390913E2780913F27981306C080916D
S1131E60B3088C7F8093B3080EC0E0913F27F0E065
S1131E70E455F94D80898093B00880913F278F5FA6
S1131E808F7780933F27FF91EF919F918F910F90D0
S1131E900FBE0F901F901895E0EBF8E093818295A8
S1131EA0807F9F7C892B83830895CF93DF93CDB765
S1131EB0DEB72997CDBFDEBF89E0E0E0F0E2DE01C6
S1131EC0119601900D928A95E1F710923D27109298
S1131ED03C2710923F2710923E27BE016F5F7F4F31
S1131EE080EB98E00E94631AE0EBF8E083818F7C3A
S1131EF083838381837F838383818C7F81608383D6
S1131F002996CDBFDEBFDF91CF910895CF93C82F1F
S1131F1068E070E081E00E94C31B02C00E94B1250A
S1131F2090913E279F5F9F7780913F27981791F06C
S1131F30E0913E27F0E0E455F94DC08B90933E27A5
S1131F408091B3088C7F81608093B30881E0CF9146
S1131F500C94E91B81E00E94C91B882309F3DECF9E
S1131F601F920F920FB60F9211242F938F939F936A
S1131F70EF93FF939091A00A809140288F5F8F7711
S1131F8020914128821741F0E0914028F0E0E05C84
S1131F90F84D908380934028FF91EF919F918F910A
S1131FA02F910F900FBE0F901F9018951F920F92B4
S1131FB00FB60F9211240F900FBE0F901F9018951B
S1131FC01F920F920FB60F9211248F939F93EF934A
S1131FD0FF939091422880914328981306C08091E2
S1131FE0A30A8C7F8093A30A0EC0E0914328F0E0FB
S1131FF0E054F84D80818093A00A809143288F5F3C
S11320008F7780934328FF91EF919F918F910F9049
S11320100FBE0F901F901895E0EAFAE09381829525
S1132020807F9F7C892B83830895CF93DF93CDB7E3
S1132030DEB72997CDBFDEBF89E0E9E0F0E2DE013B
S1132040119601900D928A95E1F710924128109211
S113205040281092432810924228BE016F5F7F4FA0
S113206080EA9AE00E94631AE0EAFAE083818F7CB6
S113207083838381837F838383818C7F8160838354
S11320802996CDBFDEBFDF91CF910895909141286D
S113209080914028981771F0E0914128F0E0E05CCD
S11320A0F84D2081809141288F5F8F77809341285C
S11320B030E002C02FEF3FEFC9010895CF93C82F3E
S11320C068E070E081E00E94C31B02C00E94B12559
S11320D0909142289F5F9F7780914328981791F0B1
S11320E0E0914228F0E0E054F84DC08390934228F8
S11320F08091A30A8C7F81608093A30A81E0CF91B1
S11321000C94E91B81E00E94C91B882309F3DECFEC
S1132110CF93DF93EC0101C0F9DE89918111FCCFEB
S1132120DF91CF910895009709F0F2DF8EEE91E2EE
S1132130EFCFCF92DF92EF92FF926B017C018AE0A6
S1132140C816D104E104F10458F0C701B6012AE02D
S113215030E040E050E00E94D330CA01B901E9DF29
S1132160C701B6012AE030E040E050E00E94D330DD
S1132170862F805DFF90EF90DF90CF90C7CECF93F6
S1132180DF9384DFEC0197FFC1DECE01DF91CF91B5
S11321900895CF93C82F92DF8C2FCF91B7CECF93D2
S11321A0DF93EC0101C0F5DF89918111FCCFDF9150
S11321B0CF910895CF93DF93C62F8DD9D82F8C2F2D
S11321C0E8DF8D2FDF91CF910895CF93DF93EB015B
S11321D001C0F0DF69916111FCCFDF91CF910895C7
S11321E0AB01982F969596959695877061E070E06F
S11321F001C0660F8A95EAF720E2929FC00111247C
S11322009A5F9AC063E070E08BE0EADF63E070E01D
S113221085E0E6DF63E070E083E2E2DF60E070E047
S113222082E2DEDF63E070E083E2DADF60E070E048
S113223082E2D6DF63E070E087E1D2DF60E070E045
S113224086E1CEDF63E070E089E0CADF63E070E03E
S113225086E0C6DF61E070E088E1C2DF61E070E043
S113226089E1BEDF63E070E08BE1BADF60E070E03B
S113227082E1B6DF60E070E08AE1B2DF60E070E046
S11322808AE0AEDF60E070E082E0AACF9FB7F89406
S1132290E0E5F0E02081822B80839FBF0895909138
S11322A051009823E1F308959FB7F894E0E5F0E036
S11322B08681897F868386818683E0E6F0E080815B
S11322C0816080839FBF08958FEF80937000809317
S11322D071008093720080937300809374008093E4
S11322E075008093760082E0D1DF82E0D8DF84E05D
S11322F0CDDF84E0D4DFD8DF61E080E490E03ED03D
S11323009FB7F894E0E5F0E080818E7F80839FBFE3
S113231084E0BCDF84E0C3DF85E0E0E4F0E08383B5
S113232008952FB7F894FC01E059FF4F6095808120
S1132330862380832FBF0895FC0180E090E0262F40
S113234030E0D901082E02C0B595A7950A94E2F7AA
S1132350A0FF05C0DF01A80FB91F50965C9301963A
S11323608830910571F740FF07C041FF02C06583C3
S113237001C0668361830895628308951BBEFC01D6
S113238028ED24BF608308958091CF0187FDFCCFA1
S113239008951F93CF93DF93C0ECD1E01A858A8709
S11323A061E08BEC91E0EADF1A87DF91CF911F9116
S11323B00895EF92FF920F931F93CF93DF9300D072
S11323C000D0CDB7DEB78C01CB014B835C8369832E
S11323D09A83DADF8CECE82EFF24F394F701208152
S11323E0286020839801305F4B815C81B901898129
S11323F09A810E943532F7018081877F80832496F9
S1132400CDBFDEBFDF91CF911F910F91FF90EF9071
S11324100895BADF8091CF0181FF07C086E38093DE
S1132420CA0161E08BEC91E0A9CF0895CF93DF93CB
S113243000D0CDB7DEB76A838983A6DF2CEC31E008
S1132440D9019C9198609C938981A82FB0E0B05FDA
S11324506A816C93F9018081877F80830F900F904C
S1132460DF91CF910895EF92FF920F931F93CF9333
S1132470DF9300D0CDB7DEB7182F20ECE22EFF2477
S1132480F394F701028569839A83C3DF7DDF698151
S1132490812FCCDFF70112829A819183108385E327
S11324A0828761E08BEC91E069DFF70102870F908E
S11324B00F90DF91CF911F910F91FF90EF900895AE
S11324C01F93CF93DF93EC015FDF10E06991812FBD
S11324D0ADDF1F5F1032D1F7DF91CF911F910895C7
S11324E0CF93DF931F92CDB7DEB789834DDF898108
S11324F020E2829FC0011124E0ECF1E0128291837A
S1132500808385E390E00F90DF91CF9142CFCF920B
S1132510DF92EF92FF920F931F93CF93DF93EC011F
S11325207B018A0124C0CE018F719927892B99F4EC
S11325300032110580F0C701C3DFCE0135E0969566
S113254087953A95E1F7CCDFA09680E2E80EF11C7E
S1132550005211090CC06E01EFEFCE1ADE0AF7012A
S113256061917F01CE017FDF01501109E601011560
S11325701105C9F6DF91CF911F910F91FF90EF9054
S1132580DF90CF900895CF93DF93D82F42DFFCDE06
S1132590C0E06D2F8C2F4ADFCF5FC032D1F7DF91BF
S11325A0CF910895F1DE80E390E0F3CE8FEFEBDF7F
S11325B0F9CF109200042091010420FDFCCF609318
S11325C008047093090480938B2D90938C2D81E0E3
S11325D080930004089521E02093020460930C0486
S11325E070930D0460938F2D7093902D80938D2D97
S11325F090938E2D8091010480FDFCCF82E0809326
S1132600030485E08093020408958093912D9093B0
S1132610922D089564E080E090E083DEE0E0F4E051
S11326208FEF9FEF82879387108611869FB7F89468
S1132630A8E8BDE28C918F5F8C939FBF81E0828379
S1132640808308951F920F920FB60F9211248F93D7
S11326509F93EF93FF93EBE8FDE2808191810196D4
S113266080839183FF91EF919F918F910F900FBE83
S11326700F901F9018951F920F920FB60F9211246E
S1132680CF92DF92EF92FF920F931F932F933F937A
S11326904F935F936F937F938F939F93AF93BF9366
S11326A0EF93FF9360918B2D70918C2D00918D2D64
S11326B010918E2D6017710798F181E080930204C8
S11326C0E091912DF091922D309751F1C090080432
S11326D0D0900904CB01A0E0B0E077276627E12C75
S11326E0F12C6C297D298E299F2920E030E0980166
S11326F011270027C0908F2DD090902DE12CF12C24
S11327000C291D292E293F290617170728073907E1
S113271030F0C901B8016F5F7F4F8F4F9F4F09950C
S1132720FF91EF91BF91AF919F918F917F916F91A5
S11327305F914F913F912F911F910F91FF90EF90D7
S1132740DF90CF900F900FBE0F901F9018951F929F
S11327500F920FB60F9211242F933F934F935F93D1
S11327606F937F938F939F93AF93BF93EF93FF9355
S1132770E0914428F0914528309709F00995FF919C
S1132780EF91BF91AF919F918F917F916F915F91E5
S11327904F913F912F910F900FBE0F901F9018955E
S11327A01F920F920FB60F9211242F933F934F93C2
S11327B05F936F937F938F939F93AF93BF93EF93A5
S11327C0FF93E0914628F0914728309709F0099546
S11327D0FF91EF91BF91AF919F918F917F916F91F5
S11327E05F914F913F912F910F900FBE0F901F90CB
S11327F018951F920F920FB60F9211242F933F93A7
S11328004F935F936F937F938F939F93AF93BF93F4
S1132810EF93FF93E0914828F0914928309709F00D
S11328200995FF91EF91BF91AF919F918F917F9106
S11328306F915F914F913F912F910F900FBE0F9029
S11328401F9018951F920F920FB60F9211242F9379
S11328503F934F935F936F937F938F939F93AF9324
S1132860BF93EF93FF93E0914A28F0914B28309760
S113287009F00995FF91EF91BF91AF919F918F91CD
S11328807F916F915F914F913F912F910F900FBE68
S11328900F901F9018951F920F920FB60F9211244C
S11328A02F933F934F935F936F937F938F939F9354
S11328B0AF93BF93EF93FF93E0914C28F0914D2891
S11328C0309709F00995FF91EF91BF91AF919F91D6
S11328D08F917F916F915F914F913F912F910F90C5
S11328E00FBE0F901F9018951F920F920FB60F9264
S11328F011242F933F934F935F936F937F938F9301
S11329009F93AF93BF93EF93FF93E0914E28F09181
S11329104F28309709F00995FF91EF91BF91AF913E
S11329209F918F917F916F915F914F913F912F91E3
S11329300F900FBE0F901F9018951F920F920FB615
S11329400F9211242F933F934F935F936F937F9331
S11329508F939F93AF93BF93EF93FF93E09150288E
S1132960F0915128309709F00995FF91EF91BF91AB
S1132970AF919F918F917F916F915F914F913F9113
S11329802F910F900FBE0F901F9018951F920F92CA
S11329900FB60F9211242F933F934F935F936F932E
S11329A07F938F939F93AF93BF93EF93FF93E091A4
S11329B05228F0915328309709F00995FF91EF912F
S11329C0BF91AF919F918F917F916F915F914F9143
S11329D03F912F910F900FBE0F901F9018951F924B
S11329E00F920FB60F9211242F933F934F935F933F
S11329F06F937F938F939F93AF93BF93EF93FF93C3
S1132A00E0915428F0915528309709F00995FF91E9
S1132A10EF91BF91AF919F918F917F916F915F9152
S1132A204F913F912F910F900FBE0F901F901895CB
S1132A301F920F920FB60F9211242F933F934F932F
S1132A405F936F937F938F939F93AF93BF93EF9312
S1132A50FF93E0915628F0915728309709F0099593
S1132A60FF91EF91BF91AF919F918F917F916F9162
S1132A705F914F913F912F910F900FBE0F901F9038
S1132A8018951F920F920FB60F9211242F933F9314
S1132A904F935F936F937F938F939F93AF93BF9362
S1132AA0EF93FF93E0915828F0915928309709F05B
S1132AB00995FF91EF91BF91AF919F918F917F9174
S1132AC06F915F914F913F912F910F900FBE0F9097
S1132AD01F9018951F920F920FB60F9211242F93E7
S1132AE03F934F935F936F937F938F939F93AF9392
S1132AF0BF93EF93FF93E0915A28F0915B283097AE
S1132B0009F00995FF91EF91BF91AF919F918F913A
S1132B107F916F915F914F913F912F910F900FBED5
S1132B200F901F9018951F920F920FB60F921124B9
S1132B302F933F934F935F936F937F938F939F93C1
S1132B40AF93BF93EF93FF93E0915C28F0915D28DE
S1132B50309709F00995FF91EF91BF91AF919F9143
S1132B608F917F916F915F914F913F912F910F9032
S1132B700FBE0F901F9018951F920F920FB60F92D1
S1132B8011242F933F934F935F936F937F938F936E
S1132B909F93AF93BF93EF93FF93E0915E28F091DF
S1132BA05F28309709F00995FF91EF91BF91AF919C
S1132BB09F918F917F916F915F914F913F912F9151
S1132BC00F900FBE0F901F9018951F920F920FB683
S1132BD00F9211242F933F934F935F936F937F939F
S1132BE08F939F93AF93BF93EF93FF93E0916028EC
S1132BF0F0916128309709F00995FF91EF91BF9109
S1132C00AF919F918F917F916F915F914F913F9180
S1132C102F910F900FBE0F901F9018951F920F9237
S1132C200FB60F9211242F933F934F935F936F939B
S1132C307F938F939F93AF93BF93EF93FF93E09111
S1132C406228F0916328309709F00995FF91EF917C
S1132C50BF91AF919F918F917F916F915F914F91B0
S1132C603F912F910F900FBE0F901F9018951F92B8
S1132C700F920FB60F9211242F933F934F935F93AC
S1132C806F937F938F939F93AF93BF93EF93FF9330
S1132C90E0916428F0916528309709F00995FF9137
S1132CA0EF91BF91AF919F918F917F916F915F91C0
S1132CB04F913F912F910F900FBE0F901F90189539
S1132CC01F920F920FB60F9211242F933F934F939D
S1132CD05F936F937F938F939F93AF93BF93EF9380
S1132CE0FF93E0916628F0916728309709F00995E1
S1132CF0FF91EF91BF91AF919F918F917F916F91D0
S1132D005F914F913F912F910F900FBE0F901F90A5
S1132D1018951F920F920FB60F9211242F933F9381
S1132D204F935F936F937F938F939F93AF93BF93CF
S1132D30EF93FF93E0916828F0916928309709F0A8
S1132D400995FF91EF91BF91AF919F918F917F91E1
S1132D506F915F914F913F912F910F900FBE0F9004
S1132D601F9018951F920F920FB60F9211242F9354
S1132D703F934F935F936F937F938F939F93AF93FF
S1132D80BF93EF93FF93E0916A28F0916B283097FB
S1132D9009F00995FF91EF91BF91AF919F918F91A8
S1132DA07F916F915F914F913F912F910F900FBE43
S1132DB00F901F9018951F920F920FB60F92112427
S1132DC02F933F934F935F936F937F938F939F932F
S1132DD0AF93BF93EF93FF93E0916C28F0916D282C
S1132DE0309709F00995FF91EF91BF91AF919F91B1
S1132DF08F917F916F915F914F913F912F910F90A0
S1132E000FBE0F901F9018951F920F920FB60F923E
S1132E1011242F933F934F935F936F937F938F93DB
S1132E209F93AF93BF93EF93FF93E0916E28F0913C
S1132E306F28309709F00995FF91EF91BF91AF91F9
S1132E409F918F917F916F915F914F913F912F91BE
S1132E500F900FBE0F901F9018951F920F920FB6F0
S1132E600F9211242F933F934F935F936F937F930C
S1132E708F939F93AF93BF93EF93FF93E091702849
S1132E80F0917128309709F00995FF91EF91BF9166
S1132E90AF919F918F917F916F915F914F913F91EE
S1132EA02F910F900FBE0F901F9018951F920F92A5
S1132EB00FB60F9211242F933F934F935F936F9309
S1132EC07F938F939F93AF93BF93EF93FF93E0917F
S1132ED07228F0917328309709F00995FF91EF91CA
S1132EE0BF91AF919F918F917F916F915F914F911E
S1132EF03F912F910F900FBE0F901F9018951F9226
S1132F000F920FB60F9211242F933F934F935F9319
S1132F106F937F938F939F93AF93BF93EF93FF939D
S1132F20E0917428F0917528309709F00995FF9184
S1132F30EF91BF91AF919F918F917F916F915F912D
S1132F404F913F912F910F900FBE0F901F901895A6
S1132F501F920F920FB60F9211242F933F934F930A
S1132F605F936F937F938F939F93AF93BF93EF93ED
S1132F70FF93E0917628F0917728309709F009952E
S1132F80FF91EF91BF91AF919F918F917F916F913D
S1132F905F914F913F912F910F900FBE0F901F9013
S1132FA01895CF93CFB7F894811528E0920711F4C0
S1132FB061E005C0803428E0920741F462E083E0D8
S1132FC090E0AFD964E083E090E01CC0811529E073
S1132FD0920711F461E005C0803429E0920741F4BE
S1132FE062E084E090E09DD964E084E090E00AC06F
S1132FF081159A4081F461E085E090E092D964E023
S113300085E090E08ED99FB7F8948091862D8F5FEC
S11330108093862D9FBFCFBFCF910895811528E05F
S1133020920729F4609344287093452808958034C6
S113303028E0920729F4609350287093512808954A
S1133040811529E0920729F4609358287093592830
S11330500895803429E0920729F4609364287093DA
S11330606528089581159A4021F460936C28709323
S11330706D280895CF93DF93E0917828F091792813
S1133080848183FF07C08860848383E0838386EF21
S11330909FEF7DC0982F947129F083E083838FEF95
S11330A09FEF75C086FF3DC0A0917A28B0917B2820
S11330B080917C2890917D2814962D913C911597B0
S11330C0821793075CF4A80FB91F11962C912783DC
S11330D0019680937C2890937D285DC080917E2802
S11330E090917F2818962D913C91199782179307F8
S11330F0B0F420918028222321F086818160868388
S11331004AC016960D90BC91A02DA80FB91F2C9102
S11331102783019680937E2890937F283CC083E088
S113312029C087FF32C0A0917A28B0917B28809172
S11331307E2890917F2818962D913C91199782179B
S11331409307F0F427811696CD91DC911797C80F59
S1133150D91F2883019680937E2890937F28189600
S11331602D913C9119978217930718F482E0838379
S113317012C087E0838310928228109283280BC0A8
S113318083E0838389EF9FEF02C08BEF9FEF8093EF
S1133190822890938328DF91CF9108951F920F92F4
S11331A00FB60F9211242F933F934F935F936F9316
S11331B07F938F939F93AF93BF93EF93FF935ADFC4
S11331C0FF91EF91BF91AF919F918F917F916F91FB
S11331D05F914F913F912F910F900FBE0F901F90D1
S11331E018951F920F920FB60F9211242F933F93AD
S11331F04F935F936F937F938F939F93AF93BF93FB
S1133200EF93FF9337DFFF91EF91BF91AF919F91C0
S11332108F917F916F915F914F913F912F910F907B
S11332200FBE0F901F901895FC01DB0114968C9132
S1133230858388EB818381E08483109281281092B6
S1133240822810928328E0EAF0E0828182608283FF
S1133250789480E090E00895FB01009709F44CC055
S1133260309709F449C032852091812802C0311178
S113327046C02111FCCF5FB7F89421E02093812848
S113328020E83FEF20938228309383285FBF809308
S1133290782890937928E0937A28F0937B281092E9
S11332A07C2810927D2810927E2810927F284093CB
S11332B080285081550F24813581232B21F441111D
S11332C001C001C05160FC01568380918228909115
S11332D0832880389F4FC9F300C0E0917828F0918B
S11332E07928848183708130C1F7209182283091BC
S11332F083281092812805C028EF3FEF02C026EFF3
S11333003FEFC90108958F929F92AF92BF92CF92DF
S1133310DF92EF92FF920F931F93CF93DF93EC0111
S11333206A017B0148015901B901A801A3E076951E
S1133330679557954795AA95D1F7D901C80116E124
S1133340B695A795979587951A95D1F72C8122FD67
S113335008C07695679557954795B695A79597951F
S113336087954C155D056E057F0508F49EC0C8164B
S1133370D906EA06FB0608F498C08C8182FD04C0D5
S1133380CC0CDD1CEE1CFF1CC501B401A701960189
S11333900E94D3308FEF90E0A0E0B0E019EF28173F
S11333A039074A075B0758F0880F991FAA1FBB1FEC
S11333B01D3F0CF481601F5F173089F74CC017FF65
S11333C04AC0D701C60103E0880F991FAA1FBB1F7B
S11333D00A95D1F7881A990AAA0ABB0A812F992754
S11333E087FD90951E3FE4F46DEF7FEF681B790B2A
S11333F0A501940104C0220F331F441F551F6A9571
S1133400D2F7CA01B90146015701B694A79497941B
S11334108794680D791D8A1D9B1DA701960118C00C
S11334209C012D5F3F4FD701C60104C0880F991F2F
S1133430AA1FBB1F2A95D2F79C01AD01BC01CD0187
S11334409695879577956795680D791D8A1D9B1DBF
S11334500E94D33021C0212F332727FD30952D5FC3
S11334603F4FD701C60104C0880F991FAA1FBB1F75
S11334702A95D2F79C01AD01BC01CD0196958795A3
S113348077956795680D791D8A1D9B1D0E94D33021
S11334902150310941095109832F8F701295107FF2
S11334A0812B8F832E8381E001C080E0DF91CF9157
S11334B01F910F91FF90EF90DF90CF90BF90AF904E
S11334C09F908F9008950F931F93CF93DF93EC01F8
S11334D08B01009709F49CC0803C910511F460E1D4
S11334E005C0C11584E0D80721F464E080E090E0D1
S11334F08DC0C038E1E0DE0711F462E0F7CFC115FA
S1133500F1E0DF0711F461E0F1CFC03883E0D807C0
S113351011F461E005C0C115E2E0DE0721F462E0C8
S113352081E090E073C0C032F3E0DF0721F464E08F
S113353082E090E06BC0C11588E0D80711F461E027
S11335405BC0C115E9E0DE0711F461E04DC0C115AF
S1133550FAE0DF0711F461E057C0C03488E0D8070F
S113356011F462E049C0C034E9E0DE0711F462E01E
S11335703BC0C039F8E0DF0711F464E03DC0C03956
S113358089E0D80711F464E02FC0C039EAE0DE070F
S113359011F464E039C0C03CF8E0DF0711F468E0DE
S11335A02BC0C03C89E0D80711F468E01DC0C03AC4
S11335B0E8E0DE0711F460E11FC0C03AF9E0DF077C
S11335C011F460E111C0C03A8AE0D80711F460E157
S11335D01BC0C03BE8E0DE0711F460E20DC0C03B55
S11335E0F9E0DF0721F460E284E090E00FC0C03826
S11335F084E0D80721F460E483E090E007C0C03A97
S1133600E4E0DE0729F460E485E090E00E94911193
S11336108D818F738D83F80186819481892B9085A8
S1133620992311F098E001C090E0892B8D83F80173
S1133630408151816281738100E018E428EE31E019
S1133640CE0161DE9C8198609C839C8190619C8307
S1133650DF91CF911F910F9108958091820080FD99
S1133660FCCF08956091800062706160880F880FBC
S11336708C73682B80E890E00E94BE11EECF6091BD
S113368080006C7F616080E890E00C94BE116091D2
S113369080006C73636080E890E00E94BE11DDCF0F
S11336A0A0918428B091A528E5E8F8E280E090E0B4
S11336B061E070E02A2F30E0082E02C0359527958E
S11336C00A94E2F720FF19C0208131812150310989
S11336D020833183232B89F49B01082E01C0220F00
S11336E00A94EAF7B22B428153814115510519F02E
S11336F04083518302C02095A223019634968830DA
S11337009105C1F6A0938428B093A52860E070E0E9
S1133710CB010E94D91260E870E080E090E00C9444
S1133720EB120E940A1380E59BE10E94051360E0FE
S113373070E0CB010E94D91260E870E080E090E074
S11337400C94EB128830F0F49FB7F89424E0829F35
S1133750F0011124EB57F74D408351836283738347
S113376021E030E001C0220F8A95EAF78091842895
S1133770822B8093842820958091A528822380938E
S1133780A5289FBF0895AB0160E070E0DBCFAB01DB
S1133790D9CF8830E0F42091A52830E0082E02C06B
S11337A0359527950A94E2F720FF11C09FB7F89446
S11337B021E030E001C0220F8A95EAF7209580913C
S11337C0A52882238093A5289FBF81E0089580E0E7
S11337D008959FB7F89421E030E001C0220F8A9544
S11337E0EAF72095809184288223809384289FBFC0
S11337F008952FB7F89494E0899FF0011124EE5DA9
S1133800F44D60817181828193812FBF08959FB7A8
S1133810F89424E0829FF0011124EF5AF44D408380
S11338205183628373839FBF08958093A72808956B
S11338301092A828882339F01092AD281092AE284F
S11338401092AA28089581E08093AA2808951092DE
S1133850A828882339F01092AD281092AE2810922F
S1133860AB28089581E08093AB2808951092A8288E
S1133870882339F01092AD281092AE281092AC280B
S1133880089581E08093AC2808951092A828882395
S113389039F01092AD281092AE281092A9280895FC
S11338A081E08093A9280895EF92FF920F931F93CC
S11338B0CF93DF9329E0829FC0011124FC01E059DA
S11338C0F44D23812223E9F0E090842DC0E0D0E080
S11338D08C010C58144D12C0BE0183E0660F771F93
S11338E08A95E1F76C5F724D48E050E0C8010E9490
S11338F028322196009711F48F2D04C0FC2ECE158A
S113390058F38FEFDF91CF911F910F91FF90EF90BC
S11339100895DF92EF92FF920F931F93CF93DF935B
S1133920D82E7B01C0913229D0E08E010F5F1F4F4A
S11339300F70112780913129801799F093E0CC0FF3
S1133940DD1F9A95E1F7CF54D74D0E94B50B6883DC
S113395079838A839B83DC821D82EE82FF820093BB
S11339603229DF91CF911F910F91FF90EF90DF905B
S11339700895BF92CF92DF92EF92FF920F931F931D
S1133980CF93DF93B82E6A017B01C0913229D0E036
S11339908E010F5F1F4F0F701127809131298017FF
S11339A0A1F023E0CC0FDD1F2A95E1F7CF54D74DCA
S11339B00E94B50B688379838A839B83BC8281E0F0
S11339C08D83CE82DF8200933229DF91CF911F91C4
S11339D00F91FF90EF90DF90CF90BF9008950197E3
S11339E0B9F42091712B3091722BC901880F991F62
S11339F0820F931F969587958093AD289093AE2858
S1133A002093AF283093B0281092A7281092A828AA
S1133A1008951092A828882361F01092AD2810927E
S1133A20AE288091312990E001968F709927809378
S1133A30312908951092A8288823D1F01092AD2836
S1133A401092AE288091AF289091B0286091712B8C
S1133A507091722B0E94AC308093AF289093B02861
S1133A608091132B90E001968F7099278093132BEC
S1133A7008958091680683FF10C08091222B909155
S1133A80232BA091242BB091252B80932F2B909343
S1133A90302BA093312BB093322B88E080936606B1
S1133AA008959091480692FB992790F98091642B90
S1133AB0880F892B87708093642B9091632B9111CD
S1133AC028C0873051F521E02093632B8091222B6D
S1133AD09091232BA091242BB091252B0196A11D0D
S1133AE0B11D8093222B9093232BA093242BB0936E
S1133AF0252B2093622B0E94B50B60935E2B709351
S1133B005F2B8093602B9093612B88E08093270632
S1133B1004C0811102C01092632B9091680692FB3D
S1133B20992790F98091662B880F892B8770809351
S1133B30662B9091652B911128C0873051F521E0B7
S1133B402093652B8091262B9091272BA091282BD5
S1133B50B091292B0196A11DB11D8093262B909322
S1133B60272BA093282BB093292B20935D2B0E9405
S1133B70B50B6093592B70935A2B80935B2B9093C6
S1133B805C2B80E2809307060895811102C0109295
S1133B90652B08950F931F93CF93DF93CDB7DEB7B3
S1133BA06197CDBFDEBF89E893E20E94931041E1A3
S1133BB050E08E010F5F1F4FB80183EC90E00E942C
S1133BC0D91161E1C8010E947A0A811135C0898145
S1133BD09A81AB81BC818F3F9F4FAF4FBF4F21F480
S1133BE019821A821B821C8289859A85AB85BC85C1
S1133BF08F3F9F4FAF4FBF4F21F419861A861B8604
S1133C001C868D819E81AF81B8858F3F9F4FAF4FBA
S1133C10BF4F21F41D821E821F8218868D859E85CA
S1133C20AF85B8898F3F9F4FAF4FBF4F51F41D866B
S1133C301E861F86188A05C081E1F80111928A95B3
S1133C40E9F789819A81AB81BC812FB7F89480937D
S1133C50222B9093232BA093242BB093252B2FBF9F
S1133C608D819E81AF81B8852FB7F8948093262BE0
S1133C709093272BA093282BB093292B2FBF4985F2
S1133C805A856B857C8580E0C2DD4D855E856F85B8
S1133C90788981E0BCDD6196CDBFDEBFDF91CF9135
S1133CA01F910F910895FC018081805C9181905C4B
S1133CB0682F772767FD7095472F552747FD5A953D
S1133CC049705527840F8295807F692F772767FD78
S1133CD07095272F332727FD3A9529703327290F0D
S1133CE02F70822B08958F929F92AF92BF92CF92A2
S1133CF0DF92EF92FF921F93CF93DF9380E0D4DDA6
S1133D00982E81E0D1DDA82E82E0CEDDB82E0E946F
S1133D10B50B6093152B7093162B8093172B9093F0
S1133D20182B8091680683FB882780F980932A2BBF
S1133D308091622B8823C9F08FB7F894C0905E2BD2
S1133D40D0905F2BE090602BF090612B8FBF0E948E
S1133D50B50B2AE0C20ED11CE11CF11C6C157D05CB
S1133D608E059F0510F01092622B8091622B809338
S1133D702B2B80915D2B8823C9F08FB7F894C090CA
S1133D80592BD0905A2BE0905B2BF0905C2B8FBF7B
S1133D900E94B50B2AE0C20ED11CE11CF11C6C156B
S1133DA07D058E059F0510F010925D2BC0915D2B53
S1133DB0C0932C2B97FC08C0E92DEE0FFF0BEC529F
S1133DC0F44D4081518102C040E050E840931C2BE7
S1133DD050931D2BA7FC09C0EA2DEE0FFF0BEC52EC
S1133DE0F44D0190F081E02D02C0E0E0F0E8E093B2
S1133DF01E2BF0931F2BB7FC08C0AB2DAA0FBB0BD7
S1133E00AC52B44D2D913C9102C020E030E8209397
S1133E10202B3093212B411560E8560741F0E11522
S1133E2070E8F70721F0211580E8380711F482E0E3
S1133E3001C081E08093192B6091AF287091B02864
S1133E408091712B9091722B6817790718F081E09B
S1133E5090E0BAC09091482B80912A2B9813F7CF09
S1133E609091492B80912B2B9813F1CF80914A2B61
S1133E708C13EDCF411560E8560701F180913A2B80
S1133E8090913B2B841B950BAA2797FDA095BA2FE5
S1133E90B7FF07C0B095A095909581959F4FAF4F00
S1133EA0BF4F40918E2B50918F2B662757FD609505
S1133EB0762F84179507A607B7074CF6E11570E827
S1133EC0F70709F180913C2B90913D2B8E1B9F0BA2
S1133ED0AA2797FDA095BA2FB7FF07C0B095A09564
S1133EE0909581959F4FAF4FBF4F40918E2B50912E
S1133EF08F2B662757FD6095762F84179507A607A5
S1133F00B7070CF0A4CF211580E8380709F1809198
S1133F103E2B90913F2B821B930BAA2797FDA095D4
S1133F20BA2FB7FF07C0B095A095909581959F4F84
S1133F30AF4FBF4F40918E2B50918F2B662757FD6B
S1133F406095762F84179507A607B7070CF07FCFE7
S1133F5080E04FDCC090402BD090412BE090422B6E
S1133F60F090432B6C197D098E099F09C090942B06
S1133F70D090952BE090962BF090972B6C157D05A7
S1133F808E059F0508F063CF81E033DCC090442B9D
S1133F90D090452BE090462BF090472B6C197D096F
S1133FA08E099F0921E030E0C090902BD090912B96
S1133FB0E090922BF090932B6C157D058E059F0558
S1133FC010F420E030E0C90180FF3CC02091142BA4
S1133FD030E0C90101968F709927F82E4091132B78
S1133FE0841305C001968F7099278093132B109228
S1133FF0AF281092B0281EE1129FE001139FD00D4C
S11340001124DE01AD5CB64DE5E1FBE2812F0190A8
S11340100D928A95E1F70E94B50BCD5CD64D68836D
S113402079838A839B83E091142B1E9FF0011124D2
S1134030ED5CF64DA3E3BBE201900D921A95E1F716
S1134040F092142B40911C2B50911D2B411520E80C
S1134050520709F448C08091AA2B9091AB2B609130
S11340601A2B70911B2B4817590784F06230710585
S113407069F08091A82B882331F0662757FD60955D
S1134080762F84E676DC82E090E029C02091AC2B88
S11340903091AD2B2417350784F06330710569F036
S11340A08091A92B882331F0662757FD6095762FE0
S11340B085E65FDC83E090E012C060911A2B70917A
S11340C01B2B6130710579F0205F3F4F24173507B2
S11340D054F440974817590734F481E090E08093F2
S11340E01A2B90931B2B0E94B50B605E734E8F4F5F
S11340F09F4F20E831E541E050E00E94D330490170
S11341005A0124E833E040E050E00E94D330C22F4B
S1134110C295C695C7702F71C12CD12C7601C3945A
S113412004C0CC0CDD1CEE1CFF1C2A95D2F7C50183
S1134130B4016D5F7F4F8F4F9F4F27E030E040E029
S113414050E00E94D330D0E0CC0FDD1FCC0FDD1F38
S1134150653071058105910518F4C654D44D02C02B
S1134160CA53D44D88819981AA81BB81C822D9229E
S1134170EA22FB22CD28CE28CF2881F080912C2B57
S1134180882371F080912D2B81110AC081E08093E6
S11341902D2B60E070E088E7BCDB02C010922D2B71
S11341A08091680683FF03C010922E2B20C040919B
S11341B02F2B5091302B6091312B7091322B8091A9
S11341C0222B9091232BA091242BB091252B4817BF
S11341D059076A077B0759F080912E2B811107C07C
S11341E060E070E082E895DB81E080932E2B809183
S11341F0A62B9091A72B8130910529F080F002978E
S113420009F083C018C020911C2B30911D2B809184
S1134210AA2B9091AB2B281739070CF46EC0DF91B1
S1134220CF911F91FF90EF90DF90CF90BF90AF9010
S11342309F908F901ECC0E94B50B605E734E8F4F83
S11342409F4F20E831E541E050E00E94D33049011E
S11342505A0124E833E040E050E00E94D330C22FFA
S1134260C295C695C7702F71C12CD12C7601C39409
S113427004C0CC0CDD1CEE1CFF1C2A95D2F7C50132
S1134280B4016D5F7F4F8F4F9F4F27E030E040E0D8
S113429050E00E94D330D0E0CC0FDD1FCC0FDD1FE7
S11342A0653071058105910518F4C856D44D02C0D6
S11342B0C255D44D88819981AA81BB81C822D92253
S11342C0EA22FB22CD28CE28CF2809F4A8CF80915A
S11342D01C2B90911D2B2091A42B3091A52B409148
S11342E08E2B50918F2BB901641B750B68177907BE
S11342F044F08115904809F492CF88E080936506D4
S113430004C0821793070CF08ACFDF91CF911F91DD
S1134310FF90EF90DF90CF90BF90AF909F908F90E1
S1134320089585E793E20E94931083E08093702BB5
S113433062E680E79BE20E947A0A8093D22BF8948B
S113434043E650E060E77BE280E690E00E9487125B
S11343508091CF0187FDFCCF789408953F924F92CE
S11343605F926F927F928F929F92AF92BF92CF9201
S1134370DF92EF92FF920F931F93CF93DF932B0162
S11343803C017A01322EE80161EF71E2CA010E9418
S11343904532009709F083C381E08093AA28809373
S11343A0AB28912C812CF8E0CF2EF7E0DF2EACE384
S11343B0AA2EB12C57C30881198160E072E2C801AA
S11343C00E944532009769F58A819B81892B49F5C2
S11343D04C815D816E817F818091712B9091722BD4
S11343E0A0E0B0E084179507A607B70709F435C322
S11343F04C33510528F4A092712BB092722B08C053
S1134400483027E0520740F44093712B5093722BAD
S113441081E09924939422C3C092712BD092722B81
S1134420F7CF64E072E2C8010E944532009749F573
S11344308A819B81892B29F54C815D816E817F81E5
S113444080918E2B90918F2BAA2797FDA095BA2F40
S11344508A019B01E4E0000F111F221F331FEA951C
S1134460D1F780179107A207B30709F4F6C274E0E5
S1134470440F551F7A95E1F740938E2B50938F2B61
S1134480C7CF6CE072E2C8010E9445320097F9F48C
S11344908A819B81892BD9F48C819D81AE81BF81D6
S11344A04091942B5091952B6091962B7091972B62
S11344B0481759076A077B0709F4CFC28093942BE6
S11344C09093952BA093962BB093972BA1CF61E15A
S11344D072E2C8010E9445320097F9F48A819B81F7
S11344E0892BD9F48C819D81AE81BF814091902B21
S11344F05091912B6091922B7091932B48175907EF
S11345006A077B0709F4A9C28093902B9093912B9F
S1134510A093922BB093932B7BCF66E172E2C801F8
S11345200E9445320097F9F48A819B81892BD9F442
S11345308C819D81AE81BF814091982B5091992BA4
S113454060919A2B70919B2B481759076A077B0738
S113455009F483C28093982B9093992BA0939A2B60
S1134560B0939B2B55CF6AE172E2C8010E94453299
S11345700097F9F48A819B81892BD9F48C819D81E0
S1134580AE81BF8140919C2B50919D2B60919E2BBD
S113459070919F2B481759076A077B0709F45DC27E
S11345A080939C2B90939D2BA0939E2BB0939F2B39
S11345B02FCF6EE172E2C8010E9445320097F9F4F0
S11345C08A819B81892BD9F48C819D81AE81BF81A5
S11345D04091A02B5091A12B6091A22B7091A32B01
S11345E0481759076A077B0709F437C28093A02B41
S11345F09093A12BA093A22BB093A32B09CF62E29B
S113460072E2C8010E9445320097F9F48A819B81C5
S1134610892BD9F48C819D81AE81BF814091AE2BD1
S11346205091AF2B6091B02B7091B12B4817590763
S11346306A077B0709F411C28093AE2B9093AF2BCA
S1134640A093B02BB093B12BE3CE68E272E2C80121
S11346500E9445320097F9F48A819B81892BD9F411
S11346608C819D81AE81BF814091B22B5091B32B3F
S11346706091B42B7091B52B481759076A077B07D3
S113468009F4EBC18093B22B9093B32BA093B42B7A
S1134690B093B52BBDCE6EE272E2C8010E944532E2
S11346A00097F9F48A819B81892BD9F48C819D81AF
S11346B0AE81BF814091B62B5091B72B6091B82B3E
S11346C07091B92B481759076A077B0709F4C5C1CC
S11346D08093B62B9093B72BA093B82BB093B92BA0
S11346E097CE64E372E2C8010E9445320097F9F460
S11346F08A819B81892BD9F48C819D81AE81BF8174
S11347004091BA2B5091BB2B6091BC2B7091BD2B67
S1134710481759076A077B0709F49FC18093BA2B8E
S11347209093BB2BA093BC2BB093BD2B71CE6AE3AB
S113473072E2C8010E9445320097F9F48A819B8194
S1134740892BD9F48C819D81AE81BF814091BE2B90
S11347505091BF2B6091C02B7091C12B4817590702
S11347606A077B0709F479C18093BE2B9093BF2B12
S1134770A093C02BB093C12B4BCE60E472E2C8016E
S11347800E9445320097F9F48A819B81892BD9F4E0
S11347908C819D81AE81BF814091C22B5091C32BEE
S11347A06091C42B7091C52B481759076A077B0782
S11347B009F453C18093C22B9093C32BA093C42BB1
S11347C0B093C52B25CE66E472E2C8010E9445323F
S11347D00097F9F48A819B81892BD9F48C819D817E
S11347E0AE81BF814091C62B5091C72B6091C82BDD
S11347F07091C92B481759076A077B0709F42DC123
S11348008093C62B9093C72BA093C82BB093C92B2E
S1134810FFCD6CE472E2C8010E9445320097F9F4BE
S11348208A819B81892BD9F48C819D81AE81BF8142
S11348304091CA2B5091CB2B6091CC2B7091CD2BF6
S1134840481759076A077B0709F407C18093CA2BE5
S11348509093CB2BA093CC2BB093CD2BD9CD62E5E9
S113486072E2C8010E9445320097F9F48A819B8163
S1134870892BD9F48C819D81AE81BF814091CE2B4F
S11348805091CF2B6091D02B7091D12B48175907A1
S11348906A077B0709F4E1C08093CE2B9093CF2B5A
S11348A0A093D02BB093D12BB3CD68E572E2C801AD
S11348B00E944532009749F58A819B81892B29F50D
S11348C04C815D816E817F818091A42B9091A52B79
S11348D0AA2797FDA095BA2F8A019B0164E0000FD7
S11348E0111F221F331F6A95D1F780179107A20762
S11348F0B30709F4B2C0F4E0440F551FFA95E1F789
S11349004093A42B5093A52B83CD60E672E2C8019B
S11349100E9445320097C9F48A819B81892BA9F4AE
S11349204C815D816E817F818091A62B9091A72B14
S1134930A0E0B0E084179507A607B70709F48DC077
S11349404093A62B5093A72B63CD64E672E2C80173
S11349500E944532009769F48A819B81029749F449
S11349608C819091A82B981709F477C08093A82B79
S11349704FCD6AE672E2C8010E944532009769F49D
S11349808A819B81029749F48C819091A92B981775
S113499009F463C08093A92B3BCD60E772E2C801A0
S11349A00E944532009741F58A819B81892B21F52C
S11349B04C815D816E817F818091AA2B9091AB2B7C
S11349C0AA2797FDA095BA2F8A019B01E4E0000F66
S11349D0111F221F331FEA95D1F780179107A207F1
S11349E0B307D9F174E0440F551F7A95E1F740936A
S11349F0AA2B5093AB2B0CCD69E772E2C8010E943D
S1134A004532009741F58A819B81892B21F54C81A0
S1134A105D816E817F818091AC2B9091AD2BAA2713
S1134A2097FDA095BA2F8A019B0164E0000F111F26
S1134A30221F331F6A95D1F780179107A207B30786
S1134A4061F004E0440F551F0A95E1F74093AC2B45
S1134A505093AD2BDDCC80E001C081E08394289697
S1134A608823A1F08310A7CC17C05BDC1092AF2879
S1134A701092B028A3019201B70181E00E942E0791
S1134A80882321F01092AD281092AE2881E0809303
S1134A90AA288093AB2803C0992061F3E6CFDF9165
S1134AA0CF911F910F91FF90EF90DF90CF90BF9027
S1134AB0AF909F908F907F906F905F904F903F90BA
S1134AC00895CF93DF93CDB7DEB76197CDBFDEBF37
S1134AD080E00E94F91B69837A838B839C8381E045
S1134AE00E94F91B6D837E838F8398872FB7F89478
S1134AF08091512B9091522BA091532BB091542B18
S1134B002FBF89879A87AB87BC872FB7F89480918A
S1134B10552B9091562BA091572BB091582B2FBF0A
S1134B208D879E87AF87B88B60E1CE0101960E9486
S1134B307A0A898B41E150E0BE016F5F7F4F83ECBD
S1134B4090E00E9487128091CF0187FDFCCF89E518
S1134B5093E20E9493106196CDBFDEBFDF91CF91A7
S1134B600895AFDFF89461E089E790E00E94BE11F8
S1134B70FFCF2F923F924F925F926F927F928F92CC
S1134B809F92AF92BF92CF92DF92EF92FF920F93D8
S1134B901F93CF93DF9300D0CDB7DEB74B015C01F9
S1134BA049835A83690162E872E2C9010E9445326D
S1134BB0009729F5A501940169817A8181E00E9419
S1134BC02E0785E00E94E91B68E270E085E00E9400
S1134BD0C31B04C083E79EE10E94850685E00E9412
S1134BE0C91B8823B9F3F7018281882309F4C1C062
S1134BF062EF74E080E090E00E946607BAC068E863
S1134C0072E2C6010E944532009709F03CC00130AF
S1134C1009F0BAC1F70180819181892B09F0B4C1EF
S1134C201281012F10FF11C08FB7F8941092222B1C
S1134C301092232B1092242B1092252B8FBF40E02F
S1134C4050E0BA0180E00E94071C11FF11C08FB729
S1134C50F8941092262B1092272B1092282B109246
S1134C60292B8FBF40E050E0BA0181E00E94071C6D
S1134C70002319F026DF0E94CA1DA5019401698151
S1134C807A8181E086C16AE872E2C6010E944532F7
S1134C90009739F5023009F077C1F70180819181DD
S1134CA0892B09F071C186819781892B09F06CC128
S1134CB082818150823008F067C1408551856285C8
S1134CC073859FB7F89424E0829FF0011124EE5D70
S1134CD0F44D40835183628373839FBF0E94071CFA
S1134CE0C9CF6CE972E2C6010E944532009709F00F
S1134CF041C0A501940169817A8181E00E942E0757
S1134D0085E00E94E91B68E270E085E00E94C31B15
S1134D1004C083E79EE10E94850685E00E94C91BCA
S1134D208823B9F3F8940E94D6128091CF0187FDAD
S1134D30FCCF1092222B1092232B1092242B109232
S1134D40252B1092262B1092272B1092282B109291
S1134D50292B1092512B1092522B1092532B1092FC
S1134D60542B1092552B1092562B1092572B1092B5
S1134D70582BF7DE6BEA72E2C6010E9445320097B7
S1134D8009F002C1033009F0FFC0F701808191816D
S1134D90019709F0F9C086819781019709F0F4C061
S1134DA084859585019709F0EFC052814381E52FF1
S1134DB0F42FDF010D900020E9F75197AE17BF07DC
S1134DC009F0E2C0F70130852185E32FF22FDF01DE
S1134DD00D900020E9F75197AE17BF0709F0D4C032
S1134DE0F70196858785E92FF82FDF010D900020C4
S1134DF0E9F75197AE17BF0709F0C6C0652F742FA6
S1134E00A92FB82F832F922F40E0FB012191BF01DE
S1134E10322F30533A3048F0522F515421E030E0D1
S1134E20563028F020E030E002C021E030E020FFDE
S1134E30ABC0FC012191CF01322F30533A3048F0FE
S1134E40522F515421E030E0563028F020E030E079
S1134E5002C021E030E020FF97C02D91322F305363
S1134E603A3048F0522F515421E030E0563028F0C7
S1134E7020E030E002C021E030E020FF85C04F5F39
S1134E80403119F61092732B10927C2B1092852BC3
S1134E90B4E74B2EBBE25B2E1DE7612E1BE2712EA5
S1134EA006E81BE2C12CD12CF701828193818C0D81
S1134EB09D1D0E94531E282EF20181932F01F7019C
S1134EC0808591858C0D9D1D0E94531E382EF30103
S1134ED081933F01F701868597858C0D9D1D0E9466
S1134EE0531EF80181938F019091732B21E030E0E0
S1134EF0911105C0FFEF2F1202C020E030E02170B5
S1134F002093732B90917C2B21E030E0911105C00C
S1134F109FEF391202C020E030E0217020937C2BF7
S1134F209091852B911108C021E030E08F3F11F45E
S1134F3020E030E0C90102C081E090E081708093FC
S1134F40852BE2E0CE0ED11CF0E1CF16D10409F09E
S1134F50ABCFE7D9A501940169817A8181E00E94F0
S1134F602E0785E00E94E91B60E570E085E00E9461
S1134F70C31B04C083E79EE10E94850685E00E946E
S1134F80C91B8823B9F3F5CEA501940169817A81FF
S1134F9080E00F900F90DF91CF911F910F91FF90C0
S1134FA0EF90DF90CF90BF90AF909F908F907F90C5
S1134FB06F905F904F903F902F900C942E071F920C
S1134FC00F920FB60F9211248F93EF93FF9381E00A
S1134FD0E0E6F6E08487FF91EF918F910F900FBE8A
S1134FE00F901F9018951F920F920FB60F921124D5
S1134FF08F93EF93FF9381E0E0E4F6E08487FF91E1
S1135000EF918F910F900FBE0F901F9018951F92E4
S11350100F920FB60F9211248F93EF93FF9381E0B9
S1135020E0E2F6E08487FF91EF918F910F900FBE3D
S11350300F901F9018951F920F920FB60F92112484
S11350408F93EF93FF9381E0E0E0F6E08487FF9194
S1135050EF918F910F900FBE0F901F901895CF93E3
S1135060DF93CDB7DEB7C358D109CDBFDEBF87E02C
S11350708093A2008093A2000E9464110E94911B5D
S11350800E9402111092852D1092862D1092872D68
S11350901092882D1092892D81E080938A2D789426
S11350A080E098E00E94D11767EC7BE080E098E014
S11350B00E940E1880910108887F8093010882E184
S11350C09AE78093260890932708809106088C7F9E
S11350D08093060880910608826080930608809178
S11350E00008807F87608093000880E099E00E9438
S11350F0D11761E57DE180E099E00E940E1880916E
S11351000109887F809301098CE990E08093260946
S113511090932709809106098C7F809306098091DA
S1135120060983608093060980910009807F876067
S1135130809300090E94550F81E090E00E944C0F7B
S113514064ED70E080E090E00E94991088ED92E2B6
S11351500E94881062E070E080E090E00E94991064
S113516080E090E00E94931083E6E0E7FBE2DF0139
S11351701D928A95E9F743E650E0BF0180E690E08E
S11351800E94D9118091702B823021F0833009F074
S1135190EAC0E1C06FE380E79BE20E947A0A8111D2
S11351A0E2C08091982B9091992BA0919A2BB09169
S11351B09B2B8093AE2B9093AF2BA093B02BB093EB
S11351C0B12B1092BA2B1092BB2B1092BC2B1092C5
S11351D0BD2B1092C62B1092C72B1092C82B109285
S11351E0C92B80919C2B90919D2BA0919E2BB091CB
S11351F09F2B8093B22B9093B32BA093B42BB0939B
S1135200B52B1092BE2B1092BF2B1092C02B109274
S1135210C12B1092CA2B1092CB2B1092CC2B109234
S1135220CD2B8091A02B9091A12BA091A22BB0917A
S1135230A32B8093B62B9093B72BA093B82BB0934A
S1135240B92B1092C22B1092C32B1092C42B109224
S1135250C52B1092CE2B1092CF2B1092D02B1092E4
S1135260D12B41E150E08E010F5F1F4FB8018FE950
S113527090E00E94D91161E1C8010E947A0A81116B
S113528035C089819A81AB81BC818F3F9F4FAF4FDD
S1135290BF4F21F419821A821B821C8289859A8548
S11352A0AB85BC858F3F9F4FAF4FBF4F21F419860D
S11352B01A861B861C868D819E81AF81B8858F3F9F
S11352C09F4FAF4FBF4F21F41D821E821F8218864D
S11352D08D859E85AF85B8898F3F9F4FAF4FBF4F58
S11352E051F41D861E861F86188A05C081E1D801E7
S11352F01D928A95E9F789819A81AB81BC812FB788
S1135300F8948093222B9093232BA093242BB09377
S1135310252B2FBF8D819E81AF81B8852FB7F8943F
S11353208093262B9093272BA093282BB093292B83
S11353302FBF49855A856B857C8580E00E94071CB8
S11353404D855E856F85788981E00E94071C0E94E7
S11353509121B7DBBDC063E680E79BE20E947A0A35
S1135360811101C0B3C043E650E06FEF70E080E705
S11353709BE20E943E3283E08093702B88E592E0AA
S11353808093712B9093722B1092732B10927C2B21
S11353901092852B80E190E080938E2B90938F2B3D
S11353A088E290E0A0E0B0E08093902B9093912B62
S11353B0A093922BB093932B80EF90E0A0E0B0E009
S11353C08093942B9093952BA093962BB093972B2B
S11353D01092982B1092992B10929A2B10929B2B2F
S11353E010929C2B10929D2B10929E2B10929F2B0F
S11353F01092A02B1092A12B1092A22B1092A32BEF
S11354001092AE2B1092AF2B1092B02B1092B12BA6
S11354101092B22B1092B32B1092B42B1092B52B86
S11354201092B62B1092B72B1092B82B1092B92B66
S11354301092BA2B1092BB2B1092BC2B1092BD2B46
S11354401092BE2B1092BF2B1092C02B1092C12B26
S11354501092C22B1092C32B1092C42B1092C52B06
S11354601092C62B1092C72B1092C82B1092C92BE6
S11354701092CA2B1092CB2B1092CC2B1092CD2BC6
S11354801092CE2B1092CF2B1092D02B1092D12BA6
S113549080EC93E08093A42B9093A52B81E090E083
S11354A08093A62B9093A72B1092A82B1092A92B34
S11354B080E194E08093AA2B9093AB2B80EA90E058
S11354C08093AC2B9093AD2B0E9491210E94CA1D16
S11354D094E09093B00080E1809350069093B000E4
S11354E0809370069FB7F89480915206887F8093CA
S11354F0520680915206809352069FBF9FB7F8943C
S113550080917206887F80937206809172068093E0
S113551072069FBF1092AD281092AE281092A72851
S11355201092A82881E08093AA288093AB288093C6
S1135530AC288093A92810921A2B10921B2B80E080
S113554090E880931C2B90931D2B80931E2B90939B
S11355501F2B8093202B9093212B82E08093192B77
S113556010922A2B10922B2B10922C2B10922D2B55
S113557010922E2B809178008093A6288FE7809339
S1135580780082E8E1EBF8E2DF011D928A95E9F701
S113559082EE91E0E3E3F9E2DF019C011D922150E8
S11355A03040E1F780E593ECA0E0B0E08093672B16
S11355B09093682BA093692BB0936A2B88E1809316
S11355C06F2B8BE391E0A0E0B0E080936B2B909382
S11355D06C2BA0936D2BB0936E2B60E483E090E072
S11355E00E94911167E67BE280E894E00E9414191E
S11355F01092842D0E942B0B98E09093250680E254
S11356008093060690932506809305061FE0E8E044
S1135610FE2E00E268E070E080E00E94C31B80E0A0
S11356200E94C91B8823D9F3F0922706009307062A
S1135630115081F70EEA11E229EB35E245E15CE114
S11356406FEE7CE181EB95E20E94C109811116C0E5
S11356506CEF75E080E090E00E94660761E070E026
S113566080E00E94C71B08E210E080E00E94C91B92
S11356708823D9F301501109C1F773DA88E08093C4
S1135680260680E28093060660E570E084E00E94CE
S1135690C71B60E170E087E00E94C71B60E570E013
S11356A086E00E94C71B60E870E785E00E94C71B84
S11356B08091712B9091722B8093AF289093B02896
S11356C079E0F72E8E0107591F4F85E00E94C91B10
S11356D0882319F0F6D90E94CA1D0E94731E809176
S11356E0A0268823A9F01092A02680E00E94F91B2E
S11356F0AB01BC0180E00E94071C81E00E94F91B01
S1135700AB01BC0181E00E94071CDBD90E94CA1DC9
S113571084E00E94C91B882369F02091AF2830914E
S1135720B028C9010A962817390720F48093AF28B6
S11357309093B02883E79EE10E94180886E00E94B7
S1135740C91B8823D9F08091AD289091AE280A9680
S11357508093AD289093AE284091712B5091722B79
S11357609A01220F331F240F351F8217930730F03D
S113577068E376E083E79EE10E94660787E00E9483
S1135780C91B882309F4DAC08091842D833031F455
S11357908091842D882309F4D1C0B0C086EB92E2B5
S11357A00E9493100E94450EE12C91E1692E28E09D
S11357B0522E772473948EC0D4018C91882371F077
S11357C0FC9CB001FD9C700D11246C58744D48E094
S11357D050E0C5013DD6009709F47BC0BFEFCB1A5A
S11357E0DB0AE9E08E0E911CF3E0CF16D10421F719
S11357F0ABC480917C2B882349F08091852B88232E
S113580049F089EC92E20E94931063C081E090E039
S113581041E003C082E090E042E0EE2DF0E06E9EB5
S1135820B0016F9E700D11246C50744DF89E900160
S1135830F99E300D1124D901AC58B44D83E0EE0F1C
S1135840FF1F8A95E1F7EC5FF24D852D01900D92D3
S11358508A95E1F7F901E059F44D7382CD57DF4F92
S11358604883C358D040CF57DF4F6883C158D040D6
S1135870CE57DF4F7883C258D0400E949121CD5734
S1135880DF4F4881C358D040CF57DF4F6881C1589C
S1135890D040CE57DF4F7881C258D040413021F0FC
S11358A0423091F08FE611C080E7CD57DF4F488337
S11358B0C358D0400E94891CCD57DF4F4881C3583C
S11358C0D0404093AC2805C081E70E94891C7092A7
S11358D0AC28E3948091842DE81608F059CF73E73F
S11358E0872E7BE2972EC12CD12C28E0E29E50011A
S11358F0112484E09DE2A80EB91E5ECF8AE090E0F8
S11359000E94321B0E94471B0E94890A0E943F1B6F
S113591083ED92E20E94881080E00E94F91B0E94AD
S1135920991088ED92E20E94881081E00E94F91B90
S11359300E9499108AED92E20E9493108091A72808
S1135940882309F4C2CE8091A8288111BECE80910B
S1135950A928882351F19E012F5F3F4F80E1D9018F
S11359601D928A95E9F781EE92E289839A8381E018
S113597090E08B839C8385EE92E28D839E8383EFFC
S113598092E289879A878091A62890E0A0E0B0E00F
S11359908D879E87AF87B88B81E08093A82842E0EB
S11359A066EF72E285E49CE1CCC38091AC28882345
S11359B009F47BC088E1F80111928A95E9F785E042
S11359C093E2D8018D939C93119781E090E0129615
S11359D08D939C9313979E012F5F3F4F14962D93A5
S11359E03C93159749E053E218964D935C931997AD
S11359F01A968D939C931B97AE014E5E5F4F1C9637
S1135A004D935C931D974DE053E250964D935C93F8
S1135A10519752968D939C935397CE0183965496A7
S1135A208D939C93559740E75BE280E090E061E1C1
S1135A30B62E6901B89E4001B99E900C11248C0CBD
S1135A409D1CD40120E030E0BA01620F731FFB01FA
S1135A50E4806E2D62956F7070E063527E4DFB01A1
S1135A6060816C936E2D6F7070E063527E4DFB010C
S1135A70608111966C93119712962F5F3F4F2830D7
S1135A80310511F7D40150961C920196475F5F4F80
S1135A908330910579F681E08093A828980143E04A
S1135AA061EF71E286E39CE14CC38091AA288823CC
S1135AB009F4D3C0FE01319680E5DF011D928A9579
S1135AC0E9F780E092E289839A838091712B909127
S1135AD0722BA0E0B0E08D839E83AF83B88784E00F
S1135AE092E289879A8720918E2B30918F2B37FFF2
S1135AF002C0215F3F4FC90154E0959587955A959F
S1135B00E1F7AA2797FDA095BA2F8D879E87AF87C7
S1135B10B88B8CE092E2898B9A8B8091942B909134
S1135B20952BA091962BB091972B8D8B9E8BAF8B41
S1135B30B88F81E192E2898F9A8F8091902B909116
S1135B40912BA091922BB091932B8D8F9E8FAF8F21
S1135B50B8A388E592E289A39AA32091A42B30915B
S1135B60A52B37FF02C0215F3F4FC90144E0959543
S1135B7087954A95E1F7AA2797FDA095BA2F8DA39B
S1135B809EA3AFA3B8A780E692E289A79AA78091C3
S1135B90A62B9091A72BA0E0B0E08DA79EA7AFA75E
S1135BA0B8AB84E692E289AB9AAB82E090E08BAB2F
S1135BB09CAB2091A82B2DAB2AE632E229AF3AAF59
S1135BC08BAF9CAF8091A92B8DAF80E792E2239697
S1135BD08EAF9FAF23972091AA2B3091AB2B37FF29
S1135BE002C0215F3F4FC90134E0959587953A95EE
S1135BF0E1F7AA2797FDA095BA2F29968CAF9DAF00
S1135C00AEAFBFAF299789E792E22B968EAF9FAFD5
S1135C102B972091AC2B3091AD2B37FF02C0215F25
S1135C203F4FC90124E0959587952A95E1F7AA2766
S1135C3097FDA095BA2F61968CAF9DAFAEAFBFAF65
S1135C40619781E08093A8289E012F5F3F4F4AE02F
S1135C5061EF71E288E19CE174C28091AB288823F2
S1135C6009F4FEC086E192E289839A831B821C8236
S1135C708091982B9091992BA0919A2BB0919B2B6A
S1135C808D839E83AF83B8878AE192E289879A875E
S1135C901B861C8680919C2B90919D2BA0919E2B02
S1135CA0B0919F2B8D879E87AF87B88B8EE192E250
S1135CB0898B9A8B1B8A1C8A8091A02B9091A12B93
S1135CC0A091A22BB091A32B8D8B9E8BAF8BB88F01
S1135CD082E292E2898F9A8F1B8E1C8E8091AE2B6A
